:020000040000fa
:080000000002040000000000f2
:020000040000fa
:04000800c80200002a
:020000040000fa
:04000c00c802000026
:020000040000fa
:04001000c802000022
:020000040000fa
:04001400c80200001e
:020000040000fa
:04001800c80200001a
:020000040000fa
:04001c00c802000016
:020000040000fa
:04002000c802000012
:020000040000fa
:04002400c80200000e
:020000040000fa
:04002800c80200000a
:020000040000fa
:04002c00c802000006
:020000040000fa
:04003000c802000002
:020000040000fa
:04003400c8020000fe
:020000040000fa
:04003800c8020000fa
:020000040000fa
:04003c00c8020000f6
:020000040000fa
:04004000c8020000f2
:020000040000fa
:04004400c8020000ee
:020000040000fa
:04004800c8020000ea
:020000040000fa
:04004c00c8020000e6
:020000040000fa
:04005000c8020000e2
:020000040000fa
:04005400c8020000de
:020000040000fa
:04005800c8020000da
:020000040000fa
:04005c00c8020000d6
:020000040000fa
:04006000c8020000d2
:020000040000fa
:04006400c8020000ce
:020000040000fa
:04006800c8020000ca
:020000040000fa
:04006c00c8020000c6
:020000040000fa
:04007000c8020000c2
:020000040000fa
:04007400c8020000be
:020000040000fa
:04007800c8020000ba
:020000040000fa
:04007c00c8020000b6
:020000040000fa
:04008000c8020000b2
:020000040000fa
:04008400c8020000ae
:020000040000fa
:04008800c8020000aa
:020000040000fa
:04008c00c8020000a6
:020000040000fa
:04009000c8020000a2
:020000040000fa
:04009400c80200009e
:020000040000fa
:04009800c80200009a
:020000040000fa
:04009c00c802000096
:020000040000fa
:0400a000c802000092
:020000040000fa
:0400a400c80200008e
:020000040000fa
:0400a800c80200008a
:020000040000fa
:0400ac00c802000086
:020000040000fa
:0400b000c802000082
:020000040000fa
:0400b400c80200007e
:020000040000fa
:0400b800c80200007a
:020000040000fa
:0400bc00c802000076
:020000040000fa
:0400c000c802000072
:020000040000fa
:0400c400c80200006e
:020000040000fa
:0400c800c80200006a
:020000040000fa
:0400cc00c802000066
:020000040000fa
:0400d000c802000062
:020000040000fa
:0400d400c80200005e
:020000040000fa
:0400d800c80200005a
:020000040000fa
:0400dc00c802000056
:020000040000fa
:0400e000c802000052
:020000040000fa
:0400e400c80200004e
:020000040000fa
:0400e800c80200004a
:020000040000fa
:0400ec00c802000046
:020000040000fa
:0400f000c802000042
:020000040000fa
:0400f400c80200003e
:020000040000fa
:0400f800c80200003a
:020000040000fa
:0400fc00c802000036
:020000040000fa
:04010000c802000031
:020000040000fa
:04010400c80200002d
:020000040000fa
:04010800c802000029
:020000040000fa
:04010c00c802000025
:020000040000fa
:04011000c802000021
:020000040000fa
:04011400c80200001d
:020000040000fa
:04011800c802000019
:020000040000fa
:04011c00c802000015
:020000040000fa
:04012000c802000011
:020000040000fa
:04012400c80200000d
:020000040000fa
:04012800c802000009
:020000040000fa
:04012c00c802000005
:020000040000fa
:04013000c802000001
:020000040000fa
:04013400c8020000fd
:020000040000fa
:04013800c8020000f9
:020000040000fa
:04013c00c8020000f5
:020000040000fa
:04014000c8020000f1
:020000040000fa
:04014400c8020000ed
:020000040000fa
:04014800c8020000e9
:020000040000fa
:04014c00c8020000e5
:020000040000fa
:04015000c8020000e1
:020000040000fa
:04015400c8020000dd
:020000040000fa
:04015800c8020000d9
:020000040000fa
:04015c00c8020000d5
:020000040000fa
:04016000c8020000d1
:020000040000fa
:04016400c8020000cd
:020000040000fa
:04016800c8020000c9
:020000040000fa
:04020800c802000028
:020000040000fa
:04020c00c802000024
:020000040000fa
:04021000c802000020
:020000040000fa
:04021400c80200001c
:020000040000fa
:04021800c802000018
:020000040000fa
:04021c00c802000014
:020000040000fa
:04022000c802000010
:020000040000fa
:04022400c80200000c
:020000040000fa
:04022800c802000008
:020000040000fa
:04022c00c802000004
:020000040000fa
:04023000c802000000
:020000040000fa
:04023400c8020000fc
:020000040000fa
:04023800c8020000f8
:020000040000fa
:04023c00c8020000f4
:020000040000fa
:04024000c8020000f0
:020000040000fa
:04024400c8020000ec
:020000040000fa
:04024800c8020000e8
:020000040000fa
:04024c00c8020000e4
:020000040000fa
:04025000c8020000e0
:020000040000fa
:04025400c8020000dc
:020000040000fa
:04025800c8020000d8
:020000040000fa
:04025c00c8020000d4
:020000040000fa
:04026000c8020000d0
:020000040000fa
:04026400c8020000cc
:020000040000fa
:04026800c8020000c8
:020000040000fa
:04026c00c8020000c4
:020000040000fa
:04027000c8020000c0
:020000040000fa
:04027400c8020000bc
:020000040000fa
:04027800c8020000b8
:020000040000fa
:04027c00c8020000b4
:020000040000fa
:04028000c8020000b0
:020000040000fa
:04028400c8020000ac
:020000040000fa
:04028800c8020000a8
:020000040000fa
:04028c00c8020000a4
:020000040000fa
:04029000c8020000a0
:020000040000fa
:04029400c80200009c
:020000040000fa
:04029800c802000098
:020000040000fa
:04029c00c802000094
:020000040000fa
:0402a000c802000090
:020000040000fa
:0402a400c80200008c
:020000040000fa
:0402a800c802000088
:020000040000fa
:0402ac00c802000084
:020000040000fa
:0402b000c802000080
:020000040000fa
:0402b400c80200007c
:020000040000fa
:0402b800c802000078
:020000040000fa
:0402bc00c802000074
:020000040000fa
:0402c000c802000070
:020000040000fa
:0402c400c80200006c
:020000040000fa
:0402c800c802000068
:020000040000fa
:0402cc00c802000064
:020000040000fa
:0402d000c802000060
:020000040000fa
:0402d400c80200005c
:020000040000fa
:0402d800c802000058
:020000040000fa
:0402dc00c802000054
:020000040000fa
:0402e000c802000050
:020000040000fa
:0402e400c80200004c
:020000040000fa
:0402e800c802000048
:020000040000fa
:0402ec00c802000044
:020000040000fa
:0402f000c802000040
:020000040000fa
:0402f400c80200003c
:020000040000fa
:0402f800c802000038
:020000040000fa
:0402fc00c802000034
:020000040000fa
:04030000c80200002f
:020000040000fa
:04030400c80200002b
:020000040000fa
:04030800c802000027
:020000040000fa
:04030c00c802000023
:020000040000fa
:04031000c80200001f
:020000040000fa
:04031400c80200001b
:020000040000fa
:04031800c802000017
:020000040000fa
:04031c00c802000013
:020000040000fa
:04032000c80200000f
:020000040000fa
:04032400c80200000b
:020000040000fa
:04032800c802000007
:020000040000fa
:04032c00c802000003
:020000040000fa
:04033000c8020000ff
:020000040000fa
:04033400c8020000fb
:020000040000fa
:04033800c8020000f7
:020000040000fa
:04033c00c8020000f3
:020000040000fa
:04034000c8020000ef
:020000040000fa
:04034400c8020000eb
:020000040000fa
:04034800c8020000e7
:020000040000fa
:04034c00c8020000e3
:020000040000fa
:04035000c8020000df
:020000040000fa
:04035400c8020000db
:020000040000fa
:04035800c8020000d7
:020000040000fa
:04035c00c8020000d3
:020000040000fa
:04036000c8020000cf
:020000040000fa
:04036400c8020000cb
:020000040000fa
:04036800c8020000c7
:020000040000fa
:100400006fef20000eff20000e01880000000000aa
:10041000000020000000e000020032000001200087
:1004200020028800140007005b0007000000e000c5
:1004300003003a00e08421000100200002003700a0
:100440000000200001002000810f70000100320038
:1004500014000700000020000000e000020032004d
:100460000000020000000000d216020000000000a0
:100470000040da000000fe004440a900e02f200008
:100480000000e0000300320000002000a00188000e
:100490004440a800000006008a1f78008b1f7800e7
:1004a0000000060091018800800478000000eb0045
:1004b0001a003700e284440032a0b4009905ba0063
:1004c000e284440032a0b4009906ba00e2844400f9
:1004d00032a0b4000006eb00476fde00fd07b2005b
:1004e000636ce10003003a00ebff07000000eb0043
:1004f0000a003700606ce10004003a00005deb0088
:100500008b05e900fdff3e00040037006168e10053
:10051000010032000086eb000b00070019c7ba008b
:100520001905ba000e04e00003003a000a00e000da
:10053000e0ff3a0000000600fe07b2009e018800be
:100540008a047800f5ff3700395dba008b05e900b1
:100550000c003200295dba008b05e900080032006a
:100560000c00e00003003a00e284440032a0b40032
:10057000f5ff370019ddba008b05e900faff3a00f4
:100580008904e800e184440032a0b40000000600c1
:100590000040da000000fe00000005008000780046
:1005a000010078003041780003c2b300834f51004e
:1005b000faff3200e94f5100f8ff3200edc141006f
:1005c000834f510003003a008000780013c0b3004d
:1005d000050037008041eb00b4c2b300844f5100e6
:1005e00001003a00800078000000eb0002003700b4
:1005f0006a02b900040041003101fb000203b100ae
:10060000e90f5100faff36000304e0000100320058
:100610000000ea0000000600800278000103780074
:1006200086017800110009008281d80080017800dd
:100630008502e8000300e000faff3a00834a7800f0
:100640008502e900110009000283d8000002780049
:100650008141780004037800e9cf510001003400a3
:10066000e7c1410001c3b30081ca41000400e000ba
:10067000f3ff3a000500780000000600881f7800ac
:10068000000478000100e00005003d00080078004b
:10069000d3c2b300035878008100ea00010037009c
:1006a00008007800dcff0700080078004f0478009d
:1006b000000006008001780002003700b159780080
:1006c0000201e9000200e000fcff3a000000060021
:1006d0008001780002003700815978000201e900aa
:1006e0000200e000fcff3a00000006000001780074
:1006f00082017800030178003204e000fcff3a0038
:1007000031417800825978000204e000fcff3a0091
:1007100000000600b041780031c1510002003a00eb
:100720000304e000fbff3a000200fb0000000600ab
:10073000800078003104e000feff3a000080ea000b
:1007400000804000000006000a003700b041780039
:100750000304e000030032000201e900b1cf5100c0
:10076000040032008381fb001480fb0000805100f4
:1007700000000600010278000200e000f3ff3a00ea
:040780000000050070
:020000040000fa
:1007840052530000540000006e7500006c6c0000b1
:1007940000720000656100006479000000520000ee
:1007a400465000004f570000455200003d380000fd
:1007b400320000004f4b0000004600004149000099
:1007c4004c000000435700004d4f0000444500001a
:1007d4005f430000555200003d310000004300001b
:1007e400574c00004150000000430000574a0000ed
:1007f400415000005f430000555200003d220000bc
:10080400454d00004d5300002d4d0000657400005f
:1008140065720000732200002c220000656d000048
:100824006d7300005f6d0000657400006572000068
:100834007322000000450000525200004f52000095
:10084400005700004946000049200000434f0000c3
:100854004e4e000045430000544500004400000093
:100864005749000046490000204400004953000055
:10087400434f00004e4e000045430000540000006a
:100884004349000046530000520000004349000061
:10089400504d0000555800003d3100000043000059
:1008a40049500000534500005256000045520000d4
:1008b4003d30000000430000495000005345000053
:1008c40052560000455200003d3100002c38000013
:1008d40030000000302c0000434f00004e4e00005a
:1008e40045430000540000004349000050530000f9
:1008f400454e0000443d0000302c00003331000020
:10090400004d0000455300005349000041480000d9
:10091400204300004f4c00004c45000047450000b8
:10092400204300004f4c00004c410000424f0000a7
:1009340052410000544f0000525900000d0a0000bb
:10094400002b000049500000442c0000302c000013
:10095400313400003a2100004d4f0000443b0000b8
:100964004e450000545700004f5200004b2a00002f
:10097400002b000049500000442c0000302c0000e3
:10098400313500003a2100004d4f0000443b000087
:100994004e450000545700004f5200004b2a0000ff
:1009a400000a0000002b000049500000442c000005
:1009b400302c0000313400003a2100004d4f00007b
:1009c400443b0000434f00004e46000049470000ee
:1009d4002a0000002b490000504400002c30000085
:1009e4002c310000333a0000214d00004f44000038
:1009f4003b4300004f4e000046490000472a0000d8
:100a0400004500004d4d000053200000436f0000de
:100a14006c6c0000616200006f7200006174000081
:100a24006f7200007920000054650000616d0000c1
:100a34003b53000070720000696e000067200000e4
:100a440032300000323100003b570000694600009c
:100a540069200000563100002e3500003b410000a3
:100a64006464000069740000696f00006e61000036
:100a74006c200000496e000073740000616c00007b
:100a84006c610000746900006f6e00003b3100006f
:100a94003b5500006e6b00006e6f0000776e000027
:100aa4003b0000003b0a0000002b000049500000fe
:100ab400442c0000302c0000313100003a210000a9
:100ac4004d4f0000443b0000434c00004f530000d6
:100ad400452a00000043000049500000434c000038
:100ae4004f530000453d0000300000002b4900003a
:100af400504400002c3000002c310000323a000039
:100b0400214d00004f4400003b52000045530000bb
:100b1400455400002a0000004349000050530000df
:100b2400454e0000443d0000302c0000370000001a
:100b34004279000065200000427900006500000051
:100b4400534500004e440000204f00004b000000bd
:100b54002b490000504400002c3000002c310000d0
:100b6400323a000021700000696e00006725000021
:100b740034330000302a0000002b000049500000ec
:100b8400442c0000302c0000313100003a210000d8
:100b9400706900006e6700002534000033300000e7
:100ba4002a000000506f00006e6700000a00000079
:100bb4002b490000504400002c3000002c3200006f
:100bc400333a000021530000657400003b4c0000e0
:100bd4006967000068740000733b00004f66000002
:100be4006625000031330000323000002a00000086
:100bf4002b490000504400002c3000002c31000030
:100c0400383a000021530000657400003b4c00009a
:100c14006967000068740000733b00004f660000c1
:100c2400662a0000002b000049500000442c0000fc
:100c3400302c0000323200003a21000053650000dd
:100c4400743b00004c690000676800007473000086
:100c54003b4f00006e2500003132000032360000a8
:100c64002a0000002b490000504400002c300000f2
:100c74002c310000373a0000215300006574000055
:100c84003b4c00006967000068740000733b00007f
:100c94004f6e00002a000000435700004a41000044
:100ca400505f000043550000523d00002247000001
:100cb4006f6f000064770000696e0000222c000052
:100cc4002231000032330000676f00006f640000bf
:100cd400776900006e3700002200000043490000dd
:100ce40050530000454e0000443d0000302c0000ed
:100cf4000000000000000000002b0000495000002c
:100d0400442c0000004300004950000053450000fb
:100d14004e4400003d000000415400002b00000040
:100d24000d0a0000004600006c75000073680000a6
:100d34006564000000690000704100006464000004
:100d440072000000666c000075730000680000000b
:100d54005350000049200000456e0000616200000d
:100d64006c650000640000005374000061720000b0
:0c0d7400742000003a290000000000007c
:020000040000fa
:100d80000000fa00e204a900e224a900e244a9005c
:100d900021e2a900300320004011880021a2a9000f
:100da0002182a9002162a90001118000f0cf2f004b
:100db000008060000011880020e2a90020c2a90084
:100dc00020a2a9002082a9002062a90001118000b0
:100dd00090ff2f0000806000001188002002a90011
:100de00011118000f0f32f000080600010118800c6
:100df00023c2a9002362a9002342a8001111800088
:100e0000f0f32f00008060001011880022a2a900da
:100e100021e2a8002342a80031e2a900300320000b
:100e2000c011880031a2a9003182a9003162a90055
:100e300081118000f0cf2f000080600080118800b9
:100e400030e2a90030c2a90030a2a9003082a90076
:100e50003062a9008111800090ff2f0000806000a7
:100e6000801188003002a90091118000f0f32f005a
:100e7000008060009011880033c2a9003362a9008d
:100e80003342a80091118000f0f32f000080600031
:100e90009011880032a2a90031e2a8003342a800d4
:100ea0000080fa00000006005a00fa0000df9800f7
:100eb0000ed890000004e00006003200fb68ef004e
:100ec000fa68ef00f769ef00f669ef00e42eef0033
:100ed000abff07002b05070020778000cf80de00e6
:100ee0004201200003002000820f5000838f580031
:100ef0000b033e0000600100140037001a003700a9
:100f00002200370028003700360037003c00370049
:100f10004a003700500037005e0037006400370099
:100f2000a9003700b6003700cd003700d3003700e6
:100f3000e1003700e7003700f5003700fb0037001d
:100f40000901370023013700d502370011c0b30073
:100f5000203c2800f2030700207780000000e80012
:100f600020778800ee023700613c2800b03c280062
:100f7000480407000004e000d2023200207780001d
:100f80000000e80020778800e502370011c0b300b8
:100f9000103d2800e2030700207780000000e800f1
:100fa00020778800de023700613c2800c03d280021
:100fb000380407000004e0000300320020778000be
:100fc0000000e80020778800613c2800f03d280000
:100fd000300407000004e000bc023200e42eef0001
:100fe000cf02370011c0b300403e2800cc030700f9
:100ff000207780000000e80020778800c8023700d2
:10100000613c2800c03d2800220407000004e000e5
:1010100003003200207780000000e800207788007d
:10102000613c2800f03d28001a0407000004e0009d
:10103000a8023200e42eef00b902370011c0b3005d
:10104000103f2800b6030700207780000000e8006a
:1010500020778800b2023700613c2800c03d28009c
:101060000c0407000004e000030032002077800039
:101070000000e80020778800613c2800f03d28004f
:10108000040407000004e00094023200e42eef00a4
:10109000a302370011c0b300703f2800a00307006f
:1010a000207780000000e800207788009c0237004d
:1010b000613c2800c03d2800f60307000004e00062
:1010c00003003200207780000000e80020778800cd
:1010d000613c2800f03d2800ee0307000004e0001a
:1010e00005003a00613c2800d0412800e9030700d0
:1010f0000004e0001b00320030778000e20f500057
:1011000002003a00e42eef0016003700e62eef0052
:1011100000202100a1072000d207070040778000af
:10112000e10f500002003a00e82eef000300370004
:10113000407780000000e80040778800407780001a
:101140000000e00002003a008000200020778800c4
:1011500040778000e10f500002003a00400120007b
:1011600020778800613c280030422800c90307002e
:101170000004e000020032002000200030778800e8
:10118000613c280020432800c20307000004e0005f
:10119000020032001000200030778800613c2800f7
:1011a00030422800bb0307000004e0004d0232007b
:1011b00030778000e10f50004c023a00e62eef003d
:1011c000e42eef005602370010c0b30050edb70018
:1011d000420620008000eb00c0ce20003cfd07004e
:1011e000522def0011c0b300204428004c0307002b
:1011f000207780000000e800207788004802370050
:10120000613c2800c03d2800a20307000004e00064
:1012100004003200506def00207780000000e800ed
:1012200020778800613c2800f03d280099030700e2
:101230000004e00002003200506def00e42eef00e9
:10124000613c2800d0412800920307000004e00020
:1012500028023200506def00e42eef00300237001c
:1012600011c0b300804428002d03070020778000c0
:101270000000e8002077880029023700613c280040
:10128000c03d2800830307000004e0000300320093
:10129000207780000000e80020778800613c28006b
:1012a000f03d28007b0307000004e0001302320039
:1012b000e42eef001a02370011c0b30010452800d9
:1012c00017030700207780000000e80020778800df
:1012d00013023700613c2800c03d28006d03070061
:1012e0000004e00003003200207780000000e800e6
:1012f00020778800613c2800f03d28006503070046
:101300000004e000ff013200e42eef000402370089
:1013100011c0b300d04528000103070020778000ea
:101320000000e80020778800fd013700613c2800bc
:10133000c03d2800570307000004e000030032000e
:10134000207780000000e80020778800613c2800ba
:10135000f03d28004f0307000004e000eb013200dd
:10136000e42eef00ee013700a0778000e10f50007f
:1013700014003a000000eb00000f78000c0037006a
:101380005116800000102000008060000000e00086
:1013900002003a00cd02a80001003700cd02a900ea
:1013a00000982a00310020002e0707001e0fe800d9
:1013b0001e007800fd0f5000f1ff3400cd02a800a0
:1013c000c4e2a900207780000000e80020778800b0
:1013d000d3013700d9010700613c2800c04628002e
:1013e0002c0307000004e0000600320011c0b30027
:1013f00060472800ca0207001000200050778800cc
:101400000c003700613c2800c03d28002103070084
:101410000004e0000700320050778000e10f500028
:1014200004003a008040eb0030482800bc0207006e
:10143000ea2eef00613c2800304a2800150307001f
:101440000004e00005003a00613c2800b04b280091
:10145000100307000004e0002f003200a1c0b30019
:10146000c0ce20002f060700d1c0b300c0ce2000a0
:101470002c060700b1c2b300c0ce20002906070029
:10148000e1c3b300c0ce20002606070021c2b3008e
:10149000c0ce200023060700c0ce2000a4fc070019
:1014a00080007800c0ce2000008040002200200094
:1014b000314d28007ffc0700c0ce20009cfc0700b7
:1014c0001007980068004700a20020009e009000ce
:1014d0006afc070000672800ed0047000a000900c9
:1014e000b0587800b000b100f800470003000900d0
:1014f0008058eb00e80047006d0047007bfc0700c8
:101500006d00470011c0b3008502070030002000c5
:10151000507788000c003700613c2800c03d28004f
:10152000dc0207000004e000070032005077800072
:10153000e30f500004003a008040eb00c0ce2000d2
:1015400077020700ea2eef00613c2800504d28008a
:10155000d00207000004e00005003a00613c2800ca
:10156000c04e2800cb0207000004e0004700320014
:101570006000b800600f9800710f98008e0078002e
:101580000102b000020009008018eb00a077800083
:101590000000e00007003a00f0c4b300405f98008c
:1015a00060c4b300505f980060c4b300605f9800ef
:1015b00004003700f0c4b300405f9800e0c4b300fb
:1015c000505f980040d5200059fc0700800078004b
:1015d00040d5200000804000120520003150280036
:1015e00034fc07007c0047008000780040d52000d4
:1015f0003efc070040d520004dfc0700800078002d
:1016000040d52000008040003200200041552800d5
:1016100028fc070040d5200045fc07002007980063
:10162000600220000e004000a2002000ae009000ea
:1016300012fc070000672800b1022000810047006b
:101640000a000900b0587800b000b1008e007800a0
:101650006103b000080009008058eb00610220001f
:101660008e804000b00220000e0040001ffc0700ea
:10167000b00220000e00400011c0b3002802070095
:10168000200020005077880010003700613c2800bf
:10169000c03d28007f0207000004e0000b0032007c
:1016a00050778000e20f500008003a008040eb00c5
:1016b00040d520001a020700420620008000eb00ff
:1016c00040d5200002fc0700ea2eef00613c280014
:1016d000705528006f0207000004e000030032008c
:1016e00011c0b300d05628000d020700613c28004d
:1016f00080572800670207000004e000060032005f
:1017000011c0b300e0582800050207004000200087
:101710005077880019003700613c2800c03d280040
:101720005c0207000004e0000700320050778000f0
:10173000e40f500011003a008040eb00a05928004f
:10174000f70107000d003700613c2800205a2800ef
:10175000500207000004e0000800320050778000cb
:10176000e40f500005003a0011c0b300d056280025
:10177000eb010700ea2eef000000fe00613c2800ac
:10178000a05a2800430207000004e00005003a00c8
:10179000613c2800f05b28003e0207000004e000e6
:1017a0002d00320080db2000e1fb07008000780084
:1017b00080db20000080400062002000415d2800a6
:1017c000bcfb070080db2000d9fb07003007980036
:1017d000f00320000e004000a2002000be00900098
:1017e000a6fb0700400420000e00400032942400b5
:1017f000033525000288be006400400052e4240046
:1018000043d423000288be006400400002c32200cb
:10181000030020000288be006400400003000900ad
:101820000018eb008000b100f10320008e80400022
:10183000400420000e004000acfb070040042000e4
:101840000e00400011c0b300b50107005000200099
:10185000507788000c003700613c2800c03d28000c
:101860000c0207000004e0000700320050778000ff
:10187000e50f500004003a008040eb0080db2000c0
:10188000a7010700ea2eef00613c2800a05d2800b8
:10189000000207000004e00005003a00613c280057
:1018a000a05f2800fb0107000004e00007003200f1
:1018b000f42eef00cd02a900cd22a900c4e2a900b8
:1018c00011c0b300d056280095010700613c2800e4
:1018d00050612800ef0107000004e00005003a0015
:1018e000613c280040632800ea0107000004e00092
:1018f0000600320010002000a0778800cd02a8006a
:1019000011c0b300d056280085010700613c2800b3
:1019100020432800df0107000004e0004a003200f5
:10192000cd02a900c0042000a011880000a8210059
:1019300061002000cb050700f0062000a011880000
:1019400000a8210061002000c60507003007200024
:10195000a011880000a8210061002000c105070037
:1019600040072000a011880000a82100610020008d
:10197000bc05070000022000a011880000a821007b
:1019800061002000b705070030042000a011880086
:1019900000a8210061002000b2050700f006200029
:1019a000a011880000a8210061002000ad050700fb
:1019b000e0062000a011880000a82100610020009e
:1019c000a8050700e0062000a011880000a821005b
:1019d00061002000a305070050062000a011880028
:1019e00000a82100610020009e05070030062000ad
:1019f000a011880000a821006100200099050700bf
:101a000040072000a011880000a8210061002000ec
:101a10009405070090062000a011880000a821006e
:101a2000610020008f050700f0062000a01188004b
:101a300000a82100610020008a050700e0062000c0
:101a4000a0118800e42eef00613c2800c03d280072
:101a5000900107000004e0002e003200507080006a
:101a6000e20f50002d003a0080dd200030fb07001f
:101a70008000780080dd20000080400022002000ef
:101a8000314d28000bfb07008040eb0080dd20007b
:101a9000230107003000200050708800200037002c
:101aa00000b82800810020006e05070011c0b300b7
:101ab000e06428001a0107009000200020778800c9
:101ac000170037000000000015003700000000007c
:101ad0001300370000000000110037000000000074
:101ae0000f003700000000000d003700000000006c
:101af0000b00370000000000090037000000000064
:101b0000070037000000000005003700000000005b
:101b10000300370000000000010037000000000053
:101b2000fd0107000004e00002003200f769ef0049
:101b3000f669ef000080fa00000006000800fa00d5
:101b40000000eb00000f78000000eb001007980089
:101b5000f10107000004e0005200320052002000b2
:101b6000c18f2000f0672800f7fa07000000e000ae
:101b70004c003a0001c9bf00404798000040eb000c
:101b8000504798006400470084fa0700000f78006f
:101b900003c9bf0040479800640047007ffa070070
:101ba00010079800182eef00370037001acebf003c
:101bb0000004a2000004e0000a003200f7c9bf00e0
:101bc0008080fb00c08f20000080400090407800a3
:101bd00010c2b30080cf500002003a0010c0b30022
:101be0001aeeb7001acebf000004e0002300320056
:101bf000c2708000f7c9bf008080fb00c08f20004a
:101c00000080400090407800b0e1200000004100da
:101c100001487800c07080000000e800c0708800b3
:101c2000c1708000700c2000808f500002003400d2
:101c3000700c2000c0708800f7c9bf008080fb00d6
:101c4000c08f20000080400090407800a0c2b30008
:101c500080cf500009003a00c1708000b0e1200040
:101c6000008040008040eb00014878001a6eef00d1
:101c7000b0e12000de020700182eef00f7c9bf0018
:101c80000040e800f7e9b700f7c9bf008080fb001b
:101c9000c08f200000804000104078000004e00069
:101ca000c2ff3a000080fa00000006000801fa00b6
:101cb0003007990050682800300798000000eb00ba
:101cc000000f78000000eb001007980012003700aa
:101cd0001e007800be009000008040009040780018
:101ce000680147001e009000000041000148780094
:101cf0001e0090000000e800100798009e00900071
:101d0000900f2000808f500002003400900f2000c0
:101d1000100798001e0fe8001e007800be0090001b
:101d200000804000104078000004e000e8ff3a0026
:101d3000e80047001e0090000080400001c3b3008f
:101d4000014878001e0090000000e800100798008d
:101d5000e80047001e00900000804000c1c2b300b0
:101d6000014878001e0090000000e800100798006d
:101d70000000eb0020079800030037002e009000c1
:101d80000000e800200798002e009000be0091009f
:101d90000080400090407800a0c2b30080cf500087
:101da000f6ff3a002e0090000000e800200798009f
:101db000201020000e004000a2002000ae00900085
:101dc0002efa07000000eb00000f78000c0037002f
:101dd000201020000e0040001e00400090407800bf
:101de000680147001e009000000041000148780093
:101df0001e0090000000e800100798001e0fe80089
:101e0000201020000e0040001e004000104078000e
:101e10000004e000eeff3a00e80047001e009000da
:101e2000008040008040eb000148780068004700d7
:101e300011c0b3003a000700fac8bf008080fb0061
:101e400000802000008040008040eb0001487800c6
:101e5000fac8bf000040e800fae8b700fac8bf00bf
:101e6000e74f40000200360090cfb300fae8b70019
:101e70000000eb00000f780012003700fac8bf0026
:101e80000081fb001e007800be0091000080400031
:101e90009040780000802000000041000148780058
:101ea000fac8bf000040e800fae8b700fac8bf006f
:101eb000e74f40000200360090cfb300fae8b700c9
:101ec0001e0fe8001e007800be0091000080400058
:101ed00090407800a0c2b30080cf5000e7ff3a00e6
:101ee000fac8bf008080fb00008020000080400016
:101ef000a1c2b30001487800fac8bf000040e80062
:101f0000fae8b700fac8bf00e74f40000200360009
:101f100090cfb300fae8b7000080fa000000060096
:101f20000a00fa0030079800014f9800e068280086
:101f30001007980020692800200798000e4890009c
:101f40000004e0001b0032000000eb00000f7800ee
:101f500012003700fac8bf000081fb001e007800a5
:101f60009e0090000080400090407800008020009b
:101f70000000410001487800fac8bf000040e800b6
:101f8000fae8b700fac8bf00e74f40000200360089
:101f900090cfb300fae8b7001e0fe8001e007800eb
:101fa0009e00900000804000104078000004e00097
:101fb000e8ff3a000000eb00000f78001200370045
:101fc000fac8bf000081fb001e007800be00900030
:101fd0000080400090407800008020000000410018
:101fe00001487800fac8bf000040e800fae8b700ee
:101ff000fac8bf00e74f40000200360090cfb300a0
:10200000fae8b7001e0fe8001e007800be0090003e
:1020100000804000104078000004e000e8ff3a0033
:102020000000eb00000f780012003700fac8bf0074
:102030000081fb001e007800ae0090000080400090
:1020400090407800008020000000410001487800a6
:10205000fac8bf000040e800fae8b700fac8bf00bd
:10206000e74f40000200360090cfb300fae8b70017
:102070001e0fe8001e007800ae00900000804000b7
:10208000104078000004e000e8ff3a000080fa0009
:10209000000006003c00fa00401f9800511f980005
:1020a0000040eb00004f78000040eb0040479800f4
:1020b0000040eb0010479800e0562700c1c62600fc
:1020c00040079800510798000040eb00404f9800ef
:1020d000d0692800ed00470006000900b0587800dc
:1020e0007000b10074004700e256260043772700d5
:1020f0000288be0064004000f2262700b396240048
:102100000288be0064004000e2662600f30620005c
:102110000288be0064004000d0162600311624005c
:10212000001798001117980040462600210720004c
:102130002017980031179800800220000e00400000
:1021400032372700934626000288be006400400014
:1021500092e4260063f626000288be006400400078
:102160008040eb00014878000000e800406a280049
:10217000110320008100470005000900b0587800d5
:102180006000b10068004700de18900061f90700a8
:10219000300798003e0090000000e000020032008e
:1021a00010c0b300104798005b0007000004e00077
:1021b0005600320010c0b300004f780010c0b300ca
:1021c000404798000000eb001007980046003700d9
:1021d0001e009000ce1890000080400090407800d3
:1021e0001e019000c08f20000000410010407800c8
:1021f00080cf5000020032000040eb00004f78001a
:102200001e4090000004e000340032006d004700e2
:10221000de1890003ff907000000e0000f003200d8
:10222000000220000e004000de18900039f907007f
:102230000000e0000900320074004700de18900042
:1022400034f907000000e0000400320080022000a2
:102250000e004000de1890002ef907001003200049
:102260000e004000de1890002af9070030079800a1
:102270003e0090000000e00018003a00506928007d
:102280004d030700f40047001e009000008040004e
:1022900001c2b30001487800ed0047001e00900025
:1022a0000080400001c2b300014878000102200014
:1022b0008e8040001e0090000080400001c2b300ec
:1022c00001487800810220008e8040001e009000ae
:1022d0000080400001c2b300014878001e00900059
:1022e0000000e800100798001e009000ce18900033
:1022f00000804000104078000004e000030032003d
:102300001e4078000004e000b1ff3a001e40780053
:102310000080fa00000006000200fa000040eb0016
:10232000004f7800f6c9bf00e14f500012003600a0
:10233000f6c9bf000080fb008080e900c08f20004c
:102340000080400010407800ed4f50000a003a0035
:10235000f6c9bf000080fb008000e900c08f2000ac
:102360000080400010407800ea4f500002003a0020
:1023700010c0b300004f78001e4078000080fa00c3
:10238000000006000000fa00030007007a000700c2
:102390000080fa00000006000000fa00b18f200063
:1023a00091407800fac8bf0080cf5000150032007d
:1023b0001111800000202000008060000000e0007b
:1023c00012003a00fbc8bf008080fb0000802000a4
:1023d00000804000104078000e0007000004e0007c
:1023e0000a003200fbc8bf000040e800fbe8b7006d
:1023f000fbc8bf00e74f400004003600fb68ef0059
:1024000002003700fb68ef00fa68ef000080fa0076
:10241000000006000400fa00204798000040eb008e
:10242000004f780011cebf000004a2000004e000bd
:10243000370032002e4090000004e0001b003a00fc
:1024400010c0b30011eeb700627780007377800090
:10245000a0f92f00f1ff2f00800f5100818f59004c
:1024600007003e0060778000717780004006b00072
:102470000180b00090708800a170880008003700cb
:1024800060778000717780005006b0000180b00056
:1024900090708800a170880010c0b30016eeb700dd
:1024a00010c0b300004f78003000370011118000d9
:1024b00000202000008060000000e0002b003a00b7
:1024c0002e4090000000fb002011880010c0b300d7
:1024d000004f78002e4090000000fb00a011880003
:1024e000a0778000e10f500020003a001116800014
:1024f00000082000008060000000e00002003a00b8
:10250000c4e2a80019003700c4e2a9001700370090
:1025100016cebf000004e0000800320062778000a1
:102520007377800090708000a1708000800f510050
:10253000818f590001003100166eef0016cebf00ea
:102540000004a2000004e00008003200627780006e
:102550007377800090708000a1708000800f510020
:10256000818f590001003900116eef001e40780084
:102570000080fa00000006000200fa000040eb00b4
:10258000004f78000e00e8001a0007000004e00089
:1025900015003200f6c9bf000081fb009e4090008c
:1025a000c08f2000000041000148780010c0b30037
:1025b000004f7800f6c9bf000040e800f6e9b70018
:1025c000f6c9bf00e74f400001003600f669ef0092
:1025d000f6c9bf008080fb00c08f20000080400053
:1025e0008040eb00014878001e4078000080fa002f
:1025f000000006000400fa00100798000040eb00fd
:10260000004f780010118000610060000000e000c1
:102610002600320030118000804078001e009000bb
:102620000148780010c0b300004f78001e009000f1
:10263000104078000000fb00a011880050cdbf00c2
:102640000004e00009003200926a80001e00900041
:1026500090407800c0ce2000000041000148780082
:10266000906a80000000e800906a8800916a80000b
:1026700050062000808f500001003a00522def00dc
:10268000a0778000e10f500008003a00111680008a
:1026900000082000008060000000e00002003a0016
:1026a000c4e2a80001003700c4e2a9001e4078007f
:1026b0000080fa00000006000400fa00204798009d
:1026c0002e4090000004e0001e003200f36aef008c
:1026d000f26aef00ef6bef00ee6bef00eb6cef00d8
:1026e000ea6cef006e010700a06a280032020700c2
:1026f000a0778000e10f500012003a000000eb00cc
:10270000000f78000c0037005116800000202000d8
:10271000008060000000e00002003a00cd22a80026
:1027200001003700cd22a90000982a0031002000c6
:102730004c0207001e0fe8001e007800fd0f50003d
:10274000f1ff340051168000000028000080600076
:102750000000e0000900320010cebf000004a2001b
:102760000004e0001300320010c0b30010eeb70008
:1027700041e2a9004d0007000e00370010cebf0057
:102780000004e00004003200106eef00ef6bef0079
:10279000ee6bef0041e2a800780007000700070099
:1027a000650007000004e00002003200ef6bef005c
:1027b000ee6bef000080fa00000006000000fa0057
:1027c0005d0007000004e0000700320041af200078
:1027d0009140780010c2b30080cf500002003a0050
:1027e00040af200031fd07000080fa000000060025
:1027f0000400fa00100798000000eb00000f7800ba
:1028000011003700eaccbf000081fb001e007800f9
:102810009e009000008040009040780000bf2000a3
:102820000000410001487800eaccbf000040e80009
:10283000eaecb700eaccbf00e74f400001003600e9
:10284000ea6cef001e0fe8001e0078009e0090006a
:102850000080400090407800a0c2b30080cf5000bc
:10286000e8ff3a00eaccbf000081fb001e007800c0
:102870009e009000008040009040780000bf200043
:102880000000410001487800eaccbf000040e800a9
:10289000eaecb700eaccbf00e74f40000100360089
:1028a000ea6cef000080fa00000006000000fa0069
:1028b00018003700f2cabf000081fb00ebccbf005c
:1028c0008080fb0000bf2000008040009040780026
:1028d000809f20000000410001487800f2cabf003c
:1028e0000040e800f2eab700f2cabf00e74f40003c
:1028f00001003600f26aef00ebccbf000040e800b8
:10290000ebecb700ebccbf00e74f40000100360016
:10291000eb6cef00b1ce200091407800eaccbf0014
:1029200080cf5000e3ff3a00eb6cef00ea6cef0061
:102930000080fa00000006000200fa000040eb00f0
:10294000004f7800eecbbf000080fb008000e90064
:1029500040af20000080400090407800a0c2b3004b
:1029600080cf500002003a0010c0b300004f780042
:102970001e4078000080fa00000006000000fa0007
:1029800003000700370007000080fa00000006007f
:102990000000fa0031af200091407800f2cabf0079
:1029a00080cf500010003200f3cabf008080fb00cf
:1029b000809f200000804000104078000e0007003b
:1029c0000004e0000a003200f3cabf000040e80043
:1029d000f3eab700f3cabf00e74f40000400360037
:1029e000f36aef0002003700f36aef00f26aef00cb
:1029f0000080fa00000006000400fa00204798005a
:102a00000040eb00004f7800001280006200600080
:102a10000000e00010003a002e4090000000fb0093
:102a20004012880010c0b300004f7800a0778000eb
:102a3000e10f500008003a005116800000202000ed
:102a4000008060000000e00002003a00cd22a800f3
:102a500001003700cd22a9001e4078000080fa0056
:102a6000000006000200fa000040eb00004f780072
:102a70000e00e8001a0007000004e0001500320014
:102a8000eecbbf000081fb009e40900040af2000d5
:102a9000000041000148780010c0b300004f7800ea
:102aa000eecbbf000040e800eeebb700eecbbf007e
:102ab000e74f400001003600ee6bef00eecbbf00a9
:102ac0008080fb0040af2000008040008040eb0091
:102ad000014878001e4078000080fa0000000600df
:102ae0001200fa00000f98000040eb00004f780041
:102af00000128000610060000000e000650032000c
:102b000040128000804078000e0890000148780054
:102b100010c0b300004f78000e089000904078007d
:102b200010c2b30080cf500003003a001000200014
:102b3000607088000e2eef000e0890009040780024
:102b4000a0c2b30080cf500006003a006070800041
:102b5000e10f500003003a00100020005070880080
:102b60000c2eef0060708000e10f500026003a004c
:102b70000e0890009040780030c2b30080cf500023
:102b800021003200507080000000e0001e003a007a
:102b90000e089000104078000000fb00a011880093
:102ba000a0778000e10f500008003a005116800025
:102bb00000202000008060000000e00002003a00d9
:102bc000cd22a80001003700cd22a900727080003c
:102bd0000e0890009040780080dd20000000410049
:102be000014878007170800020032000808f500021
:102bf000020034000e2eef000300370070708000da
:102c00000000e8007070880050708000e30f5000f2
:102c100006003a00220320008000eb0080dd200047
:102c2000abf607000e2eef000a2eef00507080006a
:102c3000e10f500017003a0000672800e10047004c
:102c40000a000900b0587800b000b1007070800030
:102c50000000e80070708800707080000000e800dc
:102c600070708800717080006c004700a200200026
:102c700082f60700ec0047000e00e8009bf6070014
:102c80000e00e80011c0b300a5fc070020002000e2
:102c9000507088001e4078000080fa000000060096
:102ca0000000fa00e024ef00e224ef00c8a2a80030
:102cb000c8c2a900c982a800c9e2a800c962a800c8
:102cc000c942a800c9a2a90042a2a9004382a80043
:102cd0004362a9004342a9004322a9004302a8007d
:102ce00042e2a80042c2a8001112800030fe2f006c
:102cf000008060001012880045e2a90045c2a900ca
:102d000045a2a9004422a9004402a90040c2a9008a
:102d1000401280004012880041e2a8000080fa00c2
:102d2000000006000800fa0020079800614798009c
:102d3000ae009000010f7800ae00900011079800df
:102d40000f0037001e007800904078001e009000b1
:102d5000014878001e0fe8001e00900090407800a7
:102d60006e40900000c068000080fb000000ea0098
:102d70004f00de009e009000008040001007980089
:102d80001e007800104078000004e000edff3a00db
:102d90001e0090008040eb00014878000080fa009f
:102da000000006000800fa0020079800310798008c
:102db000e3c4a900e3e4a900c902a900c922a9004b
:102dc000c0e2a900cd02a80000902000d10320009d
:102dd000a4000700cd22a80000902000d10320000d
:102de000a0000700c4e2a80000902000d10320004a
:102df0009c0007000000eb00000f78001000370077
:102e00005116800000102000008060000000e000eb
:102e100004003a00cd02a800cd22a800c4e2a80018
:102e200003003700cd02a900cd22a900c4e2a90009
:102e300000502300c10020008a0007001e0fe80098
:102e40001e007800e40f5000edff3400cd02a90011
:102e5000cd22a900c4e2a9003c000700a0778000b1
:102e6000e10f500014003a000000eb00100798003a
:102e70000e0037001116800000082000008060005e
:102e80000000e00002003a00c4e2a80001003700a0
:102e9000c4e2a90000982a00310020007100070058
:102ea0001e0090000000e800100798001e0090002f
:102eb000fd0f5000efff340010c0b300faf7070019
:102ec00010c0b300fcfd070000202100a107200076
:102ed00064000700606b280037000700010037001e
:102ee000000000000040eb00eff707000040eb009f
:102ef000f1fd070001088000803e2000808f500017
:102f0000f7ff360062778000737780000080eb0067
:102f10008080eb00800f5100818f590003003a0040
:102f2000ec2eef00ee2eef000600370060778000f9
:102f30007177800061004000e08048006077880081
:102f4000717788000021ef00e6ff37000000fa00eb
:102f5000e3c4a900e3e4a900c9c2a9000200070074
:102f60000080fa00000006000000fa0005a1a80099
:102f700021088000f0cf2f0000806000200888002a
:102f800004c1a9000441a9000421a900210880006e
:102f9000f0fc2f00008060000040a00020088800a6
:102fa0000021ef00ec2eef00ee2eef0005e1a8006f
:102fb0000080fa00000006000400fa0010079800e4
:102fc0000000eb00000f7800d0002000a011880066
:102fd000008823001100200022000700a00020002c
:102fe000a011880000882300110020001d000700a8
:102ff0000a0037001e0078009e009000008040000c
:10300000104078000000fb00a01188000088230019
:1030100011002000130007001e0fe8001e007800ba
:103020009e00900000804000104078000004e00006
:10303000f0ff3a00d0002000a01188000088230093
:103040001100200007000700a0002000a011880048
:103050000088230011002000020007000080fa0011
:043060000000060066
:020000040000fa
:10306400f03fb1000180b10006003500ee03090015
:1030740000000000403fb1000180b100fbff3d00b3
:103084001000b000203fb0000200350000800900ad
:0830940000000000000006002e
:020000040000fa
:10309c00ec0e00000800000000000000000800001a
:1030ac00ec06000000000000f40e0000020000001e
:0c30bc0002000000010000000000000005
:020000040000fa
:0200000401f009
:04000000ffffff00ff
:020000040000fa
:0200000401f009
:04000800ffffff00f7
:020000040000fa
:0200000401f009
:04000c00d9ff000018
:020000040000fa
:0200000401f009
:04001000baff000033
:020000040000fa
:0200000401f009
:040014005fff00008a
:020000040000fa
:0200000401f009
:04001800fcff0000e9
:020000040000fa
:0200000401f009
:04001c00fdff0000e4
:020000040000fa
:0200000401f009
:04002000bfff00001e
:00000001FF
