:020000040000fa
:080000000002040000000000f2
:020000040000fa
:04000800c80200002a
:020000040000fa
:04000c00c802000026
:020000040000fa
:04001000c802000022
:020000040000fa
:04001400c80200001e
:020000040000fa
:04001800c80200001a
:020000040000fa
:04001c00c802000016
:020000040000fa
:04002000c802000012
:020000040000fa
:04002400c80200000e
:020000040000fa
:04002800c80200000a
:020000040000fa
:04002c00c802000006
:020000040000fa
:04003000c802000002
:020000040000fa
:04003400c8020000fe
:020000040000fa
:04003800c8020000fa
:020000040000fa
:04003c00c8020000f6
:020000040000fa
:04004000c8020000f2
:020000040000fa
:04004400c8020000ee
:020000040000fa
:04004800c8020000ea
:020000040000fa
:04004c00c8020000e6
:020000040000fa
:04005000c8020000e2
:020000040000fa
:04005400c8020000de
:020000040000fa
:04005800c8020000da
:020000040000fa
:04005c00c8020000d6
:020000040000fa
:04006000c8020000d2
:020000040000fa
:04006400c8020000ce
:020000040000fa
:04006800c8020000ca
:020000040000fa
:04006c00c8020000c6
:020000040000fa
:04007000c8020000c2
:020000040000fa
:04007400c8020000be
:020000040000fa
:04007800c8020000ba
:020000040000fa
:04007c00c8020000b6
:020000040000fa
:04008000c8020000b2
:020000040000fa
:04008400c8020000ae
:020000040000fa
:04008800c8020000aa
:020000040000fa
:04008c00c8020000a6
:020000040000fa
:04009000c8020000a2
:020000040000fa
:04009400c80200009e
:020000040000fa
:04009800c80200009a
:020000040000fa
:04009c00c802000096
:020000040000fa
:0400a000c802000092
:020000040000fa
:0400a400c80200008e
:020000040000fa
:0400a800c80200008a
:020000040000fa
:0400ac00c802000086
:020000040000fa
:0400b000c802000082
:020000040000fa
:0400b400c80200007e
:020000040000fa
:0400b800c80200007a
:020000040000fa
:0400bc00c802000076
:020000040000fa
:0400c000c802000072
:020000040000fa
:0400c400c80200006e
:020000040000fa
:0400c800c80200006a
:020000040000fa
:0400cc00c802000066
:020000040000fa
:0400d000c802000062
:020000040000fa
:0400d400c80200005e
:020000040000fa
:0400d800c80200005a
:020000040000fa
:0400dc00c802000056
:020000040000fa
:0400e000c802000052
:020000040000fa
:0400e400c80200004e
:020000040000fa
:0400e800c80200004a
:020000040000fa
:0400ec00c802000046
:020000040000fa
:0400f000c802000042
:020000040000fa
:0400f400c80200003e
:020000040000fa
:0400f800c80200003a
:020000040000fa
:0400fc00c802000036
:020000040000fa
:04010000c802000031
:020000040000fa
:04010400c80200002d
:020000040000fa
:04010800c802000029
:020000040000fa
:04010c00c802000025
:020000040000fa
:04011000c802000021
:020000040000fa
:04011400c80200001d
:020000040000fa
:04011800c802000019
:020000040000fa
:04011c00c802000015
:020000040000fa
:04012000c802000011
:020000040000fa
:04012400c80200000d
:020000040000fa
:04012800c802000009
:020000040000fa
:04012c00c802000005
:020000040000fa
:04013000c802000001
:020000040000fa
:04013400c8020000fd
:020000040000fa
:04013800c8020000f9
:020000040000fa
:04013c00c8020000f5
:020000040000fa
:04014000c8020000f1
:020000040000fa
:04014400c8020000ed
:020000040000fa
:04014800c8020000e9
:020000040000fa
:04014c00c8020000e5
:020000040000fa
:04015000c8020000e1
:020000040000fa
:04015400c8020000dd
:020000040000fa
:04015800c8020000d9
:020000040000fa
:04015c00c8020000d5
:020000040000fa
:04016000c8020000d1
:020000040000fa
:04016400c8020000cd
:020000040000fa
:04016800c8020000c9
:020000040000fa
:04020800c802000028
:020000040000fa
:04020c00c802000024
:020000040000fa
:04021000c802000020
:020000040000fa
:04021400c80200001c
:020000040000fa
:04021800c802000018
:020000040000fa
:04021c00c802000014
:020000040000fa
:04022000c802000010
:020000040000fa
:04022400c80200000c
:020000040000fa
:04022800c802000008
:020000040000fa
:04022c00c802000004
:020000040000fa
:04023000c802000000
:020000040000fa
:04023400c8020000fc
:020000040000fa
:04023800c8020000f8
:020000040000fa
:04023c00c8020000f4
:020000040000fa
:04024000c8020000f0
:020000040000fa
:04024400c8020000ec
:020000040000fa
:04024800c8020000e8
:020000040000fa
:04024c00c8020000e4
:020000040000fa
:04025000c8020000e0
:020000040000fa
:04025400c8020000dc
:020000040000fa
:04025800c8020000d8
:020000040000fa
:04025c00c8020000d4
:020000040000fa
:04026000c8020000d0
:020000040000fa
:04026400c8020000cc
:020000040000fa
:04026800c8020000c8
:020000040000fa
:04026c00c8020000c4
:020000040000fa
:04027000c8020000c0
:020000040000fa
:04027400c8020000bc
:020000040000fa
:04027800c8020000b8
:020000040000fa
:04027c00c8020000b4
:020000040000fa
:04028000c8020000b0
:020000040000fa
:04028400c8020000ac
:020000040000fa
:04028800c8020000a8
:020000040000fa
:04028c00c8020000a4
:020000040000fa
:04029000c8020000a0
:020000040000fa
:04029400c80200009c
:020000040000fa
:04029800c802000098
:020000040000fa
:04029c00c802000094
:020000040000fa
:0402a000c802000090
:020000040000fa
:0402a400c80200008c
:020000040000fa
:0402a800c802000088
:020000040000fa
:0402ac00c802000084
:020000040000fa
:0402b000c802000080
:020000040000fa
:0402b400c80200007c
:020000040000fa
:0402b800c802000078
:020000040000fa
:0402bc00c802000074
:020000040000fa
:0402c000c802000070
:020000040000fa
:0402c400c80200006c
:020000040000fa
:0402c800c802000068
:020000040000fa
:0402cc00c802000064
:020000040000fa
:0402d000c802000060
:020000040000fa
:0402d400c80200005c
:020000040000fa
:0402d800c802000058
:020000040000fa
:0402dc00c802000054
:020000040000fa
:0402e000c802000050
:020000040000fa
:0402e400c80200004c
:020000040000fa
:0402e800c802000048
:020000040000fa
:0402ec00c802000044
:020000040000fa
:0402f000c802000040
:020000040000fa
:0402f400c80200003c
:020000040000fa
:0402f800c802000038
:020000040000fa
:0402fc00c802000034
:020000040000fa
:04030000c80200002f
:020000040000fa
:04030400c80200002b
:020000040000fa
:04030800c802000027
:020000040000fa
:04030c00c802000023
:020000040000fa
:04031000c80200001f
:020000040000fa
:04031400c80200001b
:020000040000fa
:04031800c802000017
:020000040000fa
:04031c00c802000013
:020000040000fa
:04032000c80200000f
:020000040000fa
:04032400c80200000b
:020000040000fa
:04032800c802000007
:020000040000fa
:04032c00c802000003
:020000040000fa
:04033000c8020000ff
:020000040000fa
:04033400c8020000fb
:020000040000fa
:04033800c8020000f7
:020000040000fa
:04033c00c8020000f3
:020000040000fa
:04034000c8020000ef
:020000040000fa
:04034400c8020000eb
:020000040000fa
:04034800c8020000e7
:020000040000fa
:04034c00c8020000e3
:020000040000fa
:04035000c8020000df
:020000040000fa
:04035400c8020000db
:020000040000fa
:04035800c8020000d7
:020000040000fa
:04035c00c8020000d3
:020000040000fa
:04036000c8020000cf
:020000040000fa
:04036400c8020000cb
:020000040000fa
:04036800c8020000c7
:020000040000fa
:100400006fd920000eff20000e01880000000000c0
:10041000000020000000e000020032000001200087
:1004200020028800140007005b0007000000e000c5
:1004300003003a0080422100010020000200370042
:100440000000200001002000810f70000100320038
:1004500014000700000020000000e000020032004d
:100460000000020000000000b412020000000000c2
:100470000040da000000fe004440a900e01b20001c
:100480000000e0000300320000002000a00188000e
:100490004440a800000006008a1f78008b1f7800e7
:1004a0000000060091018800800478000000eb0045
:1004b0001a003700e284440032a0b4009905ba0063
:1004c000e284440032a0b4009906ba00e2844400f9
:1004d00032a0b4000006eb00476fde00fd07b2005b
:1004e000636ce10003003a00ebff07000000eb0043
:1004f0000a003700606ce10004003a00005deb0088
:100500008b05e900fdff3e00040037006168e10053
:10051000010032000086eb000b00070019c7ba008b
:100520001905ba000e04e00003003a000a00e000da
:10053000e0ff3a0000000600fe07b2009e018800be
:100540008a047800f5ff3700395dba008b05e900b1
:100550000c003200295dba008b05e900080032006a
:100560000c00e00003003a00e284440032a0b40032
:10057000f5ff370019ddba008b05e900faff3a00f4
:100580008904e800e184440032a0b40000000600c1
:100590000040da000000fe00000005008000780046
:1005a000010078003041780003c2b300834f51004e
:1005b000faff3200e94f5100f8ff3200edc141006f
:1005c000834f510003003a008000780013c0b3004d
:1005d000050037008041eb00b4c2b300844f5100e6
:1005e00001003a00800078000000eb0002003700b4
:1005f0006a02b900040041003101fb000203b100ae
:10060000e90f5100faff36000304e0000100320058
:100610000000ea0000000600000378008102780074
:1006200085017800010037000403780011000900fb
:100630008281d800800178000602e8000300e00013
:10064000f9ff3a00034a7800110009008282d800bd
:10065000000278008141780084027800e9cf5100df
:1006600001003400e7c1410001c3b30001d34100e0
:100670000400e000f4ff3a000600780000000600e5
:10068000881f7800000478000100e00005003d00ac
:1006900008007800d3c2b300035878008100ea0054
:1006a0000100370008007800dbff07000800780031
:1006b0004f04780000000600b041780031c15100bd
:1006c00002003a000304e000fbff3a000200fb00d6
:1006d000000006000a003700b04178000304e00083
:1006e000030032000201e900b1cf510004003200e2
:1006f0008381fb001480fb00008051000000060095
:10070000010278000200e000f3ff3a00000005005b
:020000040000fa
:1007100052530000540000006e7500006c6c000025
:100720000072000065610000647900000052000062
:10073000465000004f570000455200003d38000071
:10074000320000004f4b000000460000414900000d
:100750004c000000435700004d4f0000444500008e
:100760005f430000555200003d310000004300008f
:10077000574c00004150000000430000574a000061
:10078000415000005f430000555200003d22000030
:100790006d57000069460000692200002c2200000d
:1007a0006d61000068610000646100006761000025
:1007b0002200000045520000524f0000520000008d
:1007c0005749000046490000204300004f4e0000fa
:1007d0004e4500004354000045440000005700000f
:1007e00049460000492000004449000053430000ee
:1007f0004f4e00004e4500004354000000430000ef
:1008000049460000535200000043000049500000d8
:100810004d550000583d00003100000043490000e4
:10082000505300004552000056450000523d000064
:1008300030000000434900005053000045520000c2
:1008400056450000523d0000312c000038300000b9
:10085000003000002c4300004f4e00004e450000c9
:10086000435400000043000049500000534500007d
:100870004e4400003d3000002c33000031000000e9
:100880004d4500005353000049410000482000003e
:10089000434f00004c4c000045470000452000003d
:1008a000434f00004c4c0000414200004f520000fa
:1008b000415400004f520000590a00000d00000092
:1008c0002b490000504400002c3000002c31000067
:1008d000313a00006765000074210000436f00009a
:1008e0006e660000696700003b000000434900009d
:1008f00050530000454e0000443d0000302c0000e5
:1009000035390000004500004d4d00005320000027
:10091000436f00006c6c0000616200006f720000a9
:10092000617400006f7200007920000054650000bf
:10093000616d00000d0a0000537000007269000034
:100940006e6700002032000030310000390d0000d9
:100950000a57000069460000692000005631000077
:100960002e3100000d0a00004d6500007465000086
:1009700072200000233300000d0a0000002b00004d
:1009800049500000442c0000302c0000373a000091
:100990006e650000747700006f7200006b0000004d
:1009a0004349000050530000454e0000443d000004
:1009b000302c000031300000300000002b490000d6
:1009c000504400002c3000002c3500003a63000039
:1009d0006c6f000073650000004300004950000088
:1009e000434c00004f530000453d00003000000024
:1009f0002b490000504400002c3000002c35000032
:100a00003a72000065730000657400000043000046
:100a100049500000534500004e4400003d300000a6
:100a20002c370000004200007965000020420000e1
:100a30007965000000530000454e0000442000008e
:100a40004f4b0000002b000049500000442c0000d8
:100a50000043000049500000534500004e44000090
:100a60003d000000415400002b0000000d0a000072
:100a70000069000070410000646400007200000022
:0c0a8000666c0000757300006800000048
:020000040000fa
:100a8c000000fa00e244a90021e2a9003003200092
:100a9c004011880021a2a9002182a9002162a9008d
:100aac0001118000f0cf2f00008060000011880041
:100abc0020e2a90020c2a90020a2a9002082a9003e
:100acc002062a9000111800090ff2f0000806000bf
:100adc00001188002002a90011118000f0f32f00f2
:100aec00008060001011880023c2a9002362a900b5
:100afc002342a80011118000f0f32f000080600049
:100b0c001011880022a2a90021e2a8002342a8000b
:100b1c00e204a900e224a90031e2a900300320007c
:100b2c00c011880031a2a9003182a9003162a9004c
:100b3c0081118000f0cf2f000080600080118800b0
:100b4c0030e2a90030c2a90030a2a9003082a9006d
:100b5c003062a9008111800090ff2f00008060009e
:100b6c00801188003002a90091118000f0f32f0051
:100b7c00008060009011880033c2a9003362a90084
:100b8c003342a80091118000f0f32f000080600028
:100b9c009011880032a2a90031e2a8003342a800cb
:100bac000080fa00000006000400fa0020479800bc
:100bbc002e4090000004e00006003200fb68ef00bd
:100bcc00fa68ef00f769ef00f669ef00862def0089
:100bdc00abff07004f040700306c8000cf80de00b5
:100bec004201200003002000820f5000838f580028
:100bfc0010023e0000600100140037001a0037009c
:100c0c002200370028003700360037003c00370040
:100c1c004a003700500037005e0037006400370090
:100c2c00a9003700b1003700c8003700ce003700ec
:100c3c00dc003700e2003700f0003700f600370028
:100c4c00040137001c013700dc01370011c0b30070
:100c5c00803828000a030700306c80000000e80090
:100c6c00306c8800f3013700c13828001039280097
:100c7c00600307000004e000d9013200306c8000f2
:100c8c000000e800306c8800ea01370011c0b300a6
:100c9c0070392800fa020700306c80000000e80070
:100cac00306c8800e3013700c1382800203a280056
:100cbc00500307000004e00003003200306c800099
:100ccc000000e800306c8800c1382800503a280039
:100cdc00480307000004e000c3013200862def003a
:100cec00d401370011c0b300a03a2800e402070079
:100cfc00306c80000000e800306c8800cd013700bb
:100d0c00c1382800203a28003a0307000004e0000c
:100d1c0003003200306c80000000e800306c88006a
:100d2c00c1382800503a2800320307000004e000c4
:100d3c00af013200862def00be01370011c0b300a9
:100d4c00703b2800ce020700306c80000000e800e9
:100d5c00306c8800b7013700c1382800203a2800d1
:100d6c00240307000004e00003003200306c800014
:100d7c000000e800306c8800c1382800503a280088
:100d8c001c0307000004e0009b013200862def00dd
:100d9c00a801370011c0b300d03b2800b8020700ef
:100dac00306c80000000e800306c8800a101370036
:100dbc00c1382800203a28000e0307000004e00088
:100dcc0003003200306c80000000e800306c8800ba
:100ddc00c1382800503a2800060307000004e00040
:100dec0005003a00c1382800a03d28000103070087
:100dfc000004e0001b003200406c8000e20f500049
:100e0c0002003a00862def0016003700882def0007
:100e1c0000202100a10720007c060700506c8000f8
:100e2c00e10f500002003a008a2def00030037005a
:100e3c00506c80000000e800506c8800506c800002
:100e4c000000e00002003a0080002000306c8800b6
:100e5c00506c8000e10f500002003a00400120006d
:100e6c00306c8800c1382800003e2800e1020700e1
:100e7c000004e0000200320020002000406c8800da
:100e8c00c1382800f03e2800da0207000004e00018
:100e9c000200320010002000406c8800c13828008d
:100eac00003e2800d30207000004e0005401320089
:100ebc00406c8000e10f500053013a00882def0088
:100ecc00862def005b01370010c0b300aeecb7000d
:100edc0011c0b300f03f280069020700306c80009d
:100eec000000e800306c880052013700c13828003f
:100efc00203a2800bf0207000004e0000400320082
:100f0c00ae6cef00306c80000000e800306c8800a4
:100f1c00c1382800503a2800b60207000004e0004f
:100f2c0002003200ae6cef00862def00c1382800b5
:100f3c00a03d2800af0207000004e000340132009d
:100f4c00ae6cef00862def003a01370011c0b300f4
:100f5c00504028004a020700306c80000000e80076
:100f6c00306c880033013700c1382800203a280043
:100f7c00a00207000004e00003003200306c800087
:100f8c000000e800306c8800c1382800503a280076
:100f9c00980207000004e0001f013200862def00cc
:100fac002401370011c0b300e040280034020700d0
:100fbc00306c80000000e800306c88001d013700a8
:100fcc00c1382800203a28008a0207000004e000fb
:100fdc0003003200306c80000000e800306c8800a8
:100fec00c1382800503a2800820207000004e000b3
:100ffc000b013200862def000e01370011c0b3003b
:10100c00a04128001e020700306c80000000e800a0
:10101c00306c880007013700c1382800203a2800be
:10102c00740207000004e00003003200306c800002
:10103c000000e800306c8800c1382800503a2800c5
:10104c006c0207000004e000f7003200862def0070
:10105c00f80037000000eb00000f78000c003700a0
:10106c005116800000102000008060000000e0009d
:10107c0002003a00cd02a80001003700cd02a90001
:10108c0000982a0031002000e00507001e0fe80040
:10109c001e007800fd0f5000f1ff3400cd02a800b7
:1010ac00c4e2a900ea000700306c80000000e800f0
:1010bc00306c8800df003700c138280090422800cf
:1010cc004c0207000004e0000600320011c0b3001f
:1010dc0030432800ea01070010002000606c8800f3
:1010ec000c003700c1382800203a280041020700c4
:1010fc000004e00007003200606c8000e10f50003b
:10110c0004003a008040eb0000442800dc0107009a
:10111c008c2def00c138280000462800350207004e
:10112c000004e0000600320011c0b3006047280044
:10113c00d301070020002000606c88000c003700f1
:10114c00c1382800203a28002a0207000004e000d9
:10115c0007003200606c8000e20f500004003a007f
:10116c008040eb0030482800c50107008c2def00b3
:10117c00c1382800f04b28001e0207000004e000d4
:10118c000600320011c0b300004d2800bc0107005e
:10119c0030002000606c88000c003700c13828003b
:1011ac00203a2800130207000004e0000700320078
:1011bc00606c8000e30f500004003a008040eb00ac
:1011cc0000bf2000ae0107008c2def00c1382800b5
:1011dc00e04d2800070207000004e0000300320085
:1011ec0011c0b300d04e2800a5010700c13828005b
:1011fc00804f2800ff0107000004e00006003200c9
:10120c0011c0b300705028009d0107004000200061
:10121c00606c880019003700c1382800203a28007b
:10122c00f40107000004e00007003200606c80004d
:10123c00e40f500011003a008040eb0030512800c0
:10124c008f0107000d003700c1382800b05128006d
:10125c00e80107000004e00008003200606c800028
:10126c00e40f500005003a0011c0b300d04e280026
:10127c00830107008c2def00862def00c13828006c
:10128c00f03e2800db0107000004e000680032009b
:10129c00cd02a900c0042000a011880000a82100e4
:1012ac006100200059050700f0062000a0118800fd
:1012bc0000a8210061002000540507003007200021
:1012cc00a011880000a82100610020004f05070034
:1012dc0040072000a011880000a821006100200018
:1012ec004a05070000022000a011880000a8210078
:1012fc00610020004505070030042000a011880083
:10130c0000a821006100200040050700f006200025
:10131c00a011880000a82100610020003b050700f7
:10132c00e0062000a011880000a821006100200028
:10133c0036050700e0062000a011880000a8210057
:10134c00610020003105070050062000a011880024
:10135c0000a82100610020002c05070030062000a9
:10136c00a011880000a821006100200027050700bb
:10137c0040072000a011880000a821006100200077
:10138c002205070090062000a011880000a821006b
:10139c00610020001d050700f0062000a011880048
:1013ac0000a821006100200018050700e0062000bd
:1013bc00a0118800862def001e00370000b8280011
:1013cc00810020001105070011c0b300d03b28009c
:1013dc002b01070090002000306c880015003700ae
:1013ec00000000001300370000000000110037005f
:1013fc00000000000f003700000000000d00370057
:10140c00000000000b00370000000000090037004e
:10141c000000000007003700000000000500370046
:10142c00000000000300370000000000010037003e
:10143c00000000001c0207000004e0000200320063
:10144c00f769ef00f669ef000080fa000000060073
:10145c000800fa000000eb00000f78000000eb0021
:10146c0010079800100207000004e000650032002d
:10147c0052002000c18f20003052280092fc07003f
:10148c000000e0005d003a0001c9bf004047980031
:10149c000040eb0050479800640047003cfc0700fc
:1014ac00000f780003c9bf004047980004c9bf0073
:1014bc008000fb00a0032000808f500005003a0044
:1014cc000040eb005047980090c0b300f7e9b7001c
:1014dc000700370004c9bf00504798000040eb00dc
:1014ec0060479800a0c0b300f7e9b7000000000007
:1014fc006400470026fc070010079800ba2cef0088
:10150c0037003700bcccbf000004a2000004e00090
:10151c000a003200f7c9bf008080fb00c08f20009a
:10152c00008040009040780010c2b30080cf500083
:10153c0002003a0010c0b300bcecb700bcccbf003a
:10154c000004e00023003200d2658000f7c9bf0020
:10155c008080fb00c08f200000804000904078000d
:10156c00d0cb20000000410001487800d0658000fd
:10157c000000e800d0658800d1658000700c200068
:10158c00808f500002003400700c2000d065880061
:10159c00f7c9bf008080fb00c08f20000080400096
:1015ac0090407800a0c2b30080cf500009003a00f0
:1015bc00d1658000d0cb2000008040008040eb0043
:1015cc0001487800bc6cef00d0cb20001a03070058
:1015dc00ba2cef00f7c9bf000040e800f7e9b700ec
:1015ec00f7c9bf008080fb00c08f20000080400046
:1015fc00104078000004e000c2ff3a00f769ef00e9
:10160c00f669ef000080fa00000006000a01fa00fb
:10161c004007990090522800300798000000eb001a
:10162c00000f78000000eb00100798001200370044
:10163c001e007800be0090000080400090407800b2
:10164c00680147001e00900000004100014878002e
:10165c001e0090000000e800100798009e0090000b
:10166c00900f2000808f500002003400900f20005b
:10167c00100798001e0fe8001e007800be009000b6
:10168c0000804000104078000004e000e8ff3a00c1
:10169c00e80047001e0090000080400001c3b3002a
:1016ac00014878001e0090000000e8001007980028
:1016bc00e80047001e00900000804000c1c2b3004b
:1016cc00014878001e0090000000e8001007980008
:1016dc000000eb0020079800030037002e0090005c
:1016ec000000e800200798002e009000ce0091002a
:1016fc000080400090407800a0c2b30080cf500022
:10170c00f6ff3a002e0090000000e8002007980039
:10171c00201020000e004000a2002000ae0090001f
:10172c00d4fb07000000eb00000f78000c00370022
:10173c00201020000e0040001e0040009040780059
:10174c00680147001e00900000004100014878002d
:10175c001e0090000000e800100798001e0fe80023
:10176c00201020000e0040001e00400010407800a9
:10177c000004e000eeff3a00e80047001e00900075
:10178c00008040008040eb00014878006800470072
:10179c0011c0b3003a000700fac8bf008080fb00fc
:1017ac0000802000008040008040eb000148780061
:1017bc00fac8bf000040e800fae8b700fac8bf005a
:1017cc00e74f40000200360090cfb300fae8b700b4
:1017dc000000eb00000f780012003700fac8bf00c1
:1017ec000081fb001e007800ce00910000804000bc
:1017fc0090407800008020000000410001487800f3
:10180c00fac8bf000040e800fae8b700fac8bf0009
:10181c00e74f40000200360090cfb300fae8b70063
:10182c001e0fe8001e007800ce00910000804000e2
:10183c0090407800a0c2b30080cf5000e7ff3a0080
:10184c00fac8bf008080fb000080200000804000b0
:10185c00a1c2b30001487800fac8bf000040e800fc
:10186c00fae8b700fac8bf00e74f400002003600a4
:10187c0090cfb300fae8b7000080fa000000060031
:10188c000a00fa0030079800014f980020532800f6
:10189c001007980060532800200798000e4890000d
:1018ac000004e0001b0032000000eb00000f780089
:1018bc0012003700fac8bf000081fb001e00780040
:1018cc009e00900000804000904078000080200036
:1018dc000000410001487800fac8bf000040e80051
:1018ec00fae8b700fac8bf00e74f40000200360024
:1018fc0090cfb300fae8b7001e0fe8001e00780086
:10190c009e00900000804000104078000004e00031
:10191c00e8ff3a000000eb00000f780012003700df
:10192c00fac8bf000081fb001e007800be009000ca
:10193c0000804000904078000080200000004100b2
:10194c0001487800fac8bf000040e800fae8b70088
:10195c00fac8bf00e74f40000200360090cfb3003a
:10196c00fae8b7001e0fe8001e007800be009000d9
:10197c0000804000104078000004e000e8ff3a00ce
:10198c000000eb00000f780012003700fac8bf000f
:10199c000081fb001e007800ae009000008040002b
:1019ac009040780000802000000041000148780041
:1019bc00fac8bf000040e800fae8b700fac8bf0058
:1019cc00e74f40000200360090cfb300fae8b700b2
:1019dc001e0fe8001e007800ae0090000080400052
:1019ec00104078000004e000e8ff3a000080fa00a4
:1019fc00000006003c00fa00401f9800511f9800a0
:101a0c000040eb00004f78000040eb00404798008e
:101a1c000040eb0010479800e0562700c1c6260096
:101a2c0040079800510798000040eb00404f980089
:101a3c0090532800ed00470006000900b0587800cc
:101a4c007000b10074004700e2562600437727006f
:101a5c000288be0064004000f2262700b3962400e2
:101a6c000288be0064004000e2662600f3062000f7
:101a7c000288be0064004000d016260031162400f7
:101a8c0000179800111798004046260021072000e7
:101a9c002017980031179800800220000e0040009b
:101aac0032372700934626000288be0064004000af
:101abc0092e4260063f626000288be006400400013
:101acc008040eb00014878000000e800005428003a
:101adc00110320008100470005000900b058780070
:101aec006000b10068004700de189000effa0700b4
:101afc00300798003e0090000000e0000200320029
:101b0c0010c0b30010479800670007000004e00005
:101b1c006200320010c0b300004f780010c0b30058
:101b2c00404798000000eb00100798005200370067
:101b3c001e009000ce18900000804000904078006d
:101b4c001e019000c08f2000000041001040780062
:101b5c0080cf5000020032000040eb00004f7800b4
:101b6c001e4090000004e000400032006d00470071
:101b7c00de189000cdfa07000000e0000f003200e4
:101b8c00000220000e004000de189000c7fa07008b
:101b9c000000e0000900320074004700de189000dd
:101bac00c2fa07000000e0000400320080022000ae
:101bbc000e004000de189000bcfa07001003200055
:101bcc000e004000de189000b8fa070030079800ad
:101bdc003e0090000000e00024003a006004200069
:101bec00a0118800c0062000a0118800500720001a
:101bfc00a011880030072000a0118800800620006a
:101c0c00a011880050062000a0118800400620007a
:101c1c00a0118800f40047001e00900000804000d6
:101c2c0001c2b30001487800ed0047001e0090008f
:101c3c000080400001c2b30001487800010220007e
:101c4c008e8040001e0090000080400001c2b30056
:101c5c0001487800810220008e8040001e00900018
:101c6c000080400001c2b300014878001e009000c3
:101c7c000000e800100798001e009000ce1890009d
:101c8c0000804000104078000004e00003003200a7
:101c9c001e4078000004e000a5ff3a001e407800ca
:101cac000080fa00000006000200fa000040eb0081
:101cbc00004f7800f6c9bf00e14f5000120036000b
:101ccc00f6c9bf000080fb008080e900c08f2000b7
:101cdc000080400010407800ed4f50000a003a00a0
:101cec00f6c9bf000080fb008000e900c08f200017
:101cfc000080400010407800ea4f500002003a008b
:101d0c0010c0b300004f78001e4078000080fa002d
:101d1c00000006000000fa0003000700770007002f
:101d2c000080fa00000006000000fa00b18f2000cd
:101d3c0091407800fac8bf0080cf500015003200e7
:101d4c001111800000202000008060000000e000e5
:101d5c0012003a00fbc8bf008080fb00008020000e
:101d6c0000804000104078000e0007000004e000e6
:101d7c000a003200fbc8bf000040e800fbe8b700d7
:101d8c00fbc8bf00e74f400004003600fb68ef00c3
:101d9c0002003700fb68ef00fa68ef000080fa00e1
:101dac00000006000400fa00204798000040eb00f9
:101dbc00004f7800b2ccbf000004a2000004e00089
:101dcc00340032002e4090000004e0001b003a006a
:101ddc0010c0b300b2ecb700726c8000836c800052
:101dec00a0f92f00f1ff2f00800f5100818f5900b7
:101dfc0007003e00706c8000816c80004006b000d3
:101e0c000180b000a0658800b1658800080037002b
:101e1c00706c8000816c80005006b0000180b000b6
:101e2c00a0658800b165880010c0b300b8ecb7009d
:101e3c0010c0b300004f78002d0037001111800046
:101e4c0000202000008060000000e00028003a0024
:101e5c002e4090000000fb002011880010c0b30041
:101e6c00004f78002e4090000000fb00a01188006d
:101e7c001116800000082000008060000000e000c7
:101e8c0002003a00c4e2a80019003700c4e2a9001d
:101e9c0017003700b8ccbf000004e0000800320087
:101eac00726c8000836c8000a0658000b16580003e
:101ebc00800f5100818f590001003100b86cef0088
:101ecc00b8ccbf000004a2000004e00008003200ff
:101edc00726c8000836c8000a0658000b16580000e
:101eec00800f5100818f590001003900b26cef0056
:101efc001e4078000080fa00000006000200fa0084
:101f0c000040eb00004f78000e00e8001a000700bc
:101f1c000004e00015003200f6c9bf000081fb0090
:101f2c009e409000c08f20000000410001487800c6
:101f3c0010c0b300004f7800f6c9bf000040e800a5
:101f4c00f6e9b700f6c9bf00e74f400001003600c4
:101f5c00f669ef00f6c9bf008080fb00c08f20003f
:101f6c00008040008040eb00014878001e40780063
:101f7c000080fa00000006000400fa001007980028
:101f8c000040eb00004f78001011800061006000f1
:101f9c000000e00023003200301180008040780007
:101fac001e0090000148780010c0b300004f78006c
:101fbc001e009000104078000000fb00a01188006b
:101fcc00aeccbf000004e000090032008265800046
:101fdc001e0090009040780000bf200000004100df
:101fec0001487800806580000000e800806588006a
:101ffc008165800050062000808f500001003a005f
:10200c00b02cef001116800000082000008060004a
:10201c000000e00002003a00c4e2a8000100370012
:10202c00c4e2a9001e4078000080fa0000000600ff
:10203c000400fa00204798002e4090000004e000b5
:10204c0053003200f36aef00f26aef00ef6bef001f
:10205c00ee6bef0023010700d0002000a0118800d8
:10206c0000502300c1002000e801070030052000cb
:10207c00a01188000088230011002000e301070054
:10208c0000052000a011880000882300110020000a
:10209c00de01070090042000a011880000882300b6
:1020ac0011002000d9010700d0002000a0118800e9
:1020bc000088230011002000d401070050042000e8
:1020cc00a01188000088230011002000cf01070018
:1020dc00e0062000a01188000088230011002000d9
:1020ec00ca01070010062000a011880000882300f8
:1020fc0011002000c501070020062000a011880057
:10210c000088230011002000c0010700c006200039
:10211c00a01188000088230011002000bb010700db
:10212c0050062000a0118800008823001100200018
:10213c00b601070040062000a0118800008823008b
:10214c0011002000b10107000000eb00000f780027
:10215c000c00370051168000002020000080600029
:10216c000000e00002003a00cd22a8000100370078
:10217c00cd22a90000982a0031002000a3010700fd
:10218c001e0fe8001e007800fd0f5000f1ff340018
:10219c005116800000002800008060000000e00064
:1021ac0008003200afccbf000004a2000004e00025
:1021bc001200320010c0b300afecb70041e2a9002e
:1021cc000e003700afccbf000004e000040032006a
:1021dc00af6cef00ef6bef00ee6bef0041e2a8008d
:1021ec005700070007000700440007000004e00048
:1021fc0002003200ef6bef00ee6bef000080fa0094
:10220c00000006000000fa003c0007000004e0009b
:10221c000700320041af20009140780010c2b3009b
:10222c0080cf500002003a0040af2000f7fc0700be
:10223c000080fa00000006000400fa001007980065
:10224c000000eb00000f780012003700f2cabf004c
:10225c000081fb001e0078009e0090000080400072
:10226c0090407800809f20000000410001487800d9
:10227c00f2cabf000040e800f2eab700f2cabf00a1
:10228c00e74f40000200360090cfb300f2eab700ef
:10229c001e0fe8001e0078009e0090000080400099
:1022ac0090407800a0c2b30080cf5000e7ff3a0006
:1022bc00f2cabf000081fb001e0078009e00900057
:1022cc000080400090407800809f2000000041007a
:1022dc0001487800f2cabf000040e800f2eab700fb
:1022ec00f2cabf00e74f40000200360090cfb300a7
:1022fc00f2eab7000080fa00000006000200fa00c3
:10230c000040eb00004f7800eecbbf000080fb00dc
:10231c008000e90040af2000008040009040780031
:10232c00a0c2b30080cf500002003a0010c0b3002e
:10233c00004f78001e4078000080fa000000060074
:10234c000000fa0003000700320007000080fa00ca
:10235c00000006000000fa0031af20009140780028
:10236c00f2cabf0080cf500010003200f3cabf0089
:10237c008080fb00809f200000804000104078008f
:10238c000e0007000004e0000a003200f3cabf0090
:10239c000040e800f3eab700f3cabf00e74f400083
:1023ac0004003600f36aef0002003700f36aef0016
:1023bc00f26aef000080fa00000006000400fa0048
:1023cc00204798000040eb00004f7800001280007e
:1023dc00620060000000e0000b003a002e4090000c
:1023ec000000fb004012880010c0b300004f7800c2
:1023fc0000f4210001002000040107002e40900091
:10240c000000fb00a01188001e4078000080fa003c
:10241c00000006000200fa000040eb00004f7800bc
:10242c000e00e8001a0007000004e000150032005e
:10243c00eecbbf000081fb009e40900040af20001f
:10244c00000041000148780010c0b300004f780034
:10245c00eecbbf000040e800eeebb700eecbbf00c8
:10246c00e74f400001003600ee6bef00eecbbf00f3
:10247c008080fb0040af2000008040008040eb00db
:10248c00014878001e4078000080fa000000060029
:10249c000400fa00100798000040eb00004f780091
:1024ac0000128000610060000000e0000a003200b1
:1024bc0040128000804078001e0090000148780097
:1024cc0010c0b300004f78001e0090001040780040
:1024dc000000fb00a01188001e4078000080fa006c
:1024ec00000006000000fa00e024ef00e224ef00f8
:1024fc00e384a900c8a2a800c8c2a900c982a80088
:10250c0042a2a9004382a8004362a9004342a90049
:10251c004322a9004302a80042e2a80042c2a8003c
:10252c001112800030fe2f00008060001012880015
:10253c0045e2a90045c2a90045a2a9004422a90070
:10254c004402a90040c2a900401280004012880039
:10255c0041e2a8000080fa00000006000800fa0022
:10256c002007980031079800e3c4a900e3e4a90010
:10257c00c902a900c922a900c0e2a900cd02a80085
:10258c0000902000d1032000a0000700cd22a8005d
:10259c0000902000d10320009c000700c4e2a8009a
:1025ac0000902000d1032000980007000000eb00f1
:1025bc00000f78001000370051168000001020002a
:1025cc00008060000000e00004003a00cd02a8008a
:1025dc00cd22a800c4e2a80003003700cd02a90058
:1025ec00cd22a900c4e2a90000502300c1002000a4
:1025fc00860007001e0fe8001e007800e40f500054
:10260c00edff3400cd02a900cd22a900c4e2a9003f
:10261c00620007000000eb00100798000e00370066
:10262c001116800000082000008060000000e0000f
:10263c0002003a00c4e2a80001003700c4e2a9007d
:10264c0000982a0031002000700007001e00900046
:10265c000000e800100798001e009000fd0f5000cd
:10266c00efff340010c0b3004ff9070010c0b300e7
:10267c006ffe070000202100a10720006300070067
:10268c00d0002000a011880000a8210061002000cb
:10269c005e000700a0002000a011880000a8210007
:1026ac00610020005900070030072000a0118800ad
:1026bc0000a8210061002000540007004007200002
:1026cc00a011880000a82100610020004f00070025
:1026dc0010062000a011880000a821006100200035
:1026ec004a00070020072000a011880000a8210044
:1026fc00610020004500070040072000a011880061
:10270c0000a821006100200040000700d00020003c
:10271c00a011880000a82100610020003b000700e8
:10272c00a0002000a011880000a82100610020005a
:10273c003600070001003700000000000040eb00ed
:10274c0019f9070001088000803e2000808f50009e
:10275c00f9ff3600726c8000836c80000080eb0007
:10276c008080eb00800f5100818f590003003a00ec
:10277c008e2def00902def0006003700706c80005e
:10278c00816c800061004000e0804800706c880023
:10279c00816c88000021ef00e8ff37000000fa0090
:1027ac00e3c4a900e3e4a900c9c2a900c9e2a900d5
:1027bc00020007000080fa00000006000000fa008a
:1027cc0005a1a80021088000f0cf2f000080600038
:1027dc002008880004c1a9000441a9000421a90013
:1027ec0021088000f0fc2f00008060000040a00059
:1027fc00200888000021ef008e2def00902def00b7
:0c280c0005e1a8000080fa0000000600b2
:020000040000fa
:10281800f03fb1000180b10006003500ee03090069
:1028280000000000403fb1000180b100fbff3d0007
:102838001000b000203fb000020035000080090001
:08284800000000000000060082
:020000040000fa
:102850008e0d0000080000000000000000080000cd
:0c2860008e0500000000000000000000d9
:020000040000fa
:0200000401f009
:04000000ffff0000fe
:020000040000fa
:0200000401f009
:04000800ffff0000f6
:020000040000fa
:0200000401f009
:04000c00d9ff000018
:020000040000fa
:0200000401f009
:04001000baff000033
:020000040000fa
:0200000401f009
:040014005fff00008a
:020000040000fa
:0200000401f009
:04001800fcff0000e9
:020000040000fa
:0200000401f009
:04001c00fdff0000e4
:020000040000fa
:0200000401f009
:04002000bfff00001e
:00000001FF
