:020000040000fa
:080000000002040000000000f2
:020000040000fa
:04000800c80200002a
:020000040000fa
:04000c00c802000026
:020000040000fa
:04001000c802000022
:020000040000fa
:04001400c80200001e
:020000040000fa
:04001800c80200001a
:020000040000fa
:04001c00c802000016
:020000040000fa
:04002000c802000012
:020000040000fa
:04002400c80200000e
:020000040000fa
:04002800c80200000a
:020000040000fa
:04002c00c802000006
:020000040000fa
:04003000c802000002
:020000040000fa
:04003400c8020000fe
:020000040000fa
:04003800c8020000fa
:020000040000fa
:04003c00c8020000f6
:020000040000fa
:04004000c8020000f2
:020000040000fa
:04004400c8020000ee
:020000040000fa
:04004800c8020000ea
:020000040000fa
:04004c00c8020000e6
:020000040000fa
:04005000c8020000e2
:020000040000fa
:04005400c8020000de
:020000040000fa
:04005800c8020000da
:020000040000fa
:04005c00c8020000d6
:020000040000fa
:04006000c8020000d2
:020000040000fa
:04006400c8020000ce
:020000040000fa
:04006800c8020000ca
:020000040000fa
:04006c00c8020000c6
:020000040000fa
:04007000c8020000c2
:020000040000fa
:04007400c8020000be
:020000040000fa
:04007800c8020000ba
:020000040000fa
:04007c00c8020000b6
:020000040000fa
:04008000c8020000b2
:020000040000fa
:04008400c8020000ae
:020000040000fa
:04008800c8020000aa
:020000040000fa
:04008c00c8020000a6
:020000040000fa
:04009000c8020000a2
:020000040000fa
:04009400c80200009e
:020000040000fa
:04009800c80200009a
:020000040000fa
:04009c00c802000096
:020000040000fa
:0400a000c802000092
:020000040000fa
:0400a400c80200008e
:020000040000fa
:0400a800c80200008a
:020000040000fa
:0400ac00c802000086
:020000040000fa
:0400b000c802000082
:020000040000fa
:0400b400c80200007e
:020000040000fa
:0400b800c80200007a
:020000040000fa
:0400bc00c802000076
:020000040000fa
:0400c000c802000072
:020000040000fa
:0400c400c80200006e
:020000040000fa
:0400c800c80200006a
:020000040000fa
:0400cc00c802000066
:020000040000fa
:0400d000c802000062
:020000040000fa
:0400d400c80200005e
:020000040000fa
:0400d800c80200005a
:020000040000fa
:0400dc00c802000056
:020000040000fa
:0400e000c802000052
:020000040000fa
:0400e400c80200004e
:020000040000fa
:0400e800c80200004a
:020000040000fa
:0400ec00c802000046
:020000040000fa
:0400f000c802000042
:020000040000fa
:0400f400c80200003e
:020000040000fa
:0400f800c80200003a
:020000040000fa
:0400fc00c802000036
:020000040000fa
:04010000c802000031
:020000040000fa
:04010400c80200002d
:020000040000fa
:04010800c802000029
:020000040000fa
:04010c00c802000025
:020000040000fa
:04011000c802000021
:020000040000fa
:04011400c80200001d
:020000040000fa
:04011800c802000019
:020000040000fa
:04011c00c802000015
:020000040000fa
:04012000c802000011
:020000040000fa
:04012400c80200000d
:020000040000fa
:04012800c802000009
:020000040000fa
:04012c00c802000005
:020000040000fa
:04013000c802000001
:020000040000fa
:04013400c8020000fd
:020000040000fa
:04013800c8020000f9
:020000040000fa
:04013c00c8020000f5
:020000040000fa
:04014000c8020000f1
:020000040000fa
:04014400c8020000ed
:020000040000fa
:04014800c8020000e9
:020000040000fa
:04014c00c8020000e5
:020000040000fa
:04015000c8020000e1
:020000040000fa
:04015400c8020000dd
:020000040000fa
:04015800c8020000d9
:020000040000fa
:04015c00c8020000d5
:020000040000fa
:04016000c8020000d1
:020000040000fa
:04016400c8020000cd
:020000040000fa
:04016800c8020000c9
:020000040000fa
:04020800c802000028
:020000040000fa
:04020c00c802000024
:020000040000fa
:04021000c802000020
:020000040000fa
:04021400c80200001c
:020000040000fa
:04021800c802000018
:020000040000fa
:04021c00c802000014
:020000040000fa
:04022000c802000010
:020000040000fa
:04022400c80200000c
:020000040000fa
:04022800c802000008
:020000040000fa
:04022c00c802000004
:020000040000fa
:04023000c802000000
:020000040000fa
:04023400c8020000fc
:020000040000fa
:04023800c8020000f8
:020000040000fa
:04023c00c8020000f4
:020000040000fa
:04024000c8020000f0
:020000040000fa
:04024400c8020000ec
:020000040000fa
:04024800c8020000e8
:020000040000fa
:04024c00c8020000e4
:020000040000fa
:04025000c8020000e0
:020000040000fa
:04025400c8020000dc
:020000040000fa
:04025800c8020000d8
:020000040000fa
:04025c00c8020000d4
:020000040000fa
:04026000c8020000d0
:020000040000fa
:04026400c8020000cc
:020000040000fa
:04026800c8020000c8
:020000040000fa
:04026c00c8020000c4
:020000040000fa
:04027000c8020000c0
:020000040000fa
:04027400c8020000bc
:020000040000fa
:04027800c8020000b8
:020000040000fa
:04027c00c8020000b4
:020000040000fa
:04028000c8020000b0
:020000040000fa
:04028400c8020000ac
:020000040000fa
:04028800c8020000a8
:020000040000fa
:04028c00c8020000a4
:020000040000fa
:04029000c8020000a0
:020000040000fa
:04029400c80200009c
:020000040000fa
:04029800c802000098
:020000040000fa
:04029c00c802000094
:020000040000fa
:0402a000c802000090
:020000040000fa
:0402a400c80200008c
:020000040000fa
:0402a800c802000088
:020000040000fa
:0402ac00c802000084
:020000040000fa
:0402b000c802000080
:020000040000fa
:0402b400c80200007c
:020000040000fa
:0402b800c802000078
:020000040000fa
:0402bc00c802000074
:020000040000fa
:0402c000c802000070
:020000040000fa
:0402c400c80200006c
:020000040000fa
:0402c800c802000068
:020000040000fa
:0402cc00c802000064
:020000040000fa
:0402d000c802000060
:020000040000fa
:0402d400c80200005c
:020000040000fa
:0402d800c802000058
:020000040000fa
:0402dc00c802000054
:020000040000fa
:0402e000c802000050
:020000040000fa
:0402e400c80200004c
:020000040000fa
:0402e800c802000048
:020000040000fa
:0402ec00c802000044
:020000040000fa
:0402f000c802000040
:020000040000fa
:0402f400c80200003c
:020000040000fa
:0402f800c802000038
:020000040000fa
:0402fc00c802000034
:020000040000fa
:04030000c80200002f
:020000040000fa
:04030400c80200002b
:020000040000fa
:04030800c802000027
:020000040000fa
:04030c00c802000023
:020000040000fa
:04031000c80200001f
:020000040000fa
:04031400c80200001b
:020000040000fa
:04031800c802000017
:020000040000fa
:04031c00c802000013
:020000040000fa
:04032000c80200000f
:020000040000fa
:04032400c80200000b
:020000040000fa
:04032800c802000007
:020000040000fa
:04032c00c802000003
:020000040000fa
:04033000c8020000ff
:020000040000fa
:04033400c8020000fb
:020000040000fa
:04033800c8020000f7
:020000040000fa
:04033c00c8020000f3
:020000040000fa
:04034000c8020000ef
:020000040000fa
:04034400c8020000eb
:020000040000fa
:04034800c8020000e7
:020000040000fa
:04034c00c8020000e3
:020000040000fa
:04035000c8020000df
:020000040000fa
:04035400c8020000db
:020000040000fa
:04035800c8020000d7
:020000040000fa
:04035c00c8020000d3
:020000040000fa
:04036000c8020000cf
:020000040000fa
:04036400c8020000cb
:020000040000fa
:04036800c8020000c7
:020000040000fa
:100400004fcd20000eff20000e01880000000000ec
:10041000000020000000e000020032000001200087
:1004200020028800140007005b0007000000e000c5
:1004300003003a00002321000100200002003700e1
:100440000000200001002000810f70000100320038
:1004500014000700000020000000e000020032004d
:100460000000020000000000bc10020000000000bc
:100470000040da000000fe004440a900e01820001f
:100480000000e0000300320000002000a00188000e
:100490004440a800000006008a1f78008b1f7800e7
:1004a0000000060091018800800478000000eb0045
:1004b0001a003700e284440032a0b4009905ba0063
:1004c000e284440032a0b4009906ba00e2844400f9
:1004d00032a0b4000006eb00476fde00fd07b2005b
:1004e000636ce10003003a00ebff07000000eb0043
:1004f0000a003700606ce10004003a00005deb0088
:100500008b05e900fdff3e00040037006168e10053
:10051000010032000086eb000b00070019c7ba008b
:100520001905ba000e04e00003003a000a00e000da
:10053000e0ff3a0000000600fe07b2009e018800be
:100540008a047800f5ff3700395dba008b05e900b1
:100550000c003200295dba008b05e900080032006a
:100560000c00e00003003a00e284440032a0b40032
:10057000f5ff370019ddba008b05e900faff3a00f4
:100580008904e800e184440032a0b40000000600c1
:100590000040da000000fe00000005008000780046
:1005a000010078003041780003c2b300834f51004e
:1005b000faff3200e94f5100f8ff3200edc141006f
:1005c000834f510003003a008000780013c0b3004d
:1005d000050037008041eb00b4c2b300844f5100e6
:1005e00001003a00800078000000eb0002003700b4
:1005f0006a02b900040041003101fb000203b100ae
:10060000e90f5100faff36000304e0000100320058
:100610000000ea0000000600000378008102780074
:1006200085017800010037000403780011000900fb
:100630008281d800800178000602e8000300e00013
:10064000f9ff3a00034a7800110009008282d800bd
:10065000000278008141780084027800e9cf5100df
:1006600001003400e7c1410001c3b30001d34100e0
:100670000400e000f4ff3a000600780000000600e5
:10068000881f7800000478000100e00005003d00ac
:1006900008007800d3c2b300035878008100ea0054
:1006a0000100370008007800dbff07000800780031
:1006b0004f047800000006000a003700b0417800bf
:1006c0000304e000030032000201e900b1cf510051
:1006d000040032008381fb001480fb000080510085
:1006e00000000600010278000200e000f3ff3a007b
:0406f0000000050001
:020000040000fa
:1006f4005253000054000000726500006164000061
:100704007900000052460000504f00005745000099
:10071400523d000038320000004f00004b00000042
:1007240046410000494c000000430000574d0000c2
:100734004f440000455f000043550000523d000057
:1007440031000000435700004c41000050000000fd
:10075400435700004a410000505f00004355000029
:10076400523d0000226d00005769000046690000f8
:10077400222c0000226d000061680000616400000a
:100784006167000061220000004500005252000031
:100794004f52000000570000494600004920000065
:1007a40044490000534300004f4e00004e450000f2
:1007b400435400000057000049460000492000004f
:1007c400434f00004e4e00004543000054450000d6
:1007d400440000004349000046530000520000005a
:1007e40043490000504d0000555800003d310000c1
:1007f40000430000495000005345000052560000d9
:10080400455200003d300000004300004950000004
:100814005345000052560000455200003d3100008f
:100824002c38000030000000302c0000434f000042
:100834004e4e0000454300005400000043490000b0
:1008440050530000454e0000443d0000302c000091
:1008540033310000004d00004553000053490000af
:1008640041480000204300004f4c00004c4500006c
:1008740047450000204300004f4c00004c4100005d
:10088400424f000052410000544f000052590000f2
:100894000a0d0000002b000049500000442c000009
:1008a400302c0000313100003a670000657400000c
:1008b400214300006f6e000066690000673b000082
:1008c4000043000049500000534500004e4400001e
:1008d4003d3000002c35000039000000454d00007b
:1008e4004d530000204300006f6c00006c61000059
:1008f400626f000072610000746f00007279000082
:1009040020540000656100006d0d00000a530000d2
:1009140070720000696e0000672000003230000031
:10092400313900000d0a00005769000046690000d3
:1009340020560000312e0000310d00000a4d000049
:10094400657400006572000020230000330d000070
:100954000a0000002b490000504400002c30000025
:100964002c3500003a6300006c6f000073650000d2
:100974000043000049500000434c00004f53000066
:10098400453d0000300000002b49000050440000a9
:100994002c3000002c3500003a7200006573000012
:1009a40065740000004300004950000053450000f6
:1009b4004e4400003d3000002c370000004200008f
:1009c40079650000204200007965000000530000b2
:1009d400454e0000442000004f4b0000002b000057
:1009e40049500000442c000000430000495000001e
:1009f400534500004e4400003d00000041540000f7
:0c0a04002b0000000d0a000000000000a4
:020000040000fa
:100a10000000fa00e244a90021e2a900300320000e
:100a20004011880021a2a9002182a9002162a90009
:100a300001118000f0cf2f000080600000118800bd
:100a400020e2a90020c2a90020a2a9002082a900ba
:100a50002062a9000111800090ff2f00008060003b
:100a6000001188002002a90011118000f0f32f006e
:100a7000008060001011880023c2a9002362a90031
:100a80002342a80011118000f0f32f0000806000c5
:100a90001011880022a2a90021e2a8002342a80088
:100aa000e204a900e224a90031e2a90030032000f9
:100ab000c011880031a2a9003182a9003162a900c9
:100ac00081118000f0cf2f0000806000801188002d
:100ad00030e2a90030c2a90030a2a9003082a900ea
:100ae0003062a9008111800090ff2f00008060001b
:100af000801188003002a90091118000f0f32f00ce
:100b0000008060009011880033c2a9003362a90000
:100b10003342a80091118000f0f32f0000806000a4
:100b20009011880032a2a90031e2a8003342a80047
:100b30000080fa00000006000400fa002047980038
:100b40002e4090000004e00006003200fb68ef0039
:100b5000fa68ef00f769ef00f669ef00c42cef00c8
:100b6000abff07008303070020668000cf80de0014
:100b70004201200003002000820f5000838f5800a4
:100b8000ca013e0000600100140037001a0037005f
:100b900021003700270037003300370039003700c5
:100ba000450037004b003700570037006000370022
:100bb000940037009a003700ab003700b1003700cf
:100bc000bd003700c3003700cf003700d500370025
:100bd000e1003700f90037009901370011c0b30078
:100be000a0372800c4020700206680000000e8004b
:100bf00020668800ad013700e03728001b0307009e
:100c00000004e00094013200206680000000e8004b
:100c100020668800a501370011c0b30040382800c5
:100c2000b5020700206680000000e800206688000a
:100c30009e013700f03828000c0307000004e00094
:100c400003003200206680000000e8002066880073
:100c500020392800050307000004e000800132006d
:100c6000c42cef009101370011c0b3007039280087
:100c7000a1020700206680000000e80020668800ce
:100c80008a013700f0382800f80207000004e0006d
:100c900003003200206680000000e8002066880023
:100ca00020392800f10207000004e0006e01320044
:100cb000c42cef007d01370011c0b300403a28007a
:100cc0008d020700206680000000e8002066880092
:100cd00076013700f0382800e40207000004e00045
:100ce00003003200206680000000e80020668800d3
:100cf00020392800dd0207000004e0005c0132001a
:100d0000c42cef006901370000202100a10720005a
:100d1000c505070011c0b300a03a280076020700fd
:100d2000206680000000e800206688005f01370030
:100d3000f0382800cd0207000004e0000300320074
:100d4000206680000000e800206688002039280026
:100d5000c60207000004e00004003a00703c2800ce
:100d6000c20207000004e00016003200c62cef00ab
:100d700000202100a1072000ab050700406680008d
:100d8000e10f500002003a00c82cef0003003700ca
:100d9000406680000000e8004066880040668000f1
:100da0000000e00002003a00800020002066880079
:100db00040668000e10f500002003a004001200030
:100dc00020668800d03c2800a80207000004e0004c
:100dd000020032001000200030668800d03d28005c
:100de000a20207000004e000230132003066800008
:100df000e10f500022013a00c62cef00c42cef0096
:100e00002a01370011c0b300c03e28003a02070093
:100e1000206680000000e80020668800230137007b
:100e2000f0382800910207000004e00003003200bf
:100e3000206680000000e800206688002039280035
:100e40008a0207000004e00001003200c42cef0019
:100e5000703c2800850207000004e0000a0132000f
:100e6000c42cef001101370011c0b300203f28004f
:100e700021020700206680000000e800206688004c
:100e80000a013700f0382800780207000004e0006b
:100e900003003200206680000000e8002066880021
:100ea00020392800710207000004e000f800320039
:100eb000c42cef00fd00370011c0b300b03f280084
:100ec0000d020700206680000000e8002066880010
:100ed000f6003700f0382800640207000004e00044
:100ee00003003200206680000000e80020668800d1
:100ef000203928005d0207000004e000e60032000f
:100f0000c42cef00e900370011c0b3007040280086
:100f1000f9010700206680000000e80020668800d4
:100f2000e2003700f0382800500207000004e0001b
:100f300003003200206680000000e8002066880080
:100f400020392800490207000004e000d4003200e4
:100f5000c42cef00d50037000000eb00000f780034
:100f60000c00370051168000001020000080600047
:100f70000000e00002003a00cd02a80001003700a6
:100f8000cd02a90000982a003100200026050700a4
:100f90001e0fe8001e007800fd0f5000f1ff340026
:100fa000cd02a800c4e2a900c700070020668000a7
:100fb0000000e80020668800bc003700604128007f
:100fc0002a0207000004e0000600320011c0b3004e
:100fd00000422800c8010700100020005066880069
:100fe0000b003700f0382800200207000004e00062
:100ff0000700320050668000e10f500004003a0004
:101000008040eb00d0422800bb010700ca2cef0053
:10101000d0442800150207000004e000060032005a
:1010200011c0b30030462800b301070020002000a3
:10103000506688000b003700f03828000b020700cc
:101040000004e0000700320050668000e20f50000c
:1010500004003a008040eb0000472800a60107008a
:10106000ca2cef00c04a2800000207000004e0007c
:101070000300320011c0b300b04b28009e010700ee
:10108000604c2800f90107000004e000060032006f
:1010900011c0b300504d2800970107003000200018
:1010a0005066880017003700f0382800ef0107006d
:1010b0000004e0000700320050668000e30f50009b
:1010c00010003a008040eb00104e28008a01070013
:1010d0000c003700904e2800e40107000004e000f7
:1010e0000800320050668000e30f500005003a000f
:1010f00011c0b300b04b28007f010700ca2cef00dd
:10110000c42cef00d03c2800d80107000004e00008
:1011100065003200cd02a900c0042000a0118800a3
:1011200000a8210061002000bf040700f006200095
:10113000a011880000a8210061002000ba04070067
:1011400030072000a011880000a8210061002000c5
:10115000b504070040072000a011880000a8210066
:1011600061002000b004070000022000a0118800e8
:1011700000a8210061002000ab040700300420001b
:10118000a011880000a8210061002000a60407002b
:10119000f0062000a011880000a8210061002000b6
:1011a000a1040700e0062000a011880000a821008b
:1011b000610020009c040700e0062000a0118800c8
:1011c00000a82100610020009704070050062000bd
:1011d000a011880000a821006100200092040700ef
:1011e00030062000a011880000a821006100200026
:1011f0008d04070040072000a011880000a82100ee
:10120000610020008804070090062000a0118800db
:1012100000a821006100200083040700f0062000e0
:10122000a011880000a82100610020007e040700b2
:10123000e0062000a0118800c42cef001b0037003e
:1012400000b82800810020007704070090002000eb
:1012500020668800150037000000000013003700ea
:101260000000000011003700000000000f003700f0
:10127000000000000d003700000000000b003700e8
:1012800000000000090037000000000007003700e0
:1012900000000000050037000000000003003700d8
:1012a0000000000001003700000000009601070068
:1012b0000004e00002003200f769ef00f669ef0079
:1012c0000080fa00000006000800fa000000eb00b1
:1012d000000f78000000eb00100798008a0107005b
:1012e0000004e0006500320052002000c18f2000a1
:1012f000104f2800f0fc07000000e0005d003a00fd
:1013000001c9bf00404798000040eb0050479800db
:1013100064004700a1fc0700000f780003c9bf006c
:101320004047980004c9bf008000fb00a0032000d4
:10133000808f500005003a000040eb0050479800b5
:1013400090c0b300f7e9b7000700370004c9bf0039
:10135000504798000040eb0060479800a0c0b300e1
:10136000f7e9b70000000000640047008bfc0700ad
:1013700010079800f82bef0037003700facbbf00ba
:101380000004a2000004e0000a003200f7c9bf0018
:101390008080fb00c08f20000080400090407800db
:1013a00010c2b30080cf500002003a0010c0b3005a
:1013b000faebb700facbbf000004e00023003200d4
:1013c000c25f8000f7c9bf008080fb00c08f200093
:1013d0000080400090407800b0bf20000000410035
:1013e00001487800c05f80000000e800c05f88000e
:1013f000c15f8000700c2000808f5000020034001c
:10140000700c2000c05f8800f7c9bf008080fb001f
:10141000c08f20000080400090407800a0c2b30040
:1014200080cf500009003a00c15f8000b0bf2000ab
:10143000008040008040eb0001487800fa6bef002c
:10144000b0bf200083020700f82bef00f7c9bf00f0
:101450000040e800f7e9b700f7c9bf008080fb0053
:10146000c08f200000804000104078000004e000a1
:10147000c2ff3a00f769ef00f669ef000080fa005a
:10148000000006000a01fa0040079900704f28008a
:10149000300798000000eb00000f78000000eb0020
:1014a00010079800120037001e007800be00900060
:1014b0000080400090407800680147001e009000c6
:1014c00000004100014878001e0090000000e80084
:1014d000100798009e009000900f2000808f500011
:1014e00002003400900f2000100798001e0fe80043
:1014f0001e007800be009000008040001040780080
:101500000004e000e8ff3a00e80047001e009000f9
:101510000080400001c3b300014878001e00900025
:101520000000e80010079800e80047001e00900047
:1015300000804000c1c2b300014878001e00900046
:101540000000e800100798000000eb00200798005a
:10155000030037002e0090000000e80020079800ec
:101560002e009000ce009100008040009040780056
:10157000a0c2b30080cf5000f6ff3a002e009000ca
:101580000000e80020079800201020000e00400016
:10159000a2002000ae00900039fc07000000eb0024
:1015a000000f78000c003700201020000e004000d3
:1015b0001e00400090407800680147001e00900027
:1015c00000004100014878001e0090000000e80083
:1015d000100798001e0fe800201020000e004000a9
:1015e0001e004000104078000004e000eeff3a00ca
:1015f000e80047001e009000008040008040eb00a3
:10160000014878006800470011c0b3003a000700a5
:10161000fac8bf008080fb000080200000804000ee
:101620008040eb0001487800fac8bf000040e800a5
:10163000fae8b700fac8bf00e74f400002003600e2
:1016400090cfb300fae8b7000000eb00000f78007d
:1016500012003700fac8bf000081fb001e007800ae
:10166000ce00910000804000904078000080200073
:101670000000410001487800fac8bf000040e800bf
:10168000fae8b700fac8bf00e74f40000200360092
:1016900090cfb300fae8b7001e0fe8001e007800f4
:1016a000ce0091000080400090407800a0c2b300be
:1016b00080cf5000e7ff3a00fac8bf008080fb00ef
:1016c0000080200000804000a1c2b30001487800e3
:1016d000fac8bf000040e800fae8b700fac8bf0047
:1016e000e74f40000200360090cfb300fae8b700a1
:1016f0000080fa00000006000a00fa003007980097
:10170000014f980000502800100798004050280012
:10171000200798000e4890000004e0001b003200f3
:101720000000eb00000f780012003700fac8bf007d
:101730000081fb001e0078009e00900000804000a9
:1017400090407800008020000000410001487800af
:10175000fac8bf000040e800fae8b700fac8bf00c6
:10176000e74f40000200360090cfb300fae8b70020
:101770001e0fe8001e0078009e00900000804000d0
:10178000104078000004e000e8ff3a000000eb00a1
:10179000000f780012003700fac8bf000081fb007c
:1017a0001e007800be00900000804000904078004d
:1017b000008020000000410001487800fac8bf0006
:1017c0000040e800fae8b700fac8bf00e74f400061
:1017d0000200360090cfb300fae8b7001e0fe80011
:1017e0001e007800be00900000804000104078008d
:1017f0000004e000e8ff3a000000eb00000f780072
:1018000012003700fac8bf000081fb001e007800fc
:10181000ae009000008040009040780000802000e2
:101820000000410001487800fac8bf000040e8000d
:10183000fae8b700fac8bf00e74f400002003600e0
:1018400090cfb300fae8b7001e0fe8001e00780042
:10185000ae00900000804000104078000004e000de
:10186000e8ff3a000080fa00000006000600fa00d7
:10187000200798000040eb00004f7800220007008e
:101880000004e0001d00320010c0b300004f7800db
:101890000000eb00100798000f0037001e009000ba
:1018a000ae00900000804000904078001e01900043
:1018b000c08f2000000041001040780080cf500011
:1018c000020032000040eb00004f78001e00900044
:1018d0000000e800100798001e009000ae00900085
:1018e00000804000104078000004e0000300320057
:1018f0001e4078000004e000e8ff3a001e40780037
:101900000080fa00000006000200fa000040eb0030
:10191000004f7800f6c9bf00e14f500012003600ba
:10192000f6c9bf000080fb008080e900c08f200066
:101930000080400010407800ed4f50000a003a004f
:10194000f6c9bf000080fb008000e900c08f2000c6
:101950000080400010407800ea4f500002003a003a
:1019600010c0b300004f78001e4078000080fa00dd
:10197000000006000000fa000300070077000700df
:101980000080fa00000006000000fa00b18f20007d
:1019900091407800fac8bf0080cf50001500320097
:1019a0001111800000202000008060000000e00095
:1019b00012003a00fbc8bf008080fb0000802000be
:1019c00000804000104078000e0007000004e00096
:1019d0000a003200fbc8bf000040e800fbe8b70087
:1019e000fbc8bf00e74f400004003600fb68ef0073
:1019f00002003700fb68ef00fa68ef000080fa0091
:101a0000000006000400fa00204798000040eb00a8
:101a1000004f7800f1cbbf000004a2000004e000fa
:101a2000340032002e4090000004e0001b003a0019
:101a300010c0b300f1ebb7006266800073668000ef
:101a4000a0f92f00f1ff2f00800f5100818f590066
:101a500007003e0060668000716680004006b000ae
:101a60000180b000905f8800a15f88000800370007
:101a700060668000716680005006b0000180b00092
:101a8000905f8800a15f880010c0b300f6ebb7003c
:101a900010c0b300004f78002d00370011118000f6
:101aa00000202000008060000000e00028003a00d4
:101ab0002e4090000000fb002011880010c0b300f1
:101ac000004f78002e4090000000fb00a01188001d
:101ad0001116800000082000008060000000e00077
:101ae00002003a00c4e2a80019003700c4e2a900cd
:101af00017003700f6cbbf000004e00008003200fa
:101b00006266800073668000905f8000a15f800045
:101b1000800f5100818f590001003100f66bef00fa
:101b2000f6cbbf000004a2000004e0000800320071
:101b30006266800073668000905f8000a15f800015
:101b4000800f5100818f590001003900f16bef00c7
:101b50001e4078000080fa00000006000200fa0033
:101b60000040eb00004f78000e00e8001a0007006c
:101b70000004e00015003200f6c9bf000081fb0040
:101b80009e409000c08f2000000041000148780076
:101b900010c0b300004f7800f6c9bf000040e80055
:101ba000f6e9b700f6c9bf00e74f40000100360074
:101bb000f669ef00f6c9bf008080fb00c08f2000ef
:101bc000008040008040eb00014878001e40780013
:101bd0000080fa00000006000400fa0010079800d8
:101be0000040eb00004f78001011800061006000a1
:101bf0000000e000120032003011800080407800c8
:101c00001e0090000148780010c0b300004f78001b
:101c10001e009000104078000000fb00a01188001a
:101c20001116800000082000008060000000e00025
:101c300002003a00c4e2a80001003700c4e2a90093
:101c40001e4078000080fa00000006000400fa0040
:101c5000204798002e4090000004e000530032001e
:101c6000f36aef00f26aef00ef6bef00ee6bef004c
:101c700023010700d0002000a0118800005023009d
:101c8000c1002000e801070030052000a0118800f5
:101c90000088230011002000e30107000005200058
:101ca000a01188000088230011002000de01070039
:101cb00090042000a011880000882300110020005b
:101cc000d9010700d0002000a0118800008823005f
:101cd00011002000d401070050042000a01188004a
:101ce0000088230011002000cf010700e00620003b
:101cf000a01188000088230011002000ca010700fd
:101d000010062000a0118800008823001100200088
:101d1000c501070020062000a011880000882300cc
:101d200011002000c0010700c0062000a01188009b
:101d30000088230011002000bb010700500620008e
:101d4000a01188000088230011002000b6010700c0
:101d500040062000a0118800008823001100200008
:101d6000b10107000000eb00000f78000c00370005
:101d70005116800000202000008060000000e0007c
:101d800002003a00cd22a80001003700cd22a900b0
:101d900000982a0031002000a30107001e0fe80070
:101da0001e007800fd0f5000f1ff34005116800036
:101db00000002800008060000000e0000800320001
:101dc000f0cbbf000004a2000004e00012003200cb
:101dd00010c0b300f0ebb70041e2a9000e003700dd
:101de000f0cbbf000004e00004003200f06bef0015
:101df000ef6bef00ee6bef0041e2a8005700070029
:101e000007000700440007000004e0000200320061
:101e1000ef6bef00ee6bef000080fa0000000600b1
:101e20000000fa003c0007000004e0000700320058
:101e300041af20009140780010c2b30080cf500025
:101e400002003a0040af20008efd07000080fa003b
:101e5000000006000400fa00100798000000eb00e4
:101e6000000f780012003700f2cabf000081fb00ab
:101e70001e0078009e009000008040009040780096
:101e8000809f20000000410001487800f2cabf0096
:101e90000040e800f2eab700f2cabf00e74f400096
:101ea0000200360090cfb300f2eab7001e0fe80040
:101eb0001e0078009e009000008040009040780056
:101ec000a0c2b30080cf5000e7ff3a00f2cabf00c3
:101ed0000081fb001e0078009e0090000080400002
:101ee00090407800809f2000000041000148780069
:101ef000f2cabf000040e800f2eab700f2cabf0031
:101f0000e74f40000200360090cfb300f2eab7007e
:101f10000080fa00000006000200fa000040eb001a
:101f2000004f7800eecbbf000080fb008000e9008e
:101f300040af20000080400090407800a0c2b30075
:101f400080cf500002003a0010c0b300004f78006c
:101f50001e4078000080fa00000006000000fa0031
:101f600003000700320007000080fa0000000600ae
:101f70000000fa0031af200091407800f2cabf00a3
:101f800080cf500010003200f3cabf008080fb00f9
:101f9000809f200000804000104078000e00070065
:101fa0000004e0000a003200f3cabf000040e8006d
:101fb000f3eab700f3cabf00e74f40000400360061
:101fc000f36aef0002003700f36aef00f26aef00f5
:101fd0000080fa00000006000400fa002047980084
:101fe0000040eb00004f78000012800062006000ab
:101ff0000000e0000b003a002e4090000000fb00c3
:102000004012880010c0b300004f780000f4210097
:1020100001002000040107002e4090000000fb009a
:10202000a01188001e4078000080fa000000060021
:102030000200fa000040eb00004f78000e00e800bc
:102040001a0007000004e00015003200eecbbf00cc
:102050000081fb009e40900040af20000000410046
:102060000148780010c0b300004f7800eecbbf00ed
:102070000040e800eeebb700eecbbf00e74f4000ba
:1020800001003600ee6bef00eecbbf008080fb005e
:1020900040af2000008040008040eb000148780005
:1020a0001e4078000080fa00000006000400fa00dc
:1020b000100798000040eb00004f780000128000ed
:1020c000610060000000e0000a0032004012800061
:1020d000804078001e0090000148780010c0b300d6
:1020e000004f78001e009000104078000000fb00b8
:1020f000a01188001e4078000080fa000000060051
:102100000000fa00e024ef00e224ef00e384a900dd
:10211000c8a2a800c8c2a900c982a80042a2a900fa
:102120004382a8004362a9004342a9004322a900b8
:102130004302a80042e2a80042c2a8001112800097
:1021400030fe2f00008060001012880045e2a900d8
:1021500045c2a90045a2a9004422a9004402a90041
:1021600040c2a900401280004012880041e2a8004d
:102170000080fa00000006000800fa00200798001e
:1021800031079800e3c4a900e3e4a900c902a9004b
:10219000c922a900c0e2a900cd02a8000090200039
:1021a000d1032000a0000700cd22a800009020004d
:1021b000d10320009c000700c4e2a800009020008a
:1021c000d1032000980007000000eb00000f78000a
:1021d00010003700511680000010200000806000c1
:1021e0000000e00004003a00cd02a800cd22a800c3
:1021f000c4e2a80003003700cd02a900cd22a90047
:10220000c4e2a90000502300c1002000860007009e
:102210001e0fe8001e007800e40f5000edff3400b0
:10222000cd02a900cd22a900c4e2a90062000700e6
:102230000000eb00100798000e0037001116800018
:1022400000082000008060000000e00002003a006a
:10225000c4e2a80001003700c4e2a90000982a00e7
:1022600031002000700007001e0090000000e80010
:10227000100798001e009000fd0f5000efff340083
:1022800010c0b3002cfa070010c0b3006ffe0700a7
:1022900000202100a107200063000700d0002000db
:1022a000a011880000a82100610020005e00070046
:1022b000a0002000a011880000a8210061002000db
:1022c0005900070030072000a011880000a8210055
:1022d000610020005400070040072000a011880082
:1022e00000a82100610020004f0007001006200018
:1022f000a011880000a82100610020004a0007000a
:1023000020072000a011880000a821006100200003
:102310004500070040072000a011880000a8210008
:102320006100200040000700d0002000a0118800bc
:1023300000a82100610020003b000700a000200051
:10234000a011880000a821006100200036000700cd
:1023500001003700000000000040eb00f6f9070024
:1023600001088000803e2000808f5000f9ff360079
:1023700062668000736680000080eb008080eb0066
:10238000800f5100818f590003003a00cc2cef00e0
:10239000ce2cef000600370060668000716680007a
:1023a00061004000e0804800606688007166880037
:1023b0000021ef00e8ff37000000fa00e3c4a900a5
:1023c000e3e4a900c9c2a900c9e2a900020007000c
:1023d0000080fa00000006000000fa0005a1a80035
:1023e00021088000f0cf2f000080600020088800c6
:1023f00004c1a9000441a9000421a900210880000a
:10240000f0fc2f00008060000040a0002008880041
:102410000021ef00cc2cef00ce2cef0005e1a8004e
:082420000080fa000000060034
:020000040000fa
:10242800f03fb1000180b10006003500ee0309005d
:1024380000000000403fb1000180b100fbff3d00fb
:102448001000b000203fb0000200350000800900f5
:08245800000000000000060076
:020000040000fa
:10246000cc0c000008000000000000000008000084
:0c247000cc040000000000000000000090
:020000040000fa
:0200000401f009
:04000000ffff0000fe
:020000040000fa
:0200000401f009
:04000800ffff0000f6
:020000040000fa
:0200000401f009
:04000c00d9ff000018
:020000040000fa
:0200000401f009
:04001000baff000033
:020000040000fa
:0200000401f009
:040014005fff00008a
:020000040000fa
:0200000401f009
:04001800fcff0000e9
:020000040000fa
:0200000401f009
:04001c00fdff0000e4
:020000040000fa
:0200000401f009
:04002000bfff00001e
:00000001FF
