:020000040000fa
:080000000002040000000000f2
:020000040000fa
:04000800c80200002a
:020000040000fa
:04000c00c802000026
:020000040000fa
:04001000c802000022
:020000040000fa
:04001400c80200001e
:020000040000fa
:04001800c80200001a
:020000040000fa
:04001c00c802000016
:020000040000fa
:04002000c802000012
:020000040000fa
:04002400c80200000e
:020000040000fa
:04002800c80200000a
:020000040000fa
:04002c00c802000006
:020000040000fa
:04003000c802000002
:020000040000fa
:04003400c8020000fe
:020000040000fa
:04003800c8020000fa
:020000040000fa
:04003c00c8020000f6
:020000040000fa
:04004000c8020000f2
:020000040000fa
:04004400c8020000ee
:020000040000fa
:04004800c8020000ea
:020000040000fa
:04004c00c8020000e6
:020000040000fa
:04005000c8020000e2
:020000040000fa
:04005400c8020000de
:020000040000fa
:04005800c8020000da
:020000040000fa
:04005c00c8020000d6
:020000040000fa
:04006000c8020000d2
:020000040000fa
:04006400c8020000ce
:020000040000fa
:04006800c8020000ca
:020000040000fa
:04006c00c8020000c6
:020000040000fa
:04007000c8020000c2
:020000040000fa
:04007400c8020000be
:020000040000fa
:04007800c8020000ba
:020000040000fa
:04007c00c8020000b6
:020000040000fa
:04008000c8020000b2
:020000040000fa
:04008400c8020000ae
:020000040000fa
:04008800c8020000aa
:020000040000fa
:04008c00c8020000a6
:020000040000fa
:04009000c8020000a2
:020000040000fa
:04009400c80200009e
:020000040000fa
:04009800c80200009a
:020000040000fa
:04009c00c802000096
:020000040000fa
:0400a000c802000092
:020000040000fa
:0400a400c80200008e
:020000040000fa
:0400a800c80200008a
:020000040000fa
:0400ac00c802000086
:020000040000fa
:0400b000c802000082
:020000040000fa
:0400b400c80200007e
:020000040000fa
:0400b800c80200007a
:020000040000fa
:0400bc00c802000076
:020000040000fa
:0400c000c802000072
:020000040000fa
:0400c400c80200006e
:020000040000fa
:0400c800c80200006a
:020000040000fa
:0400cc00c802000066
:020000040000fa
:0400d000c802000062
:020000040000fa
:0400d400c80200005e
:020000040000fa
:0400d800c80200005a
:020000040000fa
:0400dc00c802000056
:020000040000fa
:0400e000c802000052
:020000040000fa
:0400e400c80200004e
:020000040000fa
:0400e800c80200004a
:020000040000fa
:0400ec00c802000046
:020000040000fa
:0400f000c802000042
:020000040000fa
:0400f400c80200003e
:020000040000fa
:0400f800c80200003a
:020000040000fa
:0400fc00c802000036
:020000040000fa
:04010000c802000031
:020000040000fa
:04010400c80200002d
:020000040000fa
:04010800c802000029
:020000040000fa
:04010c00c802000025
:020000040000fa
:04011000c802000021
:020000040000fa
:04011400c80200001d
:020000040000fa
:04011800c802000019
:020000040000fa
:04011c00c802000015
:020000040000fa
:04012000c802000011
:020000040000fa
:04012400c80200000d
:020000040000fa
:04012800c802000009
:020000040000fa
:04012c00c802000005
:020000040000fa
:04013000c802000001
:020000040000fa
:04013400c8020000fd
:020000040000fa
:04013800c8020000f9
:020000040000fa
:04013c00c8020000f5
:020000040000fa
:04014000c8020000f1
:020000040000fa
:04014400c8020000ed
:020000040000fa
:04014800c8020000e9
:020000040000fa
:04014c00c8020000e5
:020000040000fa
:04015000c8020000e1
:020000040000fa
:04015400c8020000dd
:020000040000fa
:04015800c8020000d9
:020000040000fa
:04015c00c8020000d5
:020000040000fa
:04016000c8020000d1
:020000040000fa
:04016400c8020000cd
:020000040000fa
:04016800c8020000c9
:020000040000fa
:04020800c802000028
:020000040000fa
:04020c00c802000024
:020000040000fa
:04021000c802000020
:020000040000fa
:04021400c80200001c
:020000040000fa
:04021800c802000018
:020000040000fa
:04021c00c802000014
:020000040000fa
:04022000c802000010
:020000040000fa
:04022400c80200000c
:020000040000fa
:04022800c802000008
:020000040000fa
:04022c00c802000004
:020000040000fa
:04023000c802000000
:020000040000fa
:04023400c8020000fc
:020000040000fa
:04023800c8020000f8
:020000040000fa
:04023c00c8020000f4
:020000040000fa
:04024000c8020000f0
:020000040000fa
:04024400c8020000ec
:020000040000fa
:04024800c8020000e8
:020000040000fa
:04024c00c8020000e4
:020000040000fa
:04025000c8020000e0
:020000040000fa
:04025400c8020000dc
:020000040000fa
:04025800c8020000d8
:020000040000fa
:04025c00c8020000d4
:020000040000fa
:04026000c8020000d0
:020000040000fa
:04026400c8020000cc
:020000040000fa
:04026800c8020000c8
:020000040000fa
:04026c00c8020000c4
:020000040000fa
:04027000c8020000c0
:020000040000fa
:04027400c8020000bc
:020000040000fa
:04027800c8020000b8
:020000040000fa
:04027c00c8020000b4
:020000040000fa
:04028000c8020000b0
:020000040000fa
:04028400c8020000ac
:020000040000fa
:04028800c8020000a8
:020000040000fa
:04028c00c8020000a4
:020000040000fa
:04029000c8020000a0
:020000040000fa
:04029400c80200009c
:020000040000fa
:04029800c802000098
:020000040000fa
:04029c00c802000094
:020000040000fa
:0402a000c802000090
:020000040000fa
:0402a400c80200008c
:020000040000fa
:0402a800c802000088
:020000040000fa
:0402ac00c802000084
:020000040000fa
:0402b000c802000080
:020000040000fa
:0402b400c80200007c
:020000040000fa
:0402b800c802000078
:020000040000fa
:0402bc00c802000074
:020000040000fa
:0402c000c802000070
:020000040000fa
:0402c400c80200006c
:020000040000fa
:0402c800c802000068
:020000040000fa
:0402cc00c802000064
:020000040000fa
:0402d000c802000060
:020000040000fa
:0402d400c80200005c
:020000040000fa
:0402d800c802000058
:020000040000fa
:0402dc00c802000054
:020000040000fa
:0402e000c802000050
:020000040000fa
:0402e400c80200004c
:020000040000fa
:0402e800c802000048
:020000040000fa
:0402ec00c802000044
:020000040000fa
:0402f000c802000040
:020000040000fa
:0402f400c80200003c
:020000040000fa
:0402f800c802000038
:020000040000fa
:0402fc00c802000034
:020000040000fa
:04030000c80200002f
:020000040000fa
:04030400c80200002b
:020000040000fa
:04030800c802000027
:020000040000fa
:04030c00c802000023
:020000040000fa
:04031000c80200001f
:020000040000fa
:04031400c80200001b
:020000040000fa
:04031800c802000017
:020000040000fa
:04031c00c802000013
:020000040000fa
:04032000c80200000f
:020000040000fa
:04032400c80200000b
:020000040000fa
:04032800c802000007
:020000040000fa
:04032c00c802000003
:020000040000fa
:04033000c8020000ff
:020000040000fa
:04033400c8020000fb
:020000040000fa
:04033800c8020000f7
:020000040000fa
:04033c00c8020000f3
:020000040000fa
:04034000c8020000ef
:020000040000fa
:04034400c8020000eb
:020000040000fa
:04034800c8020000e7
:020000040000fa
:04034c00c8020000e3
:020000040000fa
:04035000c8020000df
:020000040000fa
:04035400c8020000db
:020000040000fa
:04035800c8020000d7
:020000040000fa
:04035c00c8020000d3
:020000040000fa
:04036000c8020000cf
:020000040000fa
:04036400c8020000cb
:020000040000fa
:04036800c8020000c7
:020000040000fa
:10040000afe120000eff20000e0188000000000078
:10041000000020000000e000020032000001200087
:1004200020028800140007009d0007000000e00083
:1004300003003a00e0d7210001002000020037004d
:100440000000200001002000810f70000100320038
:1004500014000700000020000000e000020032004d
:100460000000020000000000261c02000000000046
:100470000040da000000fe004440a900e021200016
:100480000000e0000300320000002000a00188000e
:100490004440a800000006008a1f78008b1f7800e7
:1004a0000000060091018800800478000000eb0045
:1004b0001a003700e284440032a0b4009905ba0063
:1004c000e284440032a0b4009906ba00e2844400f9
:1004d00032a0b4000006eb00476fde00fd07b2005b
:1004e000636ce10003003a00ebff07000000eb0043
:1004f0000a003700606ce10004003a00005deb0088
:100500008b05e900fdff3e00040037006168e10053
:10051000010032000086eb000b00070019c7ba008b
:100520001905ba000e04e00003003a000a00e000da
:10053000e0ff3a0000000600fe07b2009e018800be
:100540008a047800f5ff3700395dba008b05e900b1
:100550000c003200295dba008b05e900080032006a
:100560000c00e00003003a00e284440032a0b40032
:10057000f5ff370019ddba008b05e900faff3a00f4
:100580008904e800e184440032a0b40000000600c1
:100590000040da000000fe000a00fa00e20f5000fe
:1005a00034003e00c0708000e10f500003003200b4
:1005b000e20f500011003a000c0037000322200027
:1005c0000300e00001003a000040da002002e200ef
:1005d000020035002822ef0021e2a8002342ab00f0
:1005e0000d003a002342a8000b003700032320002f
:1005f0000300e00001003a000040da003002e200af
:10060000020035003822ef0031e2a8003342ab008f
:1006100001003a003342a800820178000b00370045
:100620003102fb00e10f500004003a002322ab002e
:10063000feff3a0024118800030037003322ab008c
:10064000feff3a00a41188008301e9000300e000e6
:10065000f3ff3a00e10f500003003a002302ab0021
:10066000feff32000b0037003302ab00feff32000a
:100670000800370033002000b3bf9f00c0bf9f00b9
:10068000d1bf9f00e2bf9f006a805700ba030700f6
:100690006fb99700020078000080fa0000000600a1
:1006a00000000500800078000100780030417800eb
:1006b00003c2b300834f5100faff3200e94f5100eb
:1006c000f8ff3200edc14100834f510003003a00b2
:1006d0008000780013c0b300050037008041eb00b4
:1006e000b4c2b300844f510001003a00800078008a
:1006f0000000eb00020037006a02b900040041006c
:100700003101fb000203b100e90f5100faff36008e
:100710000304e000010032000000ea0000000600cf
:10072000000378008102780085017800010037001d
:1007300004037800110009008281d800800178004c
:100740000602e8000300e000f9ff3a00034a7800df
:10075000110009008282d8000002780081417800ef
:1007600084027800e9cf510001003400e7c1410064
:1007700001c3b30001d341000400e000f4ff3a00dc
:100780000600780000000600881f7800000478004a
:100790000100e00005003d0008007800d3c2b3006e
:1007a000035878008100ea00010037000800780053
:1007b000dbff0700080078004f0478000000060007
:1007c0008001780002003700815978000201e900b9
:1007d0000200e000fcff3a00000006000001780083
:1007e00082017800030178003204e000fcff3a0047
:1007f00031417800825978000204e000fcff3a00a1
:1008000000000600b041780031c1510002003a00fa
:100810000304e000fbff3a000200fb0000000600ba
:100820000a003700b04178000304e0000300320002
:100830000201e900b1cf5100040032008381fb00c6
:100840001480fb00008051000000060001027800c7
:100850000200e000f3ff3a00000005000c00fa007f
:10086000889fbe0000047800f0ff2700d0bf9f00e3
:100870008004eb0099bf9f0088bf9f00a8bf9f0026
:10088000200c2000b0bf9f0078815700cfb09700a8
:1008900070805700100007000fb8970009487800d3
:1008a0008fb89700088050004f04be000080fa0007
:1008b00000000600d0019000028151004240a900d2
:1008c0000300340010017800014978000208e800b4
:1008d0000100780000000600f6874700889fbe00f0
:1008e0008a9fbe008c9fbe008e1f78000005780096
:1008f000a1b79f00020778008004eb009002370048
:10090000afb097008100e800a1b79f0051c2b300cb
:10091000814f500003003a00afb097000004eb0095
:1009200011003700ba0090000000fb000168a3002e
:100930000700320009017800800078000a00780082
:10094000dcff07000000e00005003a007c023700f1
:100950008a00780086020700e10f4000780232002a
:100960008904e80076023700010078003141780000
:10097000d3c2b300834f51000c00320007003c008b
:10098000edc15100834f51000a003200ebc141001c
:10099000834f51000d003a000800370003c3b30035
:1009a000834f510009003a00060037000830a000cc
:1009b000edff37000800a000ebff37000810a00093
:1009c000e9ff37000820a000e7ff37000818a30060
:1009d000010032000800a1000838a3000100320025
:1009e0000820a1008200fb000103b100e98f500044
:1009f0000c003e00000178008000eb006a08b9009e
:100a0000b201fb000303b1008080410002007800c6
:100a10009201fb000303b100e98f5100f7ff36009c
:100a2000060037008000eb00a3c2b300834f5100e3
:100a300002003a00ce0078000000e8008005eb00dc
:100a4000e2c2b300904f110009003a0008e0a00094
:100a500064415100d04f11000300320000017800c2
:100a60000102780006003700ce0578000000e8009b
:100a700000017800090037006a58b90080854100fc
:100a800002007800b201fb000303b100e98f5100be
:100a9000f9ff360084007800f5ff37003240780017
:100aa000a2b79f00c3c6b300834f50002500320099
:100ab0000f003c0032c6b300824f50008800320065
:100ac00004003c000004e000220232006b415100af
:100ad0000f00370042c6b300824f500017003200ab
:100ae00065414100824f500094003a0013003700e6
:100af00032c7b300824f50001b00320007003c0099
:100b000064415100824f5000100032000241e80061
:100b1000824f500089003a000f00370052c7b300df
:100b2000824f50008a00320063414100824f5000e2
:100b300082003a00e0df9f0009003700e0df9f00fd
:100b4000850037000840a000d4ff3700e0df9f0099
:100b50000860a00080003700e0df9f000850a00080
:100b60000870a0007c003700e0df9f004e00780096
:100b7000000678000000e00001003a00ccdb200015
:100b80000c0178000000eb00010037000000e800d5
:100b9000e24178000304e000fcff3a0080067800a0
:100ba0000b00e000030032008d8f55000100310082
:100bb0008b0678008005eb008d8f50000100360019
:100bc0008d855000680464002a003a001100370047
:100bd0003a0090000068a300070032000901780085
:100be000010220000a00780032ff07000000e00048
:100bf00006003a00060037008a0078000002200054
:100c0000db010700e10f4000010032008904e80029
:100c10008b05e9000b00e000edff3a008085eb005a
:100c2000140037003a0090000068a3000900320069
:100c30000c007800b000fb00000678000901780085
:100c40000a0078001bff07000000e00008003a00df
:100c5000080037008c0078003100fb0001067800a6
:100c60008a007800c2010700e10f40000100320055
:100c70008904e8000d0078008006e9000000e0002b
:100c8000e8ff3a000800e000ad0132001100370033
:100c90003a0090000068a3000700320009017800c4
:100ca000010220000a00780002ff07000000e000b7
:100cb00006003a00060037008a0078000002200093
:100cc000ab010700e10f4000010032008904e80099
:100cd0008b05e9000b00e000edff3a0098013700ba
:100ce0004e017800cf91de00c81ade004818dd0002
:100cf0004812de0004027000e4df9f000848a300f1
:100d0000080032000404e00006003200e14f420017
:100d100004003200f4df9f0082e79f002d002000d6
:100d200002003700f2df9f001d002000e2fd2f00cf
:100d30000f0141000206e80099ff3700e0df9f0045
:100d4000ecfd2f000f0646001d00200094ff370029
:100d5000e0df9f00080cb30008017800020cb2002d
:100d6000700064000200e0000d003a000000e000a6
:100d7000020032004e06be00020037004e06780028
:100d8000cfe6de00e00f5600e08f5e000a003d0077
:100d90003800b30060061600e0861e00060037002b
:100da0000000e000020032004e06be0002003700e4
:100db0004e0678008006eb000b00e00005003a00cc
:100dc0008c8576000bf0a7008b05ea008b05e90007
:100dd000cf5dde0088017800030cb200e3b79f000e
:100de00000042000808f51002300320003003c00eb
:100df0000300e000080032002d003700000820004a
:100e00006fb29700800f52000d003200000c2000de
:100e1000800f520026003a0042dc200010c0b300d0
:100e200064014100b20f5600a28f5e001f0039001e
:100e30000040e800ea4f5000f9ff3a001b0037007d
:100e400010c0b3000201200003002000820f5600f2
:100e5000838f5e0015003900441add00cc11de00de
:100e6000830172004411dd000040e800e84f5000ab
:100e7000f6ff3a000d00370010c0b30082002000da
:100e800003002000820f5600838f5e0007003900a8
:100e9000431add00cd11de00830172004311dd0035
:100ea0000040e800eb4f5000f6ff3a00e0df9f0003
:100eb0006fd997000200fb008b0f500002003d002d
:100ec000ebdf9f0003003700808f550001003d00dd
:100ed000800578000100e000030032006300640038
:100ee000010032008100e90008e8a300050032009b
:100ef0008b8f5000020034008b80500001003700bf
:100f00008000eb00efd997000300fb000002eb002c
:100f1000d4b79f00808f5000020034000080500042
:100f2000d0b79f000828a300400032006101640090
:100f30000818a3000f0032003a0090000068a300d8
:100f400006003200b10220000200e0000100320081
:100f50008180e800090178000d003700b002200010
:100f60000200e000010032000080e8008a00780002
:100f70000e0037000200e000100032003a0090003e
:100f80000068a30007003200090178000102200078
:100f90000a00780047fe07000000e00006003a0063
:100fa000060037008a00780000022000f0000700e9
:100fb000e10f4000010032008904e8005fb09700b3
:100fc0000000e0005a003200bcb79f00cdb79f0080
:100fd000800678003a0090000068a3000700320005
:100fe00009017800010320000a00780031fe0700a3
:100ff0000000e00006003a00060037008a00780092
:1010000000032000da000700e10f40000100320079
:101010008904e8008d06e900eeff3a00ddb79f0085
:101020003fb69700cfb6970041003700dfb1970079
:101030000300e0001a0032000838a30018003a004c
:10104000bcb79f00cdb79f00830678003a009000a0
:101050000068a300070032000901780001022000a7
:101060000a00780013fe07000000e00006003a00c6
:10107000060037008a00780000022000bc0007004c
:10108000e10f4000010032008904e8008d06e9000c
:10109000eeff3a00ddb79f003fb69700cfb697004e
:1010a000610164000818a3000f0032003a009000ac
:1010b0000068a30006003200b10220000200e00038
:1010c000010032008180e800090178000d0037003e
:1010d000b00220000200e000010032000080e800c1
:1010e0008a0078000e0037000200e0001000320095
:1010f0003a0090000068a300070032000901780060
:10110000010220000a007800eafd07000000e0006c
:1011100006003a00060037008a007800000220002e
:1011200093000700e10f4000010032008904e8004d
:101130000b03e9006330b90000017800b2b79f00eb
:101140004233dd0040dc2000000343008e017800c4
:1011500093b79f0008077800060478005c0037000a
:101160008b05e900000420006fb29700800f520049
:101170003800320003003c000400e00008003200a8
:101180003e00370000082000efb09700808f50002d
:1011900020003200000c2000808f500037003a0001
:1011a0000e48a300100032001802be000401be0069
:1011b0000c00be00f4b79f0085bf9f00f000070041
:1011c000e0df9f000000fb00cf80de007fb29700d1
:1011d0008fba97000401be00f90007000006560010
:1011e00081865e00070037001801780011000900b1
:1011f0000286d800a2002000110009000280d80059
:10120000e1df9f006fd997000243b000e2df9f004b
:101210001a003700b0da20000e58a3000100320097
:10122000a0d9200041dc2000810054000c01be0048
:101230008100e900030033008301d1000281d30063
:10124000fbff3700ef006100e0c07800e1df9f00a6
:101250000a0037000c00be00bfb197008301e9000f
:10126000030033008100d1000080d300fbff370072
:10127000674060000043b000e0df9f00ba009000cc
:101280006fda97000400fb000168a300070032003a
:1012900009017800800078000a00780085fd0700c9
:1012a0000000e00005003a00050037008a007800e1
:1012b0002f000700e10f4000010032008904e80020
:1012c0003fb0970063005000b0b79f006404540023
:1012d0000b00e000a2ff3a000e0478001fb7970051
:1012e0000838a30016003200dfb097000100e000cc
:1012f00013003400010478003a0090000068a30055
:101300000700320009017800010220000a0078007d
:1013100068fd07000000e00006003a000600370004
:101320008a0078000002200011000700e10f400051
:10133000010032008904e8000804e900eeff3a00e9
:101340002fb1970012407800e0df9f000004e0001a
:101350006bfd3a00090078004f0778004f06be0089
:101360004f05be004f04be006f01b1000000060033
:10137000889fbe0001047800b80090008084eb00d4
:101380000118a3003a003200180190000198a30050
:1013900002003a000200e00035003a000190a0008f
:1013a0003104980080047800f90fb2000200e000d8
:1013b00002003a0028009000000c7800ea8f5400e8
:1013c00005003a000178a30003003a008800780085
:1013d000d0002000e6ff070018009000d800900021
:1013e000810f50000b0032000000e800100498004c
:1013f0001800780009487800000ce80011c0b3001c
:1014000020e1200001487800ea8f540018003a00db
:1014100005003700880078000940780017000700b1
:101420008004780012003700380090000088a30084
:101430000f00320018019000a800900048009000b2
:1014400055fc070098009000810f50000400320006
:10145000380090000003b300300498008084eb0053
:101460000000eb001004980028009000000c7800a9
:10147000090078004f04be00000006000200fa00d8
:10148000889fbe00a0ff9f000104780038009000f4
:101490000068a30033003a00e200600005003a0053
:1014a0000003b30030049800110498000080eb00a2
:1014b0002e003700d80490000900e00006003a0032
:1014c00012002000e68057004800900032fc070020
:1014d0001904980023003700a80090000100e000e4
:1014e00008003a0051e1200021049800010c780026
:1014f0002100200051049800110498000030a00041
:101500003004980018019000a80090004800900056
:1015100021fc0700280090008080eb001104980057
:10152000aff8970001487800000ce8002ff897000a
:10153000ea4f50000b003a00380090000088a300ea
:101540000800320018019000a800900048009000a8
:1015500011fc07000000eb0010049800a8009000a8
:10156000010c7800aff897000100fb004f04be00ab
:101570000080fa000000060000c0da00000006004b
:101580006022b800060220000000d0008180d20056
:101590000482d2008582d2000000a0000202520024
:1015a00083825a00030031000202420083824a0013
:1015b0000000a1000603e900f3ff3a000000060066
:1015c000020ab900001bb9000200b8008100420005
:0815d000810043000000060049
:020000040000fa
:1015d80052530000540000006e7500006c6c00004f
:1015e800007200006561000064790000005200008c
:1015f800465000004f570000455200003d3800009b
:10160800320000004f4b0000004600004149000036
:101618004c000000435700004d4f000044450000b7
:101628005f430000555200003d31000000430000b8
:10163800574c00004150000000430000574a00008a
:10164800415000005f430000555200003d22000059
:10165800454d00004d5300002d5a0000696d0000f3
:101668003230000031390000222c000022650000d1
:101678006d6d0000732d00006d6100006861000051
:10168800646100006761000022000000455200000c
:10169800524f000052000000574900004649000020
:1016a800204300004f4e00004e4500004354000008
:1016b800454400000057000049460000492000004a
:1016c80044490000534300004f4e00004e450000bf
:1016d80043540000004300004946000053520000f4
:1016e80000430000495000004d550000583d0000df
:1016f80031000000434900005053000045520000eb
:1017080056450000523d00003000000043490000eb
:10171800505300004552000056450000523d00005d
:10172800312c000038300000003000002c4300004d
:101738004f4e00004e450000435400000043000097
:1017480049500000534500004e4400003d30000061
:101758002c330000310000004d45000053530000b9
:101768004941000048200000434f00004c4c000055
:101778004547000045200000434f00004c4c000046
:10178800414200004f520000415400004f520000f7
:10179800590a00000d0000002b49000050440000c9
:1017a8002c3000002c310000353a0000214d00009b
:1017b8004f4400003b4e000045540000574f0000c6
:1017c800524b00002a0000002b4900005044000042
:1017d8002c3000002c310000343a0000214d00006c
:1017e8004f4400003b4300004f4e000046490000b4
:1017f800472a0000002b000049500000442c00003c
:10180800302c0000313100003a2100004d4f00001b
:10181800443b0000434c00004f530000452a0000a1
:101828000043000049500000434c00004f530000a3
:10183800453d0000300000002b49000050440000e6
:101848002c3000002c310000313a0000214d0000fe
:101858004f4400003b52000045530000455400002f
:101868002a0000004349000050530000454e000084
:10187800443d0000302c0000370000004279000091
:101888006520000042790000650000005345000013
:101898004e440000204f00004b0000002b49000080
:1018a800504400002c3000002c310000333a000076
:1018b800214d00004f4400003b500000554c0000f3
:1018c800534500002a000000435700004a41000029
:1018d800505f000043550000523d000022450000c3
:1018e8004d4d0000532d00004d650000746500004b
:1018f80072730000222c0000226500006d6d00004c
:10190800735f00006d65000074650000727300006d
:1019180022000000454d00004d5300002043000008
:101928006f6c00006c610000626f00007261000063
:10193800746f000072790000205400006561000097
:101948006d3b000053700000726900006e67000074
:101958002032000030310000393b00005769000098
:101968004669000020560000312e0000323b00007e
:101978004d650000746500007220000023310000ee
:10198800373b0000313700003b500000726f000009
:101998006a65000063740000205300007061000055
:1019a800636500000a0000002b4900005044000055
:1019b8002c0000004349000050530000454e000031
:1019c800443d000000410000542b0000000d0000c1
:1019d8000a000000697000004164000064720000a1
:1019e800006600006c7500007368000000250000a8
:1019f800640000004349000050530000454e0000b9
:0c1a0800443d0000302c000000000000f5
:020000040000fa
:101a14000000fa00e244a90021e2a90030032000fa
:101a24004011880021a2a9002182a9002162a900f5
:101a340001118000f0cf2f000080600000118800a9
:101a440020e2a90020c2a90020a2a9002082a900a6
:101a54002062a9000111800090ff2f000080600027
:101a6400001188002002a90011118000f0f32f005a
:101a7400008060001011880023c2a9002362a9001d
:101a84002342a80011118000f0f32f0000806000b1
:101a94001011880022a2a90021e2a8002342a80074
:101aa400e204a900e224a90031e2a90030032000e5
:101ab400c011880031a2a9003182a9003162a900b5
:101ac40081118000f0cf2f00008060008011880019
:101ad40030e2a90030c2a90030a2a9003082a900d6
:101ae4003062a9008111800090ff2f000080600007
:101af400801188003002a90091118000f0f32f00ba
:101b0400008060009011880033c2a9003362a900ec
:101b14003342a80091118000f0f32f000080600090
:101b24009011880032a2a90031e2a8003342a80033
:101b34000080fa00000006004e00fa0040cf980032
:101b44004ec890000004e00006003200fb68ef007d
:101b5400fa68ef00f769ef00f669ef00882def00ef
:101b6400abff07008f04070020072000a0118800a6
:101b7400406c8000cf80de00420120000300200082
:101b8400820f5000838f58004e023e000060010017
:101b9400140037001a0037002200370028003700ed
:101ba400360037003c0037004a0037005000370049
:101bb4005e00370064003700a9003700b600370024
:101bc400cd003700d3003700e1003700e7003700cd
:101bd400f5003700fb003700090137002101370009
:101be4001802370011c0b300c0ae28004803070034
:101bf400406c80000000e800406c8800310237002f
:101c040001af280050af28009e0307000004e00045
:101c140015023200406c80000000e800406c88002f
:101c24002802370011c0b300b0af28003803070002
:101c3400406c80000000e800406c880021023700fe
:101c440001af280060b028008e0307000004e00004
:101c540003003200406c80000000e800406c880003
:101c640001af280090b02800860307000004e000bc
:101c7400ff013200882def001202370011c0b300bb
:101c8400e0b0280022030700406c80000000e80058
:101c9400406c88000b02370001af280060b02800b8
:101ca400780307000004e00003003200406c800069
:101cb40063004000406c880001af280090b0280009
:101cc400700307000004e000eb013200882def00f0
:101cd400fc01370011c0b300b0b128000c030700a9
:101ce400406c80000000e800406c8800f50137007b
:101cf40001af280060b02800620307000004e00080
:101d040003003200406c80000000e800406c880052
:101d140001af280090b028005a0307000004e00037
:101d2400d7013200882def00e601370011c0b3005f
:101d340010b22800f6020700406c80000000e800a2
:101d4400406c8800df01370001af280060b0280034
:101d54004c0307000004e00003003200406c8000e4
:101d64000000e800406c880001af280090b0280013
:101d7400440307000004e00005003a0001af280016
:101d8400a0b428003f0307000004e0001b00320059
:101d9400506c8000e20f500002003a00882def00e2
:101da400160037008a2def0000202100a107200033
:101db4008e070700606c8000e10f500002003a00bb
:101dc4008c2def0003003700606c80000000e800f9
:101dd400606c8800606c80000000e00002003a0043
:101de40080002000406c8800606c8000e10f50008f
:101df40002003a0040012000406c880001af280036
:101e040000b528001f0307000004e00002003200b0
:101e140020002000506c880001af2800f0b5280095
:101e2400180307000004e000020032001000200044
:101e3400506c880001af280000b52800110307008a
:101e44000004e00090013200506c8000e10f50006b
:101e54008f013a008a2def00882def009901370099
:101e640010c0b300aeecb700420620008000eb00c7
:101e740000bf200051fa0700b02cef0011c0b300de
:101e8400f0b62800a2020700406c80000000e800c1
:101e9400406c88008b01370001af280060b0280037
:101ea400f80207000004e00004003200ae6cef000a
:101eb400406c80000000e800406c880001af2800fe
:101ec40090b02800ef0207000004e0000200320096
:101ed400ae6cef00882def0001af2800a0b42800fd
:101ee400e80207000004e0006b013200ae6cef0072
:101ef400882def007301370011c0b30050b72800dc
:101f040083020700406c80000000e800406c8800f9
:101f14006c01370001af280060b02800d902070027
:101f24000004e00003003200406c80000000e80080
:101f3400406c880001af280090b02800d10207004f
:101f44000004e00056013200882def005d013700e7
:101f540011c0b300e0b728006d020700406c800098
:101f64000000e800406c88005601370001af2800eb
:101f740060b02800c30207000004e0000300320040
:101f8400406c80000000e800406c880001af28002d
:101f940090b02800bb0207000004e00042013200b8
:101fa400882def004701370011c0b300a0b8280006
:101fb40057020700406c80000000e800406c880075
:101fc4004001370001af280060b02800ad020700cf
:101fd4000004e00003003200406c80000000e800d0
:101fe400406c880001af280090b02800a5020700cb
:101ff4000004e0002e013200882def00310137008b
:102004000000eb00000f78000c0037005116800030
:1020140000102000008060000000e00002003a0090
:10202400cd02a80001003700cd02a90000982a00c3
:1020340031002000ed0607001e0fe8001e007800a6
:10204400fd0f5000f1ff3400cd02a800c4e2a90046
:1020540023010700406c80000000e800406c880009
:102064001801370001af280090b928008502070045
:102074000004e0000600320011c0b30030ba2800aa
:102084002302070010002000706c88000c00370049
:1020940001af280060b028007a0207000004e000c5
:1020a40007003200706c8000e10f500004003a0019
:1020b4008040eb0000bb2800150207008e2def00c6
:1020c40001af280000bd28006e0207000004e000f4
:1020d4000500320030002000706c880000bf200032
:1020e4007d0507000c00370001af280060b0280010
:1020f400640207000004e00007003200706c8000f6
:10210400e30f500004003a008040eb0000bf2000c1
:10211400ff0107008e2def00e0c82800e200470011
:1021240049000900b0587800a004b10001af2800ac
:1021340080be2800530207000004e00005003200be
:102144000e80e8006405070020002000706c880001
:102154000c00370001af280060b0280049020700d6
:102164000004e00007003200706c8000e20f5000b1
:1021740004003a000e80e8008040eb00e401070010
:102184008e2def0001af2800f0bf28003d020700ac
:102194000004e0000300320011c0b30050c1280065
:1021a400db01070001af280000c228003502070048
:1021b4000004e0000600320011c0b30060c3280030
:1021c400d301070040002000706c8800190037001c
:1021d40001af280060b028002a0207000004e000d4
:1021e40007003200706c8000e40f500011003a00c8
:1021f4008040eb0020c42800c50107000d00370013
:1022040001af2800a0c428001e0207000004e0005b
:1022140008003200706c8000e40f500005003a00a2
:1022240011c0b30050c12800b90107008e2def0082
:102234000000fe0001af280020c52800110207009d
:102244000004e0001200320050002000706c88008e
:10225400706c8000e50f50000d003a00b2ccbf0056
:102264000004e00005003200b26cef00c4e2a900f3
:10227400cd22a900cd02a8000400370010c0b3008d
:10228400b2ecb700f0042000a01188008e2def00fe
:1022940001af2800f0b52800fa0107000004e000af
:1022a4004a003200cd02a900c0042000a011880019
:1022b40000a82100610020004c060700f006200061
:1022c400a011880000a82100610020004706070033
:1022d40030072000a011880000a821006100200020
:1022e4004206070040072000a011880000a8210032
:1022f400610020003d06070000022000a0118800b4
:1023040000a82100610020003806070030042000e6
:10231400a011880000a821006100200033060700f6
:10232400f0062000a011880000a821006100200010
:102334002e060700e0062000a011880000a8210056
:102344006100200029060700e0062000a011880093
:1023540000a8210061002000240607005006200088
:10236400a011880000a82100610020001f060700ba
:1023740030062000a011880000a821006100200080
:102384001a06070040072000a011880000a82100b9
:10239400610020001506070090062000a0118800a7
:1023a40000a821006100200010060700f0062000ac
:1023b400a011880000a82100610020000b0607007e
:1023c400e0062000a0118800882def00b2ccbf00e9
:1023d4000004e00003003200806c80000000e8008c
:1023e400806c8800816c8000803e200000017800b1
:1023f400110009008200d8008000fd000000e00008
:102404002d003a00b2ccbf000004e0002c003200e2
:102414005116800000102000008060000000e000e1
:1024240004003a00cd02a800cd22a800c4e2a8000e
:1024340024003700cd02a900cd22a900c4e2a900de
:102444002000370000b8280081002000e7050700bd
:1024540011c0b30080c628002d01070090002000a1
:10246400406c88001700370000000000150037009a
:1024740000000000130037000000000011003700c6
:10248400000000000f003700000000000d003700be
:10249400000000000b0037000000000009003700b6
:1024a40000000000070037000000000005003700ae
:1024b40000000000030037000000000001003700a6
:1024c400000000001c0207000004e00002003200cb
:1024d400f769ef00f669ef000080fa0000000600db
:1024e4000800fa000000eb00000f78000000eb0089
:1024f40010079800100207000004e0006500320095
:1025040052002000c18f200080cd2800c3f80700ae
:102514000000e0005d003a0001c9bf004047980098
:102524000040eb0050479800640047005cf8070047
:10253400000f780003c9bf004047980004c9bf00da
:102544008000fb00a0032000808f500005003a00ab
:102554000040eb005047980090c0b300f7e9b70083
:102564000700370004c9bf00504798000040eb0043
:1025740060479800a0c0b300f7e9b700000000006e
:102584006400470046f8070010079800bc2cef00d1
:1025940037003700beccbf000004a2000004e000f6
:1025a4000a003200f7c9bf008080fb00c08f200002
:1025b400008040009040780010c2b30080cf5000eb
:1025c40002003a0010c0b300beecb700beccbf009e
:1025d4000004e00023003200e2658000f7c9bf0078
:1025e4008080fb00c08f2000008040009040780075
:1025f400f0cb20000000410001487800e065800035
:102604000000e800e0658800e1658000700c2000af
:10261400808f500002003400700c2000e0658800b8
:10262400f7c9bf008080fb00c08f200000804000fd
:1026340090407800a0c2b30080cf500009003a0057
:10264400e1658000f0cb2000008040008040eb007a
:1026540001487800be6cef00f0cb20001a0307009d
:10266400bc2cef00f7c9bf000040e800f7e9b70051
:10267400f7c9bf008080fb00c08f200000804000ad
:10268400104078000004e000c2ff3a00f769ef0050
:10269400f669ef000080fa00000006000a01fa0063
:1026a40040079900e0cd2800300798000000eb00b7
:1026b400000f78000000eb001007980012003700ac
:1026c4001e007800be00900000804000904078001a
:1026d400680147001e009000000041000148780096
:1026e4001e0090000000e800100798009e00900073
:1026f400900f2000808f500002003400900f2000c3
:10270400100798001e0fe8001e007800be0090001d
:1027140000804000104078000004e000e8ff3a0028
:10272400e80047001e0090000080400001c3b30091
:10273400014878001e0090000000e800100798008f
:10274400e80047001e00900000804000c1c2b300b2
:10275400014878001e0090000000e800100798006f
:102764000000eb0020079800030037002e009000c3
:102774000000e800200798002e009000ce00910091
:102784000080400090407800a0c2b30080cf500089
:10279400f6ff3a002e0090000000e80020079800a1
:1027a400201020000e004000a2002000ae00900087
:1027b400f4f707000000eb00000f78000c0037006e
:1027c400201020000e0040001e00400090407800c1
:1027d400680147001e009000000041000148780095
:1027e4001e0090000000e800100798001e0fe8008b
:1027f400201020000e0040001e0040001040780011
:102804000004e000eeff3a00e80047001e009000dc
:10281400008040008040eb000148780068004700d9
:1028240011c0b3003a000700fac8bf008080fb0063
:1028340000802000008040008040eb0001487800c8
:10284400fac8bf000040e800fae8b700fac8bf00c1
:10285400e74f40000200360090cfb300fae8b7001b
:102864000000eb00000f780012003700fac8bf0028
:102874000081fb001e007800ce0091000080400023
:10288400904078000080200000004100014878005a
:10289400fac8bf000040e800fae8b700fac8bf0071
:1028a400e74f40000200360090cfb300fae8b700cb
:1028b4001e0fe8001e007800ce009100008040004a
:1028c40090407800a0c2b30080cf5000e7ff3a00e8
:1028d400fac8bf008080fb00008020000080400018
:1028e400a1c2b30001487800fac8bf000040e80064
:1028f400fae8b700fac8bf00e74f4000020036000c
:1029040090cfb300fae8b7000080fa000000060098
:102914000a00fa0030079800014f980070ce280092
:1029240010079800b0ce2800200798000e489000a9
:102934000004e0001b0032000000eb00000f7800f0
:1029440012003700fac8bf000081fb001e007800a7
:102954009e0090000080400090407800008020009d
:102964000000410001487800fac8bf000040e800b8
:10297400fae8b700fac8bf00e74f4000020036008b
:1029840090cfb300fae8b7001e0fe8001e007800ed
:102994009e00900000804000104078000004e00099
:1029a400e8ff3a000000eb00000f78001200370047
:1029b400fac8bf000081fb001e007800be00900032
:1029c400008040009040780000802000000041001a
:1029d40001487800fac8bf000040e800fae8b700f0
:1029e400fac8bf00e74f40000200360090cfb300a2
:1029f400fae8b7001e0fe8001e007800be00900041
:102a040000804000104078000004e000e8ff3a0035
:102a14000000eb00000f780012003700fac8bf0076
:102a24000081fb001e007800ae0090000080400092
:102a340090407800008020000000410001487800a8
:102a4400fac8bf000040e800fae8b700fac8bf00bf
:102a5400e74f40000200360090cfb300fae8b70019
:102a64001e0fe8001e007800ae00900000804000b9
:102a7400104078000004e000e8ff3a000080fa000b
:102a8400000006003c00fa00401f9800511f980007
:102a94000040eb00004f78000040eb0040479800f6
:102aa4000040eb0010479800e0562700c1c62600fe
:102ab40040079800510798000040eb00404f9800f1
:102ac400e0ce2800ed00470006000900b058780069
:102ad4007000b10074004700e256260043772700d7
:102ae4000288be0064004000f2262700b39624004a
:102af4000288be0064004000e2662600f30620005f
:102b04000288be0064004000d0162600311624005e
:102b1400001798001117980040462600210720004e
:102b24002017980031179800800220000e00400002
:102b340032372700934626000288be006400400016
:102b440092e4260063f626000288be00640040007a
:102b54008040eb00014878000000e80050cf2800d6
:102b6400110320008100470005000900b0587800d7
:102b74006000b10068004700de18900020f70700ed
:102b8400300798003e0090000000e0000200320090
:102b940010c0b30010479800670007000004e0006d
:102ba4006200320010c0b300004f780010c0b300c0
:102bb400404798000000eb001007980052003700cf
:102bc4001e009000ce1890000080400090407800d5
:102bd4001e019000c08f20000000410010407800ca
:102be40080cf5000020032000040eb00004f78001c
:102bf4001e4090000004e000400032006d004700d9
:102c0400de189000fef607000000e0000f0032001e
:102c1400000220000e004000de189000f8f60700c5
:102c24000000e0000900320074004700de18900044
:102c3400f3f607000000e0000400320080022000e8
:102c44000e004000de189000edf60700100320008f
:102c54000e004000de189000e9f6070030079800e7
:102c64003e0090000000e00024003a0060042000d0
:102c7400a0118800c0062000a01188005007200081
:102c8400a011880030072000a011880080062000d1
:102c9400a011880050062000a011880040062000e2
:102ca400a0118800f40047001e009000008040003e
:102cb40001c2b30001487800ed0047001e009000f7
:102cc4000080400001c2b3000148780001022000e6
:102cd4008e8040001e0090000080400001c2b300be
:102ce40001487800810220008e8040001e00900080
:102cf4000080400001c2b300014878001e0090002b
:102d04000000e800100798001e009000ce18900004
:102d140000804000104078000004e000030032000e
:102d24001e4078000004e000a5ff3a001e40780031
:102d34000080fa00000006000200fa000040eb00e8
:102d4400004f7800f6c9bf00e14f50001200360072
:102d5400f6c9bf000080fb008080e900c08f20001e
:102d64000080400010407800ed4f50000a003a0007
:102d7400f6c9bf000080fb008000e900c08f20007e
:102d84000080400010407800ea4f500002003a00f2
:102d940010c0b300004f78001e4078000080fa0095
:102da400000006000000fa00030007007700070097
:102db4000080fa00000006000000fa00b18f200035
:102dc40091407800fac8bf0080cf5000150032004f
:102dd4001111800000202000008060000000e0004d
:102de40012003a00fbc8bf008080fb000080200076
:102df40000804000104078000e0007000004e0004e
:102e04000a003200fbc8bf000040e800fbe8b7003e
:102e1400fbc8bf00e74f400004003600fb68ef002a
:102e240002003700fb68ef00fa68ef000080fa0048
:102e3400000006000400fa00204798000040eb0060
:102e4400004f7800b4ccbf000004a2000004e000ee
:102e5400340032002e4090000004e0001b003a00d1
:102e640010c0b300b4ecb700926c8000a36c800077
:102e7400a0f92f00f1ff2f00800f5100818f59001e
:102e840007003e00906c8000a16c80004006b000fa
:102e94000180b000b0658800c16588000800370073
:102ea400906c8000a16c80005006b0000180b000de
:102eb400b0658800c165880010c0b300baecb700e3
:102ec40010c0b300004f78002d00370011118000ae
:102ed40000202000008060000000e00028003a008c
:102ee4002e4090000000fb002011880010c0b300a9
:102ef400004f78002e4090000000fb00a0118800d5
:102f04001116800000082000008060000000e0002e
:102f140002003a00c4e2a80019003700c4e2a90084
:102f240017003700baccbf000004e00008003200ec
:102f3400926c8000a36c8000b0658000c165800045
:102f4400800f5100818f590001003100ba6cef00ed
:102f5400baccbf000004a2000004e0000800320064
:102f6400926c8000a36c8000b0658000c165800015
:102f7400800f5100818f590001003900b46cef00bb
:102f84001e4078000080fa00000006000200fa00eb
:102f94000040eb00004f78000e00e8001a00070024
:102fa4000004e00015003200f6c9bf000081fb00f8
:102fb4009e409000c08f200000004100014878002e
:102fc40010c0b300004f7800f6c9bf000040e8000d
:102fd400f6e9b700f6c9bf00e74f4000010036002c
:102fe400f669ef00f6c9bf008080fb00c08f2000a7
:102ff400008040008040eb00014878001e407800cb
:103004000080fa00000006000400fa00100798008f
:103014000040eb00004f7800101180006100600058
:103024000000e0002300320030118000804078006e
:103034001e0090000148780010c0b300004f7800d3
:103044001e009000104078000000fb00a0118800d2
:10305400aeccbf000004e0000900320082658000ad
:103064001e0090009040780000bf20000000410046
:1030740001487800806580000000e80080658800d1
:103084008165800050062000808f500001003a00c6
:10309400b02cef00111680000008200000806000b2
:1030a4000000e00002003a00c4e2a800010037007a
:1030b400c4e2a9001e4078000080fa000000060067
:1030c4000400fa00204798002e4090000004e0001d
:1030d40053003200f36aef00f26aef00ef6bef0087
:1030e400ee6bef0023010700d0002000a011880040
:1030f40000502300c1002000bc020700300520005e
:10310400a01188000088230011002000b7020700e6
:1031140000052000a0118800008823001100200071
:10312400b202070090042000a01188000088230048
:1031340011002000ad020700d0002000a01188007b
:103144000088230011002000a8020700500420007a
:10315400a01188000088230011002000a3020700aa
:10316400e0062000a0118800008823001100200040
:103174009e02070010062000a0118800008823008a
:10318400110020009902070020062000a0118800e9
:10319400008823001100200094020700c0062000cc
:1031a400a011880000882300110020008f0207006e
:1031b40050062000a0118800008823001100200080
:1031c4008a02070040062000a0118800008823001e
:1031d40011002000850207000000eb00000f7800ba
:1031e4000c00370051168000002020000080600091
:1031f4000000e00002003a00cd22a80001003700e0
:10320400cd22a90000982a0031002000770207008f
:103214001e0fe8001e007800fd0f5000f1ff34007f
:103224005116800000002800008060000000e000cb
:1032340008003200b3ccbf000004a2000004e00088
:103244001200320010c0b300b3ecb70041e2a90091
:103254000e003700b3ccbf000004e00004003200cd
:10326400b36cef00ef6bef00ee6bef0041e2a800f0
:103274005700070007000700440007000004e000af
:1032840002003200ef6bef00ee6bef000080fa00fb
:10329400000006000000fa003c0007000004e00003
:1032a4000700320041af20009140780010c2b30003
:1032b40080cf500002003a0040af2000f7fc070026
:1032c4000080fa00000006000400fa0010079800cd
:1032d4000000eb00000f780012003700f2cabf00b4
:1032e4000081fb001e0078009e00900000804000da
:1032f40090407800809f2000000041000148780041
:10330400f2cabf000040e800f2eab700f2cabf0008
:10331400e74f40000200360090cfb300f2eab70056
:103324001e0fe8001e0078009e0090000080400000
:1033340090407800a0c2b30080cf5000e7ff3a006d
:10334400f2cabf000081fb001e0078009e009000be
:103354000080400090407800809f200000004100e1
:1033640001487800f2cabf000040e800f2eab70062
:10337400f2cabf00e74f40000200360090cfb3000e
:10338400f2eab7000080fa00000006000200fa002a
:103394000040eb00004f7800eecbbf000080fb0044
:1033a4008000e90040af2000008040009040780099
:1033b400a0c2b30080cf500002003a0010c0b30096
:1033c400004f78001e4078000080fa0000000600dc
:1033d4000000fa0003000700320007000080fa0032
:1033e400000006000000fa0031af20009140780090
:1033f400f2cabf0080cf500010003200f3cabf00f1
:103404008080fb00809f20000080400010407800f6
:103414000e0007000004e0000a003200f3cabf00f7
:103424000040e800f3eab700f3cabf00e74f4000ea
:1034340004003600f36aef0002003700f36aef007d
:10344400f26aef000080fa00000006000400fa00af
:10345400204798000040eb00004f780000128000e5
:10346400620060000000e0000b003a002e40900073
:103474000000fb004012880010c0b300004f780029
:1034840000f4210001002000d80107002e40900024
:103494000000fb00a01188001e4078000080fa00a4
:1034a400000006000200fa000040eb00004f780024
:1034b4000e00e8001a0007000004e00015003200c6
:1034c400eecbbf000081fb009e40900040af200087
:1034d400000041000148780010c0b300004f78009c
:1034e400eecbbf000040e800eeebb700eecbbf0030
:1034f400e74f400001003600ee6bef00eecbbf005b
:103504008080fb0040af2000008040008040eb0042
:10351400014878001e4078000080fa000000060090
:103524000400fa00100798000040eb00004f7800f8
:1035340000128000610060000000e0000a00320018
:1035440040128000804078001e00900001487800fe
:1035540010c0b300004f78001e00900010407800a7
:103564000000fb00a01188001e4078000080fa00d3
:10357400000006000000fa00e024ef00e224ef005f
:10358400e384a900c8a2a800c8c2a900c982a800ef
:1035940042a2a9004382a8004362a9004342a900b1
:1035a4004322a9004302a80042e2a80042c2a800a4
:1035b4001112800030fe2f0000806000101288007d
:1035c40045e2a90045c2a90045a2a9004422a900d8
:1035d4004402a90040c2a9004012800040128800a1
:1035e40041e2a8000080fa00000006000800fa008a
:1035f4002007980061479800ae009000010f780002
:10360400ae009000110798000f0037001e007800ec
:10361400904078001e009000014878001e0fe800da
:103624001e009000904078006e40900000c068003a
:103634000080fb000000ea004f00de009e009000c6
:1036440000804000100798001e00780010407800a9
:103654000004e000edff3a001e0090008040eb0003
:10366400014878000080fa00000006000800fa0013
:10367400300798000000eb00000f78001e0078006f
:10368400be009000008040009040780021479800e0
:103694000000eb0020079800090037001e0fe80027
:1036a4001e007800be00900000804000904078002a
:1036b400214798002e0090000000e80020079800a1
:1036c4002e4090000004e000f4ff3a002e00900029
:1036d4000080fa00000006001c00fa00889fbe006b
:1036e400500f98000f0478000f00780080047800d1
:1036f400a1c0b3005e089000bcff0700d1c0b300b6
:103704005e089000b9ff0700b1c2b3005e089000e4
:10371400b6ff0700e1c3b3005e089000b3ff0700e3
:1037240021c2b3005e089000b0ff0700a000200093
:10373400500798006a004700800078005e089000f7
:1037440025f40700e0cf2800ec0047000a00090038
:10375400b0587800b000b1005e089000c3ff0700c5
:1037640010079800770047009e009000811f7800a2
:10377400b1cf2800811f780037f40700e487570091
:10378400c0002000200798002e0090008000e9006f
:10379400310798000000e8000000e8000000d100b4
:1037a400800040000f007800818747000000e80097
:1037b4000000d10000004000400798000000eb002a
:1037c400000f7800140037001e007800e90f500045
:1037d40006003c006c0047001e004000904078004a
:1037e4004e0090001e004000014878001e00780042
:1037f400e90f5000070034009e0078006a805000f2
:1038040000004700f05090004e0090001e00400061
:10381400014878001e0fe8002e0090009e007800fa
:10382400808f5000e8ff35004e00900011c0b300b7
:1038340037fc070089077800880778004f04be002a
:103844000080fa00000006000800fa002007980033
:1038540031079800e3c4a900e3e4a900c902a90060
:10386400c922a900c0e2a900cd02a800009020004e
:10387400d1032000dd000700cd22a8000090200025
:10388400d1032000d9000700c4e2a8000090200062
:10389400d1032000d50007000000eb00000f7800e2
:1038a40010003700511680000010200000806000d6
:1038b4000000e00004003a00cd02a800cd22a800d8
:1038c400c4e2a80003003700cd02a900cd22a9005c
:1038d400c4e2a90000502300c1002000c300070077
:1038e4001e0fe8001e007800e40f5000edff3400c6
:1038f400cd02a900cd22a900c4e2a90062000700fc
:103904000000eb00100798000e003700111680002d
:1039140000082000008060000000e00002003a007f
:10392400c4e2a80001003700c4e2a90000982a00fc
:1039340031002000ad0007001e0090000000e800e8
:10394400100798001e009000fd0f5000efff340098
:1039540010c0b30078f8070010c0b300d8fd07000a
:1039640000202100a1072000a0000700d0002000b3
:10397400a011880000a82100610020009b0007001e
:10398400a0002000a011880000a8210061002000f0
:103994009600070030072000a011880000a821002d
:1039a400610020009100070040072000a01188005a
:1039b40000a82100610020008c00070010062000f0
:1039c400a011880000a821006100200087000700e2
:1039d40020072000a011880000a821006100200019
:1039e4008200070040072000a011880000a82100e1
:1039f400610020007d000700d0002000a011880095
:103a040000a821006100200078000700a000200029
:103a1400a011880000a821006100200073000700a5
:103a240001003700000000000040eb0042f80700ee
:103a340001088000803e2000808f5000f9ff36008e
:103a4400926c8000a36c80000080eb008080eb000f
:103a5400800f5100818f590003003a00922def002e
:103a6400942def0006003700906c8000a16c80005c
:103a740061004000e0804800906c8800a16c8800e0
:103a84000021ef00e8ff37000000fa00e3c4a900ba
:103a9400e3e4a900c9c2a900c9e2a9000200070021
:103aa4000080fa00000006000000fa0005a1a8004a
:103ab40021088000f0cf2f000080600020088800db
:103ac40004c1a9000441a9000421a900210880001f
:103ad400f0fc2f00008060000040a0002008880057
:103ae4000021ef00922def00942def0005e1a800d6
:083af4000080fa00000006004a
:020000040000fa
:103afc00920d00000800000000000000000800000b
:103b0c0092050000000000009a0d00005200000019
:103b1c0002000000303132003334350036373800c3
:103b2c0039414200434445004600300031323300f5
:103b3c0034353600373839006162630064656600dd
:103b4c0000286e00756c6c0029000000010000005c
:103b5c00000a00000000640000000000e803000000
:103b6c00001027000000a0008601000040420f005a
:103b7c000080960098000000e1f5050000ca9a004c
:103b8c003b000000ec0d00002600000002000000cd
:103b9c00130e000000130e000900000000020000cc
:103bac00150e000000150e000e02010000000000b2
:103bbc0000000000000000000602020000000000ef
:103bcc00ec0d0000120e00000600000000000000ca
:103bdc00180e0000020000000200000001000000ae
:043bec0000000000d5
:020000040000fa
:103bf000f03fb1000180b10006003500ee0309007e
:103c000000000000403fb1000180b100fbff3d001b
:103c10001000b000203fb000020035000080090015
:083c2000000000000000060096
:020000040000fa
:0200000401f009
:04000000ffff0000fe
:020000040000fa
:0200000401f009
:04000800ffff0000f6
:020000040000fa
:0200000401f009
:04000c00d9ff000018
:020000040000fa
:0200000401f009
:04001000baff000033
:020000040000fa
:0200000401f009
:040014005fff00008a
:020000040000fa
:0200000401f009
:04001800fcff0000e9
:020000040000fa
:0200000401f009
:04001c00fdff0000e4
:020000040000fa
:0200000401f009
:04002000bfff00001e
:00000001FF
