:020000040000fa
:080000000002040000000000f2
:020000040000fa
:04000800c80200002a
:020000040000fa
:04000c00c802000026
:020000040000fa
:04001000c802000022
:020000040000fa
:04001400c80200001e
:020000040000fa
:04001800c80200001a
:020000040000fa
:04001c00c802000016
:020000040000fa
:04002000c802000012
:020000040000fa
:04002400c80200000e
:020000040000fa
:04002800c80200000a
:020000040000fa
:04002c00c802000006
:020000040000fa
:04003000c802000002
:020000040000fa
:04003400c8020000fe
:020000040000fa
:04003800c8020000fa
:020000040000fa
:04003c00c8020000f6
:020000040000fa
:04004000c8020000f2
:020000040000fa
:04004400c8020000ee
:020000040000fa
:04004800c8020000ea
:020000040000fa
:04004c00c8020000e6
:020000040000fa
:04005000c8020000e2
:020000040000fa
:04005400c8020000de
:020000040000fa
:04005800c8020000da
:020000040000fa
:04005c00c8020000d6
:020000040000fa
:04006000c8020000d2
:020000040000fa
:04006400c8020000ce
:020000040000fa
:04006800c8020000ca
:020000040000fa
:04006c00c8020000c6
:020000040000fa
:04007000c8020000c2
:020000040000fa
:04007400c8020000be
:020000040000fa
:04007800c8020000ba
:020000040000fa
:04007c00c8020000b6
:020000040000fa
:04008000c8020000b2
:020000040000fa
:04008400c8020000ae
:020000040000fa
:04008800c8020000aa
:020000040000fa
:04008c00c8020000a6
:020000040000fa
:04009000c8020000a2
:020000040000fa
:04009400c80200009e
:020000040000fa
:04009800c80200009a
:020000040000fa
:04009c00c802000096
:020000040000fa
:0400a000c802000092
:020000040000fa
:0400a400c80200008e
:020000040000fa
:0400a800c80200008a
:020000040000fa
:0400ac00c802000086
:020000040000fa
:0400b000c802000082
:020000040000fa
:0400b400c80200007e
:020000040000fa
:0400b800c80200007a
:020000040000fa
:0400bc00c802000076
:020000040000fa
:0400c000c802000072
:020000040000fa
:0400c400c80200006e
:020000040000fa
:0400c800c80200006a
:020000040000fa
:0400cc00c802000066
:020000040000fa
:0400d000c802000062
:020000040000fa
:0400d400c80200005e
:020000040000fa
:0400d800c80200005a
:020000040000fa
:0400dc00c802000056
:020000040000fa
:0400e000c802000052
:020000040000fa
:0400e400c80200004e
:020000040000fa
:0400e800c80200004a
:020000040000fa
:0400ec00c802000046
:020000040000fa
:0400f000c802000042
:020000040000fa
:0400f400c80200003e
:020000040000fa
:0400f800c80200003a
:020000040000fa
:0400fc00c802000036
:020000040000fa
:04010000c802000031
:020000040000fa
:04010400c80200002d
:020000040000fa
:04010800c802000029
:020000040000fa
:04010c00c802000025
:020000040000fa
:04011000c802000021
:020000040000fa
:04011400c80200001d
:020000040000fa
:04011800c802000019
:020000040000fa
:04011c00c802000015
:020000040000fa
:04012000c802000011
:020000040000fa
:04012400c80200000d
:020000040000fa
:04012800c802000009
:020000040000fa
:04012c00c802000005
:020000040000fa
:04013000c802000001
:020000040000fa
:04013400c8020000fd
:020000040000fa
:04013800c8020000f9
:020000040000fa
:04013c00c8020000f5
:020000040000fa
:04014000c8020000f1
:020000040000fa
:04014400c8020000ed
:020000040000fa
:04014800c8020000e9
:020000040000fa
:04014c00c8020000e5
:020000040000fa
:04015000c8020000e1
:020000040000fa
:04015400c8020000dd
:020000040000fa
:04015800c8020000d9
:020000040000fa
:04015c00c8020000d5
:020000040000fa
:04016000c8020000d1
:020000040000fa
:04016400c8020000cd
:020000040000fa
:04016800c8020000c9
:020000040000fa
:04020800c802000028
:020000040000fa
:04020c00c802000024
:020000040000fa
:04021000c802000020
:020000040000fa
:04021400c80200001c
:020000040000fa
:04021800c802000018
:020000040000fa
:04021c00c802000014
:020000040000fa
:04022000c802000010
:020000040000fa
:04022400c80200000c
:020000040000fa
:04022800c802000008
:020000040000fa
:04022c00c802000004
:020000040000fa
:04023000c802000000
:020000040000fa
:04023400c8020000fc
:020000040000fa
:04023800c8020000f8
:020000040000fa
:04023c00c8020000f4
:020000040000fa
:04024000c8020000f0
:020000040000fa
:04024400c8020000ec
:020000040000fa
:04024800c8020000e8
:020000040000fa
:04024c00c8020000e4
:020000040000fa
:04025000c8020000e0
:020000040000fa
:04025400c8020000dc
:020000040000fa
:04025800c8020000d8
:020000040000fa
:04025c00c8020000d4
:020000040000fa
:04026000c8020000d0
:020000040000fa
:04026400c8020000cc
:020000040000fa
:04026800c8020000c8
:020000040000fa
:04026c00c8020000c4
:020000040000fa
:04027000c8020000c0
:020000040000fa
:04027400c8020000bc
:020000040000fa
:04027800c8020000b8
:020000040000fa
:04027c00c8020000b4
:020000040000fa
:04028000c8020000b0
:020000040000fa
:04028400c8020000ac
:020000040000fa
:04028800c8020000a8
:020000040000fa
:04028c00c8020000a4
:020000040000fa
:04029000c8020000a0
:020000040000fa
:04029400c80200009c
:020000040000fa
:04029800c802000098
:020000040000fa
:04029c00c802000094
:020000040000fa
:0402a000c802000090
:020000040000fa
:0402a400c80200008c
:020000040000fa
:0402a800c802000088
:020000040000fa
:0402ac00c802000084
:020000040000fa
:0402b000c802000080
:020000040000fa
:0402b400c80200007c
:020000040000fa
:0402b800c802000078
:020000040000fa
:0402bc00c802000074
:020000040000fa
:0402c000c802000070
:020000040000fa
:0402c400c80200006c
:020000040000fa
:0402c800c802000068
:020000040000fa
:0402cc00c802000064
:020000040000fa
:0402d000c802000060
:020000040000fa
:0402d400c80200005c
:020000040000fa
:0402d800c802000058
:020000040000fa
:0402dc00c802000054
:020000040000fa
:0402e000c802000050
:020000040000fa
:0402e400c80200004c
:020000040000fa
:0402e800c802000048
:020000040000fa
:0402ec00c802000044
:020000040000fa
:0402f000c802000040
:020000040000fa
:0402f400c80200003c
:020000040000fa
:0402f800c802000038
:020000040000fa
:0402fc00c802000034
:020000040000fa
:04030000c80200002f
:020000040000fa
:04030400c80200002b
:020000040000fa
:04030800c802000027
:020000040000fa
:04030c00c802000023
:020000040000fa
:04031000c80200001f
:020000040000fa
:04031400c80200001b
:020000040000fa
:04031800c802000017
:020000040000fa
:04031c00c802000013
:020000040000fa
:04032000c80200000f
:020000040000fa
:04032400c80200000b
:020000040000fa
:04032800c802000007
:020000040000fa
:04032c00c802000003
:020000040000fa
:04033000c8020000ff
:020000040000fa
:04033400c8020000fb
:020000040000fa
:04033800c8020000f7
:020000040000fa
:04033c00c8020000f3
:020000040000fa
:04034000c8020000ef
:020000040000fa
:04034400c8020000eb
:020000040000fa
:04034800c8020000e7
:020000040000fa
:04034c00c8020000e3
:020000040000fa
:04035000c8020000df
:020000040000fa
:04035400c8020000db
:020000040000fa
:04035800c8020000d7
:020000040000fa
:04035c00c8020000d3
:020000040000fa
:04036000c8020000cf
:020000040000fa
:04036400c8020000cb
:020000040000fa
:04036800c8020000c7
:020000040000fa
:100400008fe120000eff20000e0188000000000098
:10041000000020000000e000020032000001200087
:1004200020028800140007009d0007000000e00083
:1004300003003a0080ce21000100200002003700b6
:100440000000200001002000810f70000100320038
:1004500014000700000020000000e000020032004d
:100460000000020000000000901b020000000000dd
:100470000040da000000fe004440a90020202000d7
:100480000000e0000300320000002000a00188000e
:100490004440a800000006008a1f78008b1f7800e7
:1004a0000000060091018800800478000000eb0045
:1004b0001a003700e284440032a0b4009905ba0063
:1004c000e284440032a0b4009906ba00e2844400f9
:1004d00032a0b4000006eb00476fde00fd07b2005b
:1004e000636ce10003003a00ebff07000000eb0043
:1004f0000a003700606ce10004003a00005deb0088
:100500008b05e900fdff3e00040037006168e10053
:10051000010032000086eb000b00070019c7ba008b
:100520001905ba000e04e00003003a000a00e000da
:10053000e0ff3a0000000600fe07b2009e018800be
:100540008a047800f5ff3700395dba008b05e900b1
:100550000c003200295dba008b05e900080032006a
:100560000c00e00003003a00e284440032a0b40032
:10057000f5ff370019ddba008b05e900faff3a00f4
:100580008904e800e184440032a0b40000000600c1
:100590000040da000000fe000a00fa00e20f5000fe
:1005a00034003e00b0708000e10f500003003200c4
:1005b000e20f500011003a000c0037000322200027
:1005c0000300e00001003a000040da002002e200ef
:1005d000020035002822ef0021e2a8002342ab00f0
:1005e0000d003a002342a8000b003700032320002f
:1005f0000300e00001003a000040da003002e200af
:10060000020035003822ef0031e2a8003342ab008f
:1006100001003a003342a800820178000b00370045
:100620003102fb00e10f500004003a002322ab002e
:10063000feff3a0024118800030037003322ab008c
:10064000feff3a00a41188008301e9000300e000e6
:10065000f3ff3a00e10f500003003a002302ab0021
:10066000feff32000b0037003302ab00feff32000a
:100670000800370033002000b3bf9f00c0bf9f00b9
:10068000d1bf9f00e2bf9f006a805700ba030700f6
:100690006fb99700020078000080fa0000000600a1
:1006a00000000500800078000100780030417800eb
:1006b00003c2b300834f5100faff3200e94f5100eb
:1006c000f8ff3200edc14100834f510003003a00b2
:1006d0008000780013c0b300050037008041eb00b4
:1006e000b4c2b300844f510001003a00800078008a
:1006f0000000eb00020037006a02b900040041006c
:100700003101fb000203b100e90f5100faff36008e
:100710000304e000010032000000ea0000000600cf
:10072000000378008102780085017800010037001d
:1007300004037800110009008281d800800178004c
:100740000602e8000300e000f9ff3a00034a7800df
:10075000110009008282d8000002780081417800ef
:1007600084027800e9cf510001003400e7c1410064
:1007700001c3b30001d341000400e000f4ff3a00dc
:100780000600780000000600881f7800000478004a
:100790000100e00005003d0008007800d3c2b3006e
:1007a000035878008100ea00010037000800780053
:1007b000dbff0700080078004f0478000000060007
:1007c0008001780002003700815978000201e900b9
:1007d0000200e000fcff3a00000006000001780083
:1007e00082017800030178003204e000fcff3a0047
:1007f00031417800825978000204e000fcff3a00a1
:1008000000000600b041780031c1510002003a00fa
:100810000304e000fbff3a000200fb0000000600ba
:100820000a003700b04178000304e0000300320002
:100830000201e900b1cf5100040032008381fb00c6
:100840001480fb00008051000000060001027800c7
:100850000200e000f3ff3a00000005000c00fa007f
:10086000889fbe0000047800f0ff2700d0bf9f00e3
:100870008004eb0099bf9f0088bf9f00a8bf9f0026
:10088000200c2000b0bf9f0078815700cfb09700a8
:1008900070805700100007000fb8970009487800d3
:1008a0008fb89700088050004f04be000080fa0007
:1008b00000000600d0019000028151004240a900d2
:1008c0000300340010017800014978000208e800b4
:1008d0000100780000000600f6874700889fbe00f0
:1008e0008a9fbe008c9fbe008e1f78000005780096
:1008f000a1b79f00020778008004eb009002370048
:10090000afb097008100e800a1b79f0051c2b300cb
:10091000814f500003003a00afb097000004eb0095
:1009200011003700ba0090000000fb000168a3002e
:100930000700320009017800800078000a00780082
:10094000dcff07000000e00005003a007c023700f1
:100950008a00780086020700e10f4000780232002a
:100960008904e80076023700010078003141780000
:10097000d3c2b300834f51000c00320007003c008b
:10098000edc15100834f51000a003200ebc141001c
:10099000834f51000d003a000800370003c3b30035
:1009a000834f510009003a00060037000830a000cc
:1009b000edff37000800a000ebff37000810a00093
:1009c000e9ff37000820a000e7ff37000818a30060
:1009d000010032000800a1000838a3000100320025
:1009e0000820a1008200fb000103b100e98f500044
:1009f0000c003e00000178008000eb006a08b9009e
:100a0000b201fb000303b1008080410002007800c6
:100a10009201fb000303b100e98f5100f7ff36009c
:100a2000060037008000eb00a3c2b300834f5100e3
:100a300002003a00ce0078000000e8008005eb00dc
:100a4000e2c2b300904f110009003a0008e0a00094
:100a500064415100d04f11000300320000017800c2
:100a60000102780006003700ce0578000000e8009b
:100a700000017800090037006a58b90080854100fc
:100a800002007800b201fb000303b100e98f5100be
:100a9000f9ff360084007800f5ff37003240780017
:100aa000a2b79f00c3c6b300834f50002500320099
:100ab0000f003c0032c6b300824f50008800320065
:100ac00004003c000004e000220232006b415100af
:100ad0000f00370042c6b300824f500017003200ab
:100ae00065414100824f500094003a0013003700e6
:100af00032c7b300824f50001b00320007003c0099
:100b000064415100824f5000100032000241e80061
:100b1000824f500089003a000f00370052c7b300df
:100b2000824f50008a00320063414100824f5000e2
:100b300082003a00e0df9f0009003700e0df9f00fd
:100b4000850037000840a000d4ff3700e0df9f0099
:100b50000860a00080003700e0df9f000850a00080
:100b60000870a0007c003700e0df9f004e00780096
:100b7000000678000000e00001003a00acdb200035
:100b80000c0178000000eb00010037000000e800d5
:100b9000e24178000304e000fcff3a0080067800a0
:100ba0000b00e000030032008d8f55000100310082
:100bb0008b0678008005eb008d8f50000100360019
:100bc0008d855000680464002a003a001100370047
:100bd0003a0090000068a300070032000901780085
:100be000010220000a00780032ff07000000e00048
:100bf00006003a00060037008a0078000002200054
:100c0000db010700e10f4000010032008904e80029
:100c10008b05e9000b00e000edff3a008085eb005a
:100c2000140037003a0090000068a3000900320069
:100c30000c007800b000fb00000678000901780085
:100c40000a0078001bff07000000e00008003a00df
:100c5000080037008c0078003100fb0001067800a6
:100c60008a007800c2010700e10f40000100320055
:100c70008904e8000d0078008006e9000000e0002b
:100c8000e8ff3a000800e000ad0132001100370033
:100c90003a0090000068a3000700320009017800c4
:100ca000010220000a00780002ff07000000e000b7
:100cb00006003a00060037008a0078000002200093
:100cc000ab010700e10f4000010032008904e80099
:100cd0008b05e9000b00e000edff3a0098013700ba
:100ce0004e017800cf91de00c81ade004818dd0002
:100cf0004812de0004027000e4df9f000848a300f1
:100d0000080032000404e00006003200e14f420017
:100d100004003200f4df9f0082e79f002d002000d6
:100d200002003700f2df9f001d002000e2fd2f00cf
:100d30000f0141000206e80099ff3700e0df9f0045
:100d4000ecfd2f000f0646001d00200094ff370029
:100d5000e0df9f00080cb30008017800020cb2002d
:100d6000700064000200e0000d003a000000e000a6
:100d7000020032004e06be00020037004e06780028
:100d8000cfe6de00e00f5600e08f5e000a003d0077
:100d90003800b30060061600e0861e00060037002b
:100da0000000e000020032004e06be0002003700e4
:100db0004e0678008006eb000b00e00005003a00cc
:100dc0008c8576000bf0a7008b05ea008b05e90007
:100dd000cf5dde0088017800030cb200e3b79f000e
:100de00000042000808f51002300320003003c00eb
:100df0000300e000080032002d003700000820004a
:100e00006fb29700800f52000d003200000c2000de
:100e1000800f520026003a0022dc200010c0b300f0
:100e200064014100b20f5600a28f5e001f0039001e
:100e30000040e800ea4f5000f9ff3a001b0037007d
:100e400010c0b3000201200003002000820f5600f2
:100e5000838f5e0015003900441add00cc11de00de
:100e6000830172004411dd000040e800e84f5000ab
:100e7000f6ff3a000d00370010c0b30082002000da
:100e800003002000820f5600838f5e0007003900a8
:100e9000431add00cd11de00830172004311dd0035
:100ea0000040e800eb4f5000f6ff3a00e0df9f0003
:100eb0006fd997000200fb008b0f500002003d002d
:100ec000ebdf9f0003003700808f550001003d00dd
:100ed000800578000100e000030032006300640038
:100ee000010032008100e90008e8a300050032009b
:100ef0008b8f5000020034008b80500001003700bf
:100f00008000eb00efd997000300fb000002eb002c
:100f1000d4b79f00808f5000020034000080500042
:100f2000d0b79f000828a300400032006101640090
:100f30000818a3000f0032003a0090000068a300d8
:100f400006003200b10220000200e0000100320081
:100f50008180e800090178000d003700b002200010
:100f60000200e000010032000080e8008a00780002
:100f70000e0037000200e000100032003a0090003e
:100f80000068a30007003200090178000102200078
:100f90000a00780047fe07000000e00006003a0063
:100fa000060037008a00780000022000f0000700e9
:100fb000e10f4000010032008904e8005fb09700b3
:100fc0000000e0005a003200bcb79f00cdb79f0080
:100fd000800678003a0090000068a3000700320005
:100fe00009017800010320000a00780031fe0700a3
:100ff0000000e00006003a00060037008a00780092
:1010000000032000da000700e10f40000100320079
:101010008904e8008d06e900eeff3a00ddb79f0085
:101020003fb69700cfb6970041003700dfb1970079
:101030000300e0001a0032000838a30018003a004c
:10104000bcb79f00cdb79f00830678003a009000a0
:101050000068a300070032000901780001022000a7
:101060000a00780013fe07000000e00006003a00c6
:10107000060037008a00780000022000bc0007004c
:10108000e10f4000010032008904e8008d06e9000c
:10109000eeff3a00ddb79f003fb69700cfb697004e
:1010a000610164000818a3000f0032003a009000ac
:1010b0000068a30006003200b10220000200e00038
:1010c000010032008180e800090178000d0037003e
:1010d000b00220000200e000010032000080e800c1
:1010e0008a0078000e0037000200e0001000320095
:1010f0003a0090000068a300070032000901780060
:10110000010220000a007800eafd07000000e0006c
:1011100006003a00060037008a007800000220002e
:1011200093000700e10f4000010032008904e8004d
:101130000b03e9006330b90000017800b2b79f00eb
:101140004233dd0020dc2000000343008e017800e4
:1011500093b79f0008077800060478005c0037000a
:101160008b05e900000420006fb29700800f520049
:101170003800320003003c000400e00008003200a8
:101180003e00370000082000efb09700808f50002d
:1011900020003200000c2000808f500037003a0001
:1011a0000e48a300100032001802be000401be0069
:1011b0000c00be00f4b79f0085bf9f00f000070041
:1011c000e0df9f000000fb00cf80de007fb29700d1
:1011d0008fba97000401be00f90007000006560010
:1011e00081865e00070037001801780011000900b1
:1011f0000286d800a2002000110009000280d80059
:10120000e1df9f006fd997000243b000e2df9f004b
:101210001a00370090da20000e58a30001003200b7
:1012200080d9200021dc2000810054000c01be0088
:101230008100e900030033008301d1000281d30063
:10124000fbff3700ef006100e0c07800e1df9f00a6
:101250000a0037000c00be00bfb197008301e9000f
:10126000030033008100d1000080d300fbff370072
:10127000674060000043b000e0df9f00ba009000cc
:101280006fda97000400fb000168a300070032003a
:1012900009017800800078000a00780085fd0700c9
:1012a0000000e00005003a00050037008a007800e1
:1012b0002f000700e10f4000010032008904e80020
:1012c0003fb0970063005000b0b79f006404540023
:1012d0000b00e000a2ff3a000e0478001fb7970051
:1012e0000838a30016003200dfb097000100e000cc
:1012f00013003400010478003a0090000068a30055
:101300000700320009017800010220000a0078007d
:1013100068fd07000000e00006003a000600370004
:101320008a0078000002200011000700e10f400051
:10133000010032008904e8000804e900eeff3a00e9
:101340002fb1970012407800e0df9f000004e0001a
:101350006bfd3a00090078004f0778004f06be0089
:101360004f05be004f04be006f01b1000000060033
:10137000889fbe0001047800b80090008084eb00d4
:101380000118a3003a003200180190000198a30050
:1013900002003a000200e00035003a000190a0008f
:1013a0003104980080047800f90fb2000200e000d8
:1013b00002003a0028009000000c7800ea8f5400e8
:1013c00005003a000178a30003003a008800780085
:1013d000d0002000e6ff070018009000d800900021
:1013e000810f50000b0032000000e800100498004c
:1013f0001800780009487800000ce80011c0b3001c
:1014000000e1200001487800ea8f540018003a00fb
:1014100005003700880078000940780017000700b1
:101420008004780012003700380090000088a30084
:101430000f00320018019000a800900048009000b2
:1014400055fc070098009000810f50000400320006
:10145000380090000003b300300498008084eb0053
:101460000000eb001004980028009000000c7800a9
:10147000090078004f04be00000006000200fa00d8
:10148000889fbe00a0ff9f000104780038009000f4
:101490000068a30033003a00e200600005003a0053
:1014a0000003b30030049800110498000080eb00a2
:1014b0002e003700d80490000900e00006003a0032
:1014c00012002000e68057004800900032fc070020
:1014d0001904980023003700a80090000100e000e4
:1014e00008003a0031e1200021049800010c780046
:1014f0002100200051049800110498000030a00041
:101500003004980018019000a80090004800900056
:1015100021fc0700280090008080eb001104980057
:10152000aff8970001487800000ce8002ff897000a
:10153000ea4f50000b003a00380090000088a300ea
:101540000800320018019000a800900048009000a8
:1015500011fc07000000eb0010049800a8009000a8
:10156000010c7800aff897000100fb004f04be00ab
:101570000080fa000000060000c0da00000006004b
:101580006022b800060220000000d0008180d20056
:101590000482d2008582d2000000a0000202520024
:1015a00083825a00030031000202420083824a0013
:1015b0000000a1000603e900f3ff3a000000060066
:1015c000020ab900001bb9000200b8008100420005
:0815d000810043000000060049
:020000040000fa
:1015d80052530000540000006e7500006c6c00004f
:1015e800007200006561000064790000005200008c
:1015f800465000004f570000455200003d3800009b
:10160800320000004f4b0000004600004149000036
:101618004c000000435700004d4f000044450000b7
:101628005f430000555200003d31000000430000b8
:10163800574c00004150000000430000574a00008a
:10164800415000005f430000555200003d22000059
:10165800454d00004d5300002d5a0000696d0000f3
:101668003230000031390000222c000022650000d1
:101678006d6d0000732d00006d6100006861000051
:10168800646100006761000022000000455200000c
:10169800524f000052000000574900004649000020
:1016a800204300004f4e00004e4500004354000008
:1016b800454400000057000049460000492000004a
:1016c80044490000534300004f4e00004e450000bf
:1016d80043540000004300004946000053520000f4
:1016e80000430000495000004d550000583d0000df
:1016f80031000000434900005053000045520000eb
:1017080056450000523d00003000000043490000eb
:10171800505300004552000056450000523d00005d
:10172800312c000038300000003000002c4300004d
:101738004f4e00004e450000435400000043000097
:1017480049500000534500004e4400003d30000061
:101758002c330000310000004d45000053530000b9
:101768004941000048200000434f00004c4c000055
:101778004547000045200000434f00004c4c000046
:10178800414200004f520000415400004f520000f7
:10179800590a00000d0000002b49000050440000c9
:1017a8002c3000002c310000353a0000214d00009b
:1017b8004f4400003b4e000045540000574f0000c6
:1017c800524b00002a00000025640000002b000096
:1017d80049500000442c0000302c00003134000037
:1017e8003a2100004d4f0000443b0000434f0000e9
:1017f8004e460000494700002a0000004349000007
:1018080050530000454e0000443d0000302c0000bd
:1018180035370000004500004d4d00005320000002
:10182800436f00006c6c0000616200006f72000082
:10183800617400006f720000792000005465000098
:10184800616d00003b53000070720000696e00007b
:101858006720000032300000313900003b5700009b
:101868006946000069200000563100002e31000052
:101878003b4d0000657400006572000020230000e5
:10188800330a0000002b000049500000442c0000df
:10189800302c0000313100003a2100004d4f00008b
:1018a800443b0000434c00004f530000452a000011
:1018b8000043000049500000434c00004f53000013
:1018c800453d0000300000002b4900005044000056
:1018d8002c3000002c310000313a0000214d00006e
:1018e8004f4400003b52000045530000455400009f
:1018f8002a0000004349000050530000454e0000f4
:10190800443d0000302c0000370000004279000000
:101918006520000042790000650000005345000082
:101928004e440000204f00004b00000043570000c9
:101938004a410000505f000043550000523d00003e
:10194800224500004d4d0000532d00004d6500005c
:101958007465000072730000222c000022650000ec
:101968006d6d0000735f00006d6500007465000018
:101978007273000022000000434900005053000029
:10198800454e0000443d0000302c0000002b0000b4
:1019980049500000442c000000430000495000005a
:1019a800534500004e4400003d0000004154000033
:1019b8002b0000000d0a00000069000070410000c3
:1019c8006464000072000000666c0000757300001b
:0419d80068000000a3
:020000040000fa
:1019dc000000fa00e244a90021e2a9003003200033
:1019ec004011880021a2a9002182a9002162a9002e
:1019fc0001118000f0cf2f000080600000118800e2
:101a0c0020e2a90020c2a90020a2a9002082a900de
:101a1c002062a9000111800090ff2f00008060005f
:101a2c00001188002002a90011118000f0f32f0092
:101a3c00008060001011880023c2a9002362a90055
:101a4c002342a80011118000f0f32f0000806000e9
:101a5c001011880022a2a90021e2a8002342a800ac
:101a6c00e204a900e224a90031e2a900300320001d
:101a7c00c011880031a2a9003182a9003162a900ed
:101a8c0081118000f0cf2f00008060008011880051
:101a9c0030e2a90030c2a90030a2a9003082a9000e
:101aac003062a9008111800090ff2f00008060003f
:101abc00801188003002a90091118000f0f32f00f2
:101acc00008060009011880033c2a9003362a90025
:101adc003342a80091118000f0f32f0000806000c9
:101aec009011880032a2a90031e2a8003342a8006c
:101afc000080fa00000006002600fa00889fbe0055
:101b0c00406798000f0478004e6090000004e000dd
:101b1c0006003200fb68ef00fa68ef00f769ef008f
:101b2c00f669ef00882def00a9ff0700ae0407004f
:101b3c00406c8000cf80de004201200003002000ba
:101b4c00820f5000838f58006d023e000060010030
:101b5c00140037001a003700220037002800370025
:101b6c00360037003c0037004a0037005000370081
:101b7c005e00370064003700a9003700b60037005c
:101b8c00cd003700d3003700e1003700e700370005
:101b9c00f5003700fb003700090137002101370041
:101bac003902370011c0b300c0ae2800690307002a
:101bbc00406c80000000e800406c88005002370048
:101bcc0001af280050af2800bf0307000004e0005d
:101bdc0036023200406c80000000e800406c880047
:101bec004702370011c0b300b0af280059030700fb
:101bfc00406c80000000e800406c88004002370018
:101c0c0001af280060b02800af0307000004e0001b
:101c1c0003003200406c80000000e800406c88003b
:101c2c0001af280090b02800a70307000004e000d3
:101c3c0020023200882def003102370011c0b300b2
:101c4c00e0b0280043030700406c80000000e8006f
:101c5c00406c88002a02370001af280060b02800d1
:101c6c00990307000004e00003003200406c800080
:101c7c000000e800406c880001af280090b02800fc
:101c8c00910307000004e0000c023200882def00e5
:101c9c001b02370011c0b300b0b128002d030700a0
:101cac00406c80000000e800406c88001402370093
:101cbc0001af280060b02800830307000004e00097
:101ccc0003003200406c80000000e800406c88008b
:101cdc0001af280090b028007b0307000004e0004f
:101cec00f8013200882def000502370011c0b30057
:101cfc0010b2280017030700406c80000000e800b9
:101d0c00406c8800fe01370001af280060b028004d
:101d1c006d0307000004e00003003200406c8000fb
:101d2c000000e800406c880001af280090b028004b
:101d3c00650307000004e00005003a0001af28002d
:101d4c00a0b42800600307000004e0001b00320070
:101d5c00506c8000e20f500002003a00882def001a
:101d6c00160037008a2def0000202100a10720006b
:101d7c0051070700606c8000e10f500002003a0030
:101d8c008c2def0003003700606c80000000e80031
:101d9c00606c8800606c80000000e00002003a007b
:101dac0080002000406c8800606c8000e10f5000c7
:101dbc0002003a0040012000406c880001af28006e
:101dcc0000b52800400307000004e00002003200c8
:101ddc0020002000506c880001af2800f0b52800ce
:101dec00390307000004e00002003200100020005c
:101dfc00506c880001af280000b5280032030700a2
:101e0c000004e000b1013200506c8000e10f500082
:101e1c00b0013a008a2def00882def00b801370091
:101e2c0010c0b300aeecb700420620008000eb00ff
:101e3c0000bf20005ffa0700b02cef0011c0b30008
:101e4c00f0b62800c3020700406c80000000e800d8
:101e5c00406c8800aa01370001af280060b0280050
:101e6c00190307000004e00004003200ae6cef0020
:101e7c00406c80000000e800406c880001af280036
:101e8c0090b02800100307000004e00002003200ac
:101e9c00ae6cef00882def0001af2800a0b4280035
:101eac00090307000004e0008c013200ae6cef0067
:101ebc00882def009201370011c0b30050b72800f5
:101ecc00a4020700406c80000000e800406c880011
:101edc008b01370001af280060b02800fa02070020
:101eec000004e00003003200406c80000000e800b9
:101efc00406c880001af280090b02800f202070067
:101f0c000004e00077013200882def007c013700df
:101f1c0011c0b300e0b728008e020700406c8000af
:101f2c000000e800406c88007501370001af280004
:101f3c0060b02800e40207000004e0000300320057
:101f4c00406c80000000e800406c880001af280065
:101f5c0090b02800dc0207000004e00063013200ae
:101f6c00882def006601370011c0b300a0b828001f
:101f7c0078020700406c80000000e800406c88008c
:101f8c005f01370001af280060b02800ce020700c7
:101f9c000004e00003003200406c80000000e80008
:101fac00406c880001af280090b02800c6020700e2
:101fbc000004e0004f013200882def005001370083
:101fcc000000eb00000f78000c0037005116800069
:101fdc0000102000008060000000e00002003a00c9
:101fec00cd02a80001003700cd02a90000982a00fc
:101ffc0031002000b00607001e0fe8001e0078001c
:10200c00fd0f5000f1ff3400cd02a800c4e2a9007e
:10201c0044010700406c80000000e800406c880020
:10202c003701370001af280090b92800a60207003d
:10203c000004e0000600320011c0b30030ba2800e2
:10204c004402070010002000706c88000c00370060
:10205c0001af280060b028009b0207000004e000dc
:10206c0007003200706c8000e10f500004003a0051
:10207c008040eb0000bb2800360207008e2def00dd
:10208c0001af280000bd28008f0207000004e0000b
:10209c005e0032000f00780080047800a1c0b3000d
:1020ac0000bf200062050700d1c0b30000bf2000b4
:1020bc005f050700b1c2b30000bf20005c0507003c
:1020cc00e1c3b30000bf20005905070021c2b300d3
:1020dc0000bf200056050700a000200060079800f4
:1020ec006c0047008000780000bf2000b8f90700a2
:1020fc0000cc2800ee0047000a000900b058780018
:10210c00b000b10000bf200069050700200798004f
:10211c0079004700ae009000811f780081be280036
:10212c00811f7800caf90700e4875700790047003f
:10213c005f0507006a004000300798003e009000e1
:10214c008000e900410798000000e8000000e8006a
:10215c000000d100800040000f007800818747000c
:10216c000000e8000000d10000004000500798007b
:10217c000000eb0010079800190037001e009000bb
:10218c00e90f500008003c00ee0047001e009000d4
:10219c0000804000904078005e0190001e0090008e
:1021ac0000004100014878001e009000e90f50002b
:1021bc00080034001e0090006a0050000000470028
:1021cc00905890005e0190001e00900000004100ad
:1021dc00014878001e0090000000e80010079800ed
:1021ec009e0090003e009000808f5000e3ff350071
:1021fc005e00900011c0b300d60107003000200033
:10220c00706c8800890778000c00370001af28003b
:10221c0060b028002c0207000004e0000700320028
:10222c00706c8000e30f500004003a008040eb001b
:10223c0000bf2000c70107008e2def0001af280062
:10224c00b0be2800200207000004e00006003200a7
:10225c0011c0b30020c02800be01070020002000e0
:10226c00706c88000c00370001af280060b02800ab
:10227c00150207000004e00007003200706c8000bb
:10228c00e20f500004003a008040eb00f0c0280040
:10229c00b00107008e2def0001af280070c428009c
:1022ac00090207000004e0000300320011c0b30073
:1022bc00d0c52800a701070001af280080c6280060
:1022cc00010207000004e0000600320011c0b30058
:1022dc00e0c728009f01070040002000706c8800b8
:1022ec001900370001af280060b02800f601070084
:1022fc000004e00007003200706c8000e40f500016
:10230c0011003a008040eb00a0c8280091010700a2
:10231c000d00370001af280020c92800ea01070092
:10232c000004e00008003200706c8000e40f5000e4
:10233c0005003a0011c0b300d0c528008501070084
:10234c008e2def000000fe0001af2800f0b5280034
:10235c00dd0107000004e00068003200cd02a90096
:10236c00c0042000a011880000a8210061002000fa
:10237c00d1050700f0062000a011880000a821005c
:10238c0061002000cc05070030072000a011880058
:10239c0000a8210061002000c705070040072000ad
:1023ac00a011880000a8210061002000c2050700d0
:1023bc0000022000a011880000a82100610020006c
:1023cc00bd05070030042000a011880000a82100e2
:1023dc0061002000b8050700f0062000a01188005d
:1023ec0000a8210061002000b3050700e0062000d2
:1023fc00a011880000a8210061002000ae05070094
:10240c00e0062000a011880000a821006100200037
:10241c00a905070050062000a011880000a8210083
:10242c0061002000a405070030062000a0118800e0
:10243c0000a82100610020009f0507004007200034
:10244c00a011880000a82100610020009a05070057
:10245c0090062000a011880000a821006100200037
:10246c0095050700f0062000a011880000a82100a7
:10247c006100200090050700e0062000a0118800f4
:10248c00882def001e00370000b8280081002000c6
:10249c008905070011c0b300a0c928002d01070051
:1024ac0090002000406c88001500370000000000f0
:1024bc00130037000000000011003700000000007e
:1024cc000f003700000000000d0037000000000076
:1024dc000b0037000000000009003700000000006e
:1024ec000700370000000000050037000000000066
:1024fc00030037000000000001003700000000005e
:10250c001e0207000004e00002003200f769ef0031
:10251c00f669ef00880778004f04be000080fa00cf
:10252c00000006000800fa000000eb00000f780025
:10253c000000eb0010079800100207000004e000f8
:10254c006500320052002000c18f2000b0cc280062
:10255c00b0f807000000e0005d003a0001c9bf00c0
:10256c00404798000040eb0050479800640047003b
:10257c0049f80700000f780003c9bf0040479800d6
:10258c0004c9bf008000fb00a0032000808f500016
:10259c0005003a000040eb005047980090c0b30093
:1025ac00f7e9b7000700370004c9bf00504798008f
:1025bc000040eb0060479800a0c0b300f7e9b700fb
:1025cc00000000006400470033f807001007980073
:1025dc00bc2cef0037003700beccbf000004a200bb
:1025ec000004e0000a003200f7c9bf008080fb0045
:1025fc00c08f2000008040009040780010c2b300d3
:10260c0080cf500002003a0010c0b300beecb700ff
:10261c00beccbf000004e00023003200e265800065
:10262c00f7c9bf008080fb00c08f200000804000f5
:10263c0090407800f0cb2000000041000148780069
:10264c00e06580000000e800e0658800e16580003e
:10265c00700c2000808f500002003400700c2000a1
:10266c00e0658800f7c9bf008080fb00c08f2000a8
:10267c000080400090407800a0c2b30080cf500092
:10268c0009003a00e1658000f0cb2000008040009a
:10269c008040eb0001487800be6cef00f0cb2000ce
:1026ac001a030700bc2cef00f7c9bf000040e8007c
:1026bc00f7e9b700f7c9bf008080fb00c08f20008e
:1026cc0000804000104078000004e000c2ff3a0097
:1026dc00f769ef00f669ef000080fa0000000600d1
:1026ec000a01fa004007990010cd28003007980025
:1026fc000000eb00000f78000000eb0010079800c2
:10270c00120037001e007800be00900000804000d0
:10271c0090407800680147001e00900000004100c6
:10272c00014878001e0090000000e8001007980097
:10273c009e009000900f2000808f5000020034000b
:10274c00900f2000100798001e0fe8001e00780064
:10275c00be00900000804000104078000004e000b3
:10276c00e8ff3a00e80047001e009000008040009f
:10277c0001c3b300014878001e0090000000e8007f
:10278c0010079800e80047001e00900000804000f1
:10279c00c1c2b300014878001e0090000000e800a0
:1027ac00100798000000eb0020079800030037008a
:1027bc002e0090000000e800200798002e009000ea
:1027cc00ce0091000080400090407800a0c2b30081
:1027dc0080cf5000f6ff3a002e0090000000e80079
:1027ec0020079800201020000e004000a2002000be
:1027fc00ae009000e1f707000000eb00000f78003e
:10280c000c003700201020000e0040001e0040007d
:10281c0090407800680147001e00900000004100c5
:10282c00014878001e0090000000e8001007980096
:10283c001e0fe800201020000e0040001e0040007b
:10284c00104078000004e000eeff3a00e80047007a
:10285c001e009000008040008040eb000148780092
:10286c006800470011c0b3003a000700fac8bf0067
:10287c008080fb0000802000008040008040eb0046
:10288c0001487800fac8bf000040e800fae8b70039
:10289c00fac8bf00e74f40000200360090cfb300eb
:1028ac00fae8b7000000eb00000f780012003700c8
:1028bc00fac8bf000081fb001e007800ce0091001a
:1028cc000080400090407800008020000000410013
:1028dc0001487800fac8bf000040e800fae8b700e9
:1028ec00fac8bf00e74f40000200360090cfb3009b
:1028fc00fae8b7001e0fe8001e007800ce00910029
:10290c000080400090407800a0c2b30080cf5000ff
:10291c00e7ff3a00fac8bf008080fb00008020006f
:10292c0000804000a1c2b30001487800fac8bf0083
:10293c000040e800fae8b700fac8bf00e74f4000d3
:10294c000200360090cfb300fae8b7000080fa001e
:10295c00000006000a00fa0030079800014f9800aa
:10296c00a0cd280010079800e0cd28002007980083
:10297c000e4890000004e0001b0032000000eb0049
:10298c00000f780012003700fac8bf000081fb006e
:10299c001e0078009e00900000804000904078005f
:1029ac00008020000000410001487800fac8bf00f8
:1029bc000040e800fae8b700fac8bf00e74f400053
:1029cc000200360090cfb300fae8b7001e0fe80003
:1029dc001e0078009e00900000804000104078009f
:1029ec000004e000e8ff3a000000eb00000f780064
:1029fc0012003700fac8bf000081fb001e007800ef
:102a0c00be009000008040009040780000802000c4
:102a1c000000410001487800fac8bf000040e800ff
:102a2c00fae8b700fac8bf00e74f400002003600d2
:102a3c0090cfb300fae8b7001e0fe8001e00780034
:102a4c00be00900000804000104078000004e000c0
:102a5c00e8ff3a000000eb00000f7800120037008e
:102a6c00fac8bf000081fb001e007800ae00900089
:102a7c000080400090407800008020000000410061
:102a8c0001487800fac8bf000040e800fae8b70037
:102a9c00fac8bf00e74f40000200360090cfb300e9
:102aac00fae8b7001e0fe8001e007800ae00900098
:102abc0000804000104078000004e000e8ff3a007d
:102acc000080fa00000006003c00fa00401f98004d
:102adc00511f98000040eb00004f78000040eb00c5
:102aec00404798000040eb0010479800e056270044
:102afc00c1c6260040079800510798000040eb0023
:102b0c00404f980010ce2800ed0047000600090049
:102b1c00b05878007000b10074004700e2562600ef
:102b2c00437727000288be0064004000f22627008d
:102b3c00b39624000288be0064004000e2662600c2
:102b4c00f30620000288be0064004000d016260068
:102b5c0031162400001798001117980040462600e3
:102b6c0021072000201798003117980080022000c0
:102b7c000e00400032372700934626000288be0024
:102b8c006400400092e4260063f626000288be0032
:102b9c00640040008040eb00014878000000e80031
:102bac0080ce280011032000810047000500090099
:102bbc00b05878006000b10068004700de18900043
:102bcc000df70700300798003e0090000000e00071
:102bdc000200320010c0b3001047980067000700d5
:102bec000004e0006200320010c0b300004f780017
:102bfc0010c0b300404798000000eb00100798008d
:102c0c00520037001e009000ce189000008040004b
:102c1c00904078001e019000c08f20000000410001
:102c2c001040780080cf5000020032000040eb00d2
:102c3c00004f78001e4090000004e000400032007d
:102c4c006d004700de189000ebf607000000e00076
:102c5c000f003200000220000e004000de18900031
:102c6c00e5f607000000e0000900320074004700a0
:102c7c00de189000e0f607000000e00004003200cf
:102c8c00800220000e004000de189000daf60700eb
:102c9c00100320000e004000de189000d6f607004e
:102cac00300798003e0090000000e00024003a003d
:102cbc0060042000a0118800c0062000a01188002c
:102ccc0050072000a011880030072000a0118800b8
:102cdc0080062000a011880050062000a01188005a
:102cec0040062000a0118800f40047001e00900050
:102cfc000080400001c2b30001487800ed0047009d
:102d0c001e0090000080400001c2b3000148780012
:102d1c00010220008e8040001e00900000804000c8
:102d2c0001c2b30001487800810220008e8040006f
:102d3c001e0090000080400001c2b30001487800e2
:102d4c001e0090000000e800100798001e00900084
:102d5c00ce18900000804000104078000004e00085
:102d6c00030032001e4078000004e000a5ff3a008a
:102d7c001e4078000080fa00000006000200fa00f5
:102d8c000040eb00004f7800f6c9bf00e14f500047
:102d9c0012003600f6c9bf000080fb008080e900fd
:102dac00c08f20000080400010407800ed4f500094
:102dbc000a003a00f6c9bf000080fb008000e90061
:102dcc00c08f20000080400010407800ea4f500077
:102ddc0002003a0010c0b300004f78001e4078008b
:102dec000080fa00000006000000fa000300070053
:102dfc00770007000080fa00000006000000fa00cf
:102e0c00b18f200091407800fac8bf0080cf5000ed
:102e1c00150032001111800000202000008060009d
:102e2c000000e00012003a00fbc8bf008080fb00ed
:102e3c000080200000804000104078000e00070049
:102e4c000004e0000a003200fbc8bf000040e800ac
:102e5c00fbe8b700fbc8bf00e74f4000040036009a
:102e6c00fb68ef0002003700fb68ef00fa68ef0028
:102e7c000080fa00000006000400fa0020479800c9
:102e8c000040eb00004f7800b5ccbf000004a2005e
:102e9c000004e000340032002e4090000004e000fa
:102eac001b003a0010c0b300b5ecb700826c800078
:102ebc00936c8000a0f92f00f1ff2f00800f5100c0
:102ecc00818f590007003e00806c8000916c80005f
:102edc004006b0000180b000b0658800c165880074
:102eec0008003700806c8000916c80005006b000a8
:102efc000180b000b0658800c165880010c0b300c7
:102f0c00baecb70010c0b300004f78002d003700aa
:102f1c001111800000202000008060000000e00003
:102f2c0028003a002e4090000000fb002011880081
:102f3c0010c0b300004f78002e4090000000fb0042
:102f4c00a01188001116800000082000008060008d
:102f5c000000e00002003a00c4e2a80019003700ab
:102f6c00c4e2a90017003700baccbf000004e0008f
:102f7c0008003200826c8000936c8000b065800089
:102f8c00c1658000800f5100818f59000100310014
:102f9c00ba6cef00baccbf000004a2000004e00041
:102fac0008003200826c8000936c8000b065800059
:102fbc00c1658000800f5100818f590001003900dc
:102fcc00b56cef001e4078000080fa00000006008f
:102fdc000200fa000040eb00004f78000e00e80001
:102fec001a0007000004e00015003200f6c9bf000b
:102ffc000081fb009e409000c08f2000000041002b
:10300c000148780010c0b300004f7800f6c9bf002b
:10301c000040e800f6e9b700f6c9bf00e74f4000f2
:10302c0001003600f669ef00f6c9bf008080fb0096
:10303c00c08f2000008040008040eb0001487800e9
:10304c001e4078000080fa00000006000400fa0020
:10305c00100798000040eb00004f78001011800022
:10306c00610060000000e00023003200301180009d
:10307c00804078001e0090000148780010c0b3001a
:10308c00004f78001e009000104078000000fb00fc
:10309c00a0118800aeccbf000004e0000900320093
:1030ac00826580001e0090009040780000bf2000d8
:1030bc000000410001487800806580000000e800b5
:1030cc00806588008165800050062000808f50004c
:1030dc0001003a00b02cef0011168000000820000f
:1030ec00008060000000e00002003a00c4e2a8008a
:1030fc0001003700c4e2a9001e4078000080fa00ed
:10310c00000006000400fa00204798002e409000b2
:10311c000004e00053003200f36aef00f26aef00a3
:10312c00ef6bef00ee6bef0023010700d0002000e7
:10313c00a011880000502300c10020005e0207008f
:10314c0030052000a0118800008823001100200009
:10315c005902070000052000a011880000882300f8
:10316c00110020005402070090042000a0118800d8
:10317c0000882300110020004f020700d00020001f
:10318c00a011880000882300110020004a020700cb
:10319c0050042000a011880000882300110020009a
:1031ac0045020700e0062000a011880000882300db
:1031bc00110020004002070010062000a01188001a
:1031cc0000882300110020003b020700200620008d
:1031dc00a01188000088230011002000360207008f
:1031ec00c0062000a01188000088230011002000d8
:1031fc003102070050062000a0118800008823002f
:10320c00110020002c02070040062000a0118800ad
:10321c000088230011002000270207000000eb00ab
:10322c00000f78000c0037005116800000202000a1
:10323c00008060000000e00002003a00cd22a800ef
:10324c0001003700cd22a90000982a00310020008f
:10325c00190207001e0fe8001e007800fd0f500039
:10326c00f1ff34005116800000002800008060003f
:10327c000000e00008003200b4ccbf000004a20043
:10328c000004e0001200320010c0b300b4ecb70030
:10329c0041e2a9000e003700b4ccbf000004e000ee
:1032ac0004003200b46cef00ef6bef00ee6bef003c
:1032bc0041e2a80057000700070007004400070080
:1032cc000004e00002003200ef6bef00ee6bef0049
:1032dc000080fa00000006000000fa003c00070025
:1032ec000004e0000700320041af2000914078005c
:1032fc0010c2b30080cf500002003a0040af200053
:10330c00f7fc07000080fa00000006000400fa0039
:10331c00100798000000eb00000f78001200370037
:10332c00f2cabf000081fb001e0078009e009000d6
:10333c000080400090407800809f200000004100f9
:10334c0001487800f2cabf000040e800f2eab7007a
:10335c00f2cabf00e74f40000200360090cfb30026
:10336c00f2eab7001e0fe8001e0078009e009000e5
:10337c000080400090407800a0c2b30080cf500085
:10338c00e7ff3a00f2cabf000081fb001e00780084
:10339c009e0090000080400090407800809f2000ac
:1033ac000000410001487800f2cabf000040e8006c
:1033bc00f2eab700f2cabf00e74f40000200360045
:1033cc0090cfb300f2eab7000080fa0000000600cc
:1033dc000200fa000040eb00004f7800eecbbf007b
:1033ec000080fb008000e90040af2000008040001e
:1033fc0090407800a0c2b30080cf500002003a0089
:10340c0010c0b300004f78001e4078000080fa0016
:10341c00000006000000fa0003000700320007005d
:10342c000080fa00000006000000fa0031af200016
:10343c0091407800f2cabf0080cf500010003200db
:10344c00f3cabf008080fb00809f200000804000fa
:10345c00104078000e0007000004e0000a00320063
:10346c00f3cabf000040e800f3eab700f3cabf009c
:10347c00e74f400004003600f36aef00020037000b
:10348c00f36aef00f26aef000080fa000000060019
:10349c000400fa00204798000040eb00004f780031
:1034ac0000128000620060000000e0000b003a0097
:1034bc002e4090000000fb004012880010c0b300aa
:1034cc00004f780000f42100010020007a01070071
:1034dc002e4090000000fb00a01188001e407800d8
:1034ec000080fa00000006000200fa000040eb0029
:1034fc00004f78000e00e8001a0007000004e000fe
:10350c0015003200eecbbf000081fb009e40900006
:10351c0040af2000000041000148780010c0b3000b
:10352c00004f7800eecbbf000040e800eeebb70098
:10353c00eecbbf00e74f400001003600ee6bef0012
:10354c00eecbbf008080fb0040af2000008040002d
:10355c008040eb00014878001e4078000080fa00a3
:10356c00000006000400fa00100798000040eb0071
:10357c00004f780000128000610060000000e00045
:10358c000a00320040128000804078001e0090003b
:10359c000148780010c0b300004f78001e00900066
:1035ac00104078000000fb00a01188001e4078003d
:1035bc000080fa00000006000000fa00e024ef0092
:1035cc00e224ef00e384a900c8a2a800c8c2a900a5
:1035dc00c982a80042a2a9004382a8004362a900a4
:1035ec004342a9004322a9004302a80042e2a800da
:1035fc0042c2a8001112800030fe2f000080600033
:10360c001012880045e2a90045c2a90045a2a900f4
:10361c004422a9004402a90040c2a9004012800023
:10362c004012880041e2a8000080fa000000060069
:10363c000800fa002007980061479800ae0090003f
:10364c00010f7800ae009000110798000f003700b2
:10365c001e007800904078001e0090000148780011
:10366c001e0fe8001e009000904078006e40900005
:10367c0000c068000080fb000000ea004f00de0084
:10368c009e00900000804000100798001e007800fb
:10369c00104078000004e000edff3a001e0090009e
:1036ac008040eb00014878000080fa000000060022
:1036bc000600fa002007980090658000ae0090008c
:1036cc0000804000104f78000000eb0010079800bd
:1036dc000a003700906580000000e80090658800c3
:1036ec0090658000ae00900000804000104f780084
:1036fc001e0090000000e800100798001e407800a3
:10370c000004e000f3ff3a001e0090000080fa0075
:10371c00000006000800fa00200798003107980006
:10372c00e3c4a900e3e4a900c902a900c922a900c5
:10373c00c0e2a900cd02a80000902000d103200017
:10374c00dd000700cd22a80000902000d10320004e
:10375c00d9000700c4e2a80000902000d10320008b
:10376c00d50007000000eb00000f780010003700b8
:10377c005116800000102000008060000000e00066
:10378c0004003a00cd02a800cd22a800c4e2a80093
:10379c0003003700cd02a900cd22a900c4e2a90084
:1037ac0000502300c1002000c30007001e0fe800da
:1037bc001e007800e40f5000edff3400cd02a9008c
:1037cc00cd22a900c4e2a900620007000000eb00b2
:1037dc00100798000e00370011168000000820001a
:1037ec00008060000000e00002003a00c4e2a80083
:1037fc0001003700c4e2a90000982a003100200023
:10380c00ad0007001e0090000000e80010079800b3
:10381c001e009000fd0f5000efff340010c0b300ed
:10382c00b5f8070010c0b30036fe070000202100d9
:10383c00a1072000a0000700d0002000a0118800e4
:10384c0000a82100610020009b000700a0002000c0
:10385c00a011880000a8210061002000960007003c
:10386c0030072000a011880000a821006100200072
:10387c009100070040072000a011880000a821003b
:10388c00610020008c00070010062000a0118800a9
:10389c0000a82100610020008700070020072000fd
:1038ac00a011880000a82100610020008200070000
:1038bc0040072000a011880000a821006100200012
:1038cc007d000700d0002000a011880000a8210076
:1038dc006100200078000700a0002000a0118800e3
:1038ec0000a82100610020007300070001003700d0
:1038fc00000000000040eb007ff80700010880008a
:10390c00803e2000808f5000f9ff3600826c8000d2
:10391c00936c80000080eb008080eb00800f5100e6
:10392c00818f590003003a00902def00922def008b
:10393c0006003700806c8000916c800061004000b4
:10394c00e0804800806c8800916c88000021ef00ba
:10395c00e8ff37000000fa00e3c4a900e3e4a90083
:10396c00c9c2a900c9e2a900020007000080fa0040
:10397c00000006000000fa0005a1a8002108800044
:10398c00f0cf2f00008060002008880004c1a9003f
:10399c000441a9000421a90021088000f0fc2f009b
:1039ac00008060000040a000200888000021ef008b
:1039bc00902def00922def0005e1a8000080fa0099
:0439cc0000000600f1
:020000040000fa
:1039d000900d00000800000000000000000800003a
:1039e0009005000000000000980d0000520000004b
:1039f00002000000303132003334350036373800f1
:103a00003941420043444500460030003132330022
:103a1000343536003738390061626300646566000a
:103a200000286e00756c6c00290000000100000089
:103a3000000a00000000640000000000e80300002d
:103a4000001027000000a0008601000040420f0087
:103a50000080960098000000e1f5050000ca9a0079
:103a60003b000000ea0d00002600000002000000fc
:103a7000110e000000110e000900000000020000fd
:103a8000130e000000130e000e02010000000000e3
:103a9000000000000000000006020200000000001c
:103aa000ea0d0000100e00000600000000000000fb
:103ab000160e0000020000000200000001000000dd
:043ac0000000000002
:020000040000fa
:103ac400f03fb1000180b10006003500ee030900ab
:103ad40000000000403fb1000180b100fbff3d0049
:103ae4001000b000203fb000020035000080090043
:083af4000000000000000600c4
:020000040000fa
:0200000401f009
:04000000ffff0000fe
:020000040000fa
:0200000401f009
:04000800ffff0000f6
:020000040000fa
:0200000401f009
:04000c00d9ff000018
:020000040000fa
:0200000401f009
:04001000baff000033
:020000040000fa
:0200000401f009
:040014005fff00008a
:020000040000fa
:0200000401f009
:04001800fcff0000e9
:020000040000fa
:0200000401f009
:04001c00fdff0000e4
:020000040000fa
:0200000401f009
:04002000bfff00001e
:00000001FF
