:020000040000fa
:080000000002040000000000f2
:020000040000fa
:04000800c80200002a
:020000040000fa
:04000c00c802000026
:020000040000fa
:04001000c802000022
:020000040000fa
:04001400c80200001e
:020000040000fa
:04001800c80200001a
:020000040000fa
:04001c00c802000016
:020000040000fa
:04002000c802000012
:020000040000fa
:04002400c80200000e
:020000040000fa
:04002800c80200000a
:020000040000fa
:04002c00c802000006
:020000040000fa
:04003000c802000002
:020000040000fa
:04003400c8020000fe
:020000040000fa
:04003800c8020000fa
:020000040000fa
:04003c00c8020000f6
:020000040000fa
:04004000c8020000f2
:020000040000fa
:04004400c8020000ee
:020000040000fa
:04004800c8020000ea
:020000040000fa
:04004c00c8020000e6
:020000040000fa
:04005000c8020000e2
:020000040000fa
:04005400c8020000de
:020000040000fa
:04005800c8020000da
:020000040000fa
:04005c00c8020000d6
:020000040000fa
:04006000c8020000d2
:020000040000fa
:04006400c8020000ce
:020000040000fa
:04006800c8020000ca
:020000040000fa
:04006c00c8020000c6
:020000040000fa
:04007000c8020000c2
:020000040000fa
:04007400c8020000be
:020000040000fa
:04007800c8020000ba
:020000040000fa
:04007c00c8020000b6
:020000040000fa
:04008000c8020000b2
:020000040000fa
:04008400c8020000ae
:020000040000fa
:04008800c8020000aa
:020000040000fa
:04008c00c8020000a6
:020000040000fa
:04009000c8020000a2
:020000040000fa
:04009400c80200009e
:020000040000fa
:04009800c80200009a
:020000040000fa
:04009c00c802000096
:020000040000fa
:0400a000c802000092
:020000040000fa
:0400a400c80200008e
:020000040000fa
:0400a800c80200008a
:020000040000fa
:0400ac00c802000086
:020000040000fa
:0400b000c802000082
:020000040000fa
:0400b400c80200007e
:020000040000fa
:0400b800c80200007a
:020000040000fa
:0400bc00c802000076
:020000040000fa
:0400c000c802000072
:020000040000fa
:0400c400c80200006e
:020000040000fa
:0400c800c80200006a
:020000040000fa
:0400cc00c802000066
:020000040000fa
:0400d000c802000062
:020000040000fa
:0400d400c80200005e
:020000040000fa
:0400d800c80200005a
:020000040000fa
:0400dc00c802000056
:020000040000fa
:0400e000c802000052
:020000040000fa
:0400e400c80200004e
:020000040000fa
:0400e800c80200004a
:020000040000fa
:0400ec00c802000046
:020000040000fa
:0400f000c802000042
:020000040000fa
:0400f400c80200003e
:020000040000fa
:0400f800c80200003a
:020000040000fa
:0400fc00c802000036
:020000040000fa
:04010000c802000031
:020000040000fa
:04010400c80200002d
:020000040000fa
:04010800c802000029
:020000040000fa
:04010c00c802000025
:020000040000fa
:04011000c802000021
:020000040000fa
:04011400c80200001d
:020000040000fa
:04011800c802000019
:020000040000fa
:04011c00c802000015
:020000040000fa
:04012000c802000011
:020000040000fa
:04012400c80200000d
:020000040000fa
:04012800c802000009
:020000040000fa
:04012c00c802000005
:020000040000fa
:04013000c802000001
:020000040000fa
:04013400c8020000fd
:020000040000fa
:04013800c8020000f9
:020000040000fa
:04013c00c8020000f5
:020000040000fa
:04014000c8020000f1
:020000040000fa
:04014400c8020000ed
:020000040000fa
:04014800c8020000e9
:020000040000fa
:04014c00c8020000e5
:020000040000fa
:04015000c8020000e1
:020000040000fa
:04015400c8020000dd
:020000040000fa
:04015800c8020000d9
:020000040000fa
:04015c00c8020000d5
:020000040000fa
:04016000c8020000d1
:020000040000fa
:04016400c8020000cd
:020000040000fa
:04016800c8020000c9
:020000040000fa
:04020800c802000028
:020000040000fa
:04020c00c802000024
:020000040000fa
:04021000c802000020
:020000040000fa
:04021400c80200001c
:020000040000fa
:04021800c802000018
:020000040000fa
:04021c00c802000014
:020000040000fa
:04022000c802000010
:020000040000fa
:04022400c80200000c
:020000040000fa
:04022800c802000008
:020000040000fa
:04022c00c802000004
:020000040000fa
:04023000c802000000
:020000040000fa
:04023400c8020000fc
:020000040000fa
:04023800c8020000f8
:020000040000fa
:04023c00c8020000f4
:020000040000fa
:04024000c8020000f0
:020000040000fa
:04024400c8020000ec
:020000040000fa
:04024800c8020000e8
:020000040000fa
:04024c00c8020000e4
:020000040000fa
:04025000c8020000e0
:020000040000fa
:04025400c8020000dc
:020000040000fa
:04025800c8020000d8
:020000040000fa
:04025c00c8020000d4
:020000040000fa
:04026000c8020000d0
:020000040000fa
:04026400c8020000cc
:020000040000fa
:04026800c8020000c8
:020000040000fa
:04026c00c8020000c4
:020000040000fa
:04027000c8020000c0
:020000040000fa
:04027400c8020000bc
:020000040000fa
:04027800c8020000b8
:020000040000fa
:04027c00c8020000b4
:020000040000fa
:04028000c8020000b0
:020000040000fa
:04028400c8020000ac
:020000040000fa
:04028800c8020000a8
:020000040000fa
:04028c00c8020000a4
:020000040000fa
:04029000c8020000a0
:020000040000fa
:04029400c80200009c
:020000040000fa
:04029800c802000098
:020000040000fa
:04029c00c802000094
:020000040000fa
:0402a000c802000090
:020000040000fa
:0402a400c80200008c
:020000040000fa
:0402a800c802000088
:020000040000fa
:0402ac00c802000084
:020000040000fa
:0402b000c802000080
:020000040000fa
:0402b400c80200007c
:020000040000fa
:0402b800c802000078
:020000040000fa
:0402bc00c802000074
:020000040000fa
:0402c000c802000070
:020000040000fa
:0402c400c80200006c
:020000040000fa
:0402c800c802000068
:020000040000fa
:0402cc00c802000064
:020000040000fa
:0402d000c802000060
:020000040000fa
:0402d400c80200005c
:020000040000fa
:0402d800c802000058
:020000040000fa
:0402dc00c802000054
:020000040000fa
:0402e000c802000050
:020000040000fa
:0402e400c80200004c
:020000040000fa
:0402e800c802000048
:020000040000fa
:0402ec00c802000044
:020000040000fa
:0402f000c802000040
:020000040000fa
:0402f400c80200003c
:020000040000fa
:0402f800c802000038
:020000040000fa
:0402fc00c802000034
:020000040000fa
:04030000c80200002f
:020000040000fa
:04030400c80200002b
:020000040000fa
:04030800c802000027
:020000040000fa
:04030c00c802000023
:020000040000fa
:04031000c80200001f
:020000040000fa
:04031400c80200001b
:020000040000fa
:04031800c802000017
:020000040000fa
:04031c00c802000013
:020000040000fa
:04032000c80200000f
:020000040000fa
:04032400c80200000b
:020000040000fa
:04032800c802000007
:020000040000fa
:04032c00c802000003
:020000040000fa
:04033000c8020000ff
:020000040000fa
:04033400c8020000fb
:020000040000fa
:04033800c8020000f7
:020000040000fa
:04033c00c8020000f3
:020000040000fa
:04034000c8020000ef
:020000040000fa
:04034400c8020000eb
:020000040000fa
:04034800c8020000e7
:020000040000fa
:04034c00c8020000e3
:020000040000fa
:04035000c8020000df
:020000040000fa
:04035400c8020000db
:020000040000fa
:04035800c8020000d7
:020000040000fa
:04035c00c8020000d3
:020000040000fa
:04036000c8020000cf
:020000040000fa
:04036400c8020000cb
:020000040000fa
:04036800c8020000c7
:020000040000fa
:100400000fcd20000eff20000e018800000000002c
:10041000000020000000e000020032000001200087
:1004200020028800140007005b0007000000e000c5
:1004300003003a00a0f42000010020000200370071
:100440000000200001002000810f70000100320038
:1004500014000700000020000000e000020032004d
:100460000000020000000000d20d020000000000a9
:100470000040da000000fe004440a900000a20000d
:100480000000e0000300320000002000a00188000e
:100490004440a800000006008a1f78008b1f7800e7
:1004a0000000060091018800800478000000eb0045
:1004b0001a003700e284440032a0b4009905ba0063
:1004c000e284440032a0b4009906ba00e2844400f9
:1004d00032a0b4000006eb00476fde00fd07b2005b
:1004e000636ce10003003a00ebff07000000eb0043
:1004f0000a003700606ce10004003a00005deb0088
:100500008b05e900fdff3e00040037006168e10053
:10051000010032000086eb000b00070019c7ba008b
:100520001905ba000e04e00003003a000a00e000da
:10053000e0ff3a0000000600fe07b2009e018800be
:100540008a047800f5ff3700395dba008b05e900b1
:100550000c003200295dba008b05e900080032006a
:100560000c00e00003003a00e284440032a0b40032
:10057000f5ff370019ddba008b05e900faff3a00f4
:100580008904e800e184440032a0b40000000600c1
:100590000040da000000fe00000005008000780046
:1005a000010078003041780003c2b300834f51004e
:1005b000faff3200e94f5100f8ff3200edc141006f
:1005c000834f510003003a008000780013c0b3004d
:1005d000050037008041eb00b4c2b300844f5100e6
:1005e00001003a00800078000000eb0002003700b4
:1005f0006a02b900040041003101fb000203b100ae
:10060000e90f5100faff36000304e0000100320058
:100610000000ea0000000600000378008102780074
:1006200085017800010037000403780011000900fb
:100630008281d800800178000602e8000300e00013
:10064000f9ff3a00034a7800110009008282d800bd
:10065000000278008141780084027800e9cf5100df
:1006600001003400e7c1410001c3b30001d34100e0
:100670000400e000f4ff3a000600780000000600e5
:10068000881f7800000478000100e00005003d00ac
:1006900008007800d3c2b300035878008100ea0054
:1006a0000100370008007800dbff07000800780031
:1006b0004f047800000006000a003700b0417800bf
:1006c0000304e000030032000201e900b1cf510051
:1006d000040032008381fb001480fb000080510085
:1006e00000000600010278000200e000f3ff3a007b
:0406f0000000050001
:020000040000fa
:1006f4005253000054000000726500006164000061
:100704007900000052460000504f00005745000099
:10071400523d000038320000004f00004b00000042
:10072400435700004d4f0000444500005f43000064
:10073400555200003d31000000430000574c0000ba
:100744004150000000430000574a0000415000009f
:100754005f430000555200003d2200006d57000029
:1007640069460000692200002c2200006d6100002f
:1007740068610000646100006761000022000000fd
:10078400435700004a410000505f000043550000f9
:10079400523d00002241000057320000222c00008c
:1007a400222a00002a2a00002a2a0000220000002f
:1007b4004349000046530000520000004349000032
:1007c400504d0000555800003d310000004300002a
:1007d40049500000534500005256000045520000a5
:1007e4003d30000000430000495000005345000024
:1007f40052560000455200003d3100002c380000e4
:10080400300000002b490000504400002c00000080
:100814004349000050530000454e0000443d000091
:1008240000410000542b0000000d00000a000000ed
:020000040000fa
:100834000000fa00e244a90021e2a90030032000ec
:100844004011880021a2a9002182a9002162a900e7
:1008540001118000f0cf2f0000806000001188009b
:1008640020e2a90020c2a90020a2a9002082a90098
:100874002062a9000111800090ff2f000080600019
:10088400001188002002a90011118000f0f32f004c
:10089400008060001011880023c2a9002362a9000f
:1008a4002342a80011118000f0f32f0000806000a3
:1008b4001011880022a2a90021e2a8002342a80066
:1008c400e204a900e224a90031e2a90030032000d7
:1008d400c011880031a2a9003182a9003162a900a7
:1008e40081118000f0cf2f0000806000801188000b
:1008f40030e2a90030c2a90030a2a9003082a900c8
:100904003062a9008111800090ff2f0000806000f8
:10091400801188003002a90091118000f0f32f00ab
:10092400008060009011880033c2a9003362a900de
:100934003342a80091118000f0f32f000080600082
:100944009011880032a2a90031e2a8003342a80025
:100954000080fa00000006000400fa002047980016
:100964002e4090000004e00008003200fb68ef0015
:10097400fa68ef00f769ef00f669ef00c42cef00a6
:10098400abff070010c0b300430307009c0207003d
:100994000040eb004003070020668000cf80de00ab
:1009a4002201200003002000820f5000838f580092
:1009b400ce003e000060010012003700180037002e
:1009c4001f003700250037002c00370032003700a5
:1009d400390037003f003700460037004f0037002a
:1009e400560037005c0037006300370069003700a9
:1009f40070003700760037007d0037008300370031
:100a04008a00370011c0b300a0372800d2010700c4
:100a1400206680000000e80020668800b3003700ec
:100a2400e0372800290207000004e0009e0032009d
:100a3400206680000000e80020668800ab003700d4
:100a440011c0b30040382800c301070020668000ad
:100a54000000e80020668800a4003700f038280071
:100a64001a0207000004e0009100320020668000b2
:100a74000000e800206688009c00370011c0b30025
:100a840020392800b4010700206680000000e80037
:100a94002066880095003700f03828000b02070014
:100aa4000004e00084003200206680000000e800ba
:100ab400206688008d00370011c0b300f03928008b
:100ac400a5010700206680000000e8002066880079
:100ad40086003700f0382800fc0107000004e0001d
:100ae40077003200206680000000e800206688005d
:100af4007e00370011c0b300503a28009601070069
:100b040011c0b300203c2800930107002066800038
:100b14000000e8002066880074003700f0382800e0
:100b2400ea0107000004e00067003200206680004c
:100b34000000e800206688006c00370011c0b30094
:100b4400a03d280084010700206680000000e80022
:100b54002066880065003700f0382800db010700b4
:100b64000004e0005a003200206680000000e80023
:100b7400206688005d00370011c0b300003e2800e5
:100b840075010700206680000000e80020668800e8
:100b940056003700f0382800cc0107000004e000bc
:100ba4004d003200206680000000e80020668800c6
:100bb4004e00370011c0b300903e280066010700c4
:100bc400206680000000e8002066880047003700a7
:100bd400f0382800bd0107000004e00040003200a6
:100be400206680000000e800206688003f0037008f
:100bf40011c0b300503f2800570107002066800051
:100c04000000e8002066880038003700f03828002b
:100c1400ae0107000004e0003300320020668000cb
:100c24000000e8002066880030003700c6ccbf0012
:100c34000004a2000004e000190032000000eb00f0
:100c4400000f7800100037005116800000202000ab
:100c5400008060000000e00003003a00cd22a800fc
:100c6400cdc2a80002003700cd22a900cdc2a90040
:100c740000d42000310020007704070010c0b30026
:100c8400c6ecb7001e0fe800700220009e0078003a
:100c9400808f5000ecff3400cd22a900cdc2a90002
:100ca4001900070011003700000000000f00370092
:100cb400000000000d003700000000000b003700aa
:100cc40000000000090037000000000007003700a2
:100cd400000000000500370000000000030037009a
:100ce400000000000100370000000000a901070017
:100cf4000004e00002003200f769ef00f669ef003b
:100d04000080fa00000006000800fa000000eb0072
:100d1400000f78000000eb00100798009d01070009
:100d24000004e0006d00320052002000c18f20005a
:100d3400404028005ffe07000000e00065003a0024
:100d440001c9bf00404798000040eb00504798009d
:100d54006400470010fe0700000f780003c9bf00bd
:100d64004047980004c9bf008000fb00a003200096
:100d7400808f500005003a000040eb005047980077
:100d840090c0b300f7e9b7000700370004c9bf00fb
:100d9400504798000040eb0060479800a0c0b300a3
:100da400f7e9b7000000000064004700fafd0700ff
:100db40010079800f82bef003f003700facbbf0074
:100dc4000004a2000004e0000a003200f7c9bf00da
:100dd4008080fb00c08f200000804000904078009d
:100de40010c2b30080cf500002003a0010c0b3001c
:100df400faebb700facbbf000004e0002b0032008e
:100e0400c25f8000f7c9bf008080fb00c08f200054
:100e14000080400090407800b0bf200000004100f6
:100e240001487800c05f80000000e800c05f8800cf
:100e3400c15f8000700c2000808f500002003400dd
:100e4400700c2000c05f8800f7c9bf008080fb00e1
:100e5400c08f20000080400090407800a0c2b30002
:100e640080cf500011003a00511680000000240089
:100e7400008060000000e00002003a00cdc2a8003b
:100e840001003700cdc2a900c15f8000b0bf2000bf
:100e9400008040008040eb0001487800fa6bef00ce
:100ea400b0bf20006f020700f82bef00f7c9bf00a6
:100eb4000040e800f7e9b700f7c9bf008080fb00f5
:100ec400c08f200000804000104078000004e00043
:100ed400baff3a00f769ef00f669ef000080fa0004
:100ee400000006000a01fa0040079900a04028000b
:100ef400300798000000eb00000f78000000eb00c2
:100f040010079800120037001e007800be00900001
:100f14000080400090407800680147001e00900067
:100f240000004100014878001e0090000000e80025
:100f3400100798009e009000900f2000808f5000b2
:100f440002003400900f2000100798001e0fe800e4
:100f54001e007800be009000008040001040780021
:100f64000004e000e8ff3a00e80047001e0090009b
:100f74000080400001c3b300014878001e009000c7
:100f84000000e80010079800e80047001e009000e9
:100f940000804000c1c2b300014878001e009000e8
:100fa4000000e800100798000000eb0020079800fc
:100fb400030037002e0090000000e800200798008e
:100fc4002e009000ce0091000080400090407800f8
:100fd400a0c2b30080cf5000f6ff3a002e0090006c
:100fe4000000e80020079800201020000e004000b8
:100ff400a2002000ae009000a0fd07000000eb005e
:10100400000f78000c003700201020000e00400074
:101014001e00400090407800680147001e009000c8
:1010240000004100014878001e0090000000e80024
:10103400100798001e0fe800201020000e0040004a
:101044001e004000104078000004e000eeff3a006b
:10105400e80047001e009000008040008040eb0044
:10106400014878006800470011c0b3003a00070047
:10107400fac8bf008080fb00008020000080400090
:101084008040eb0001487800fac8bf000040e80047
:10109400fae8b700fac8bf00e74f40000200360084
:1010a40090cfb300fae8b7000000eb00000f78001f
:1010b40012003700fac8bf000081fb001e00780050
:1010c400ce00910000804000904078000080200015
:1010d4000000410001487800fac8bf000040e80061
:1010e400fae8b700fac8bf00e74f40000200360034
:1010f40090cfb300fae8b7001e0fe8001e00780096
:10110400ce0091000080400090407800a0c2b3005f
:1011140080cf5000e7ff3a00fac8bf008080fb0090
:101124000080200000804000a1c2b3000148780084
:10113400fac8bf000040e800fae8b700fac8bf00e8
:10114400e74f40000200360090cfb300fae8b70042
:101154000080fa00000006000a00fa003007980038
:10116400014f980030412800100798007041280072
:10117400200798000e4890000004e0001b00320095
:101184000000eb00000f780012003700fac8bf001f
:101194000081fb001e0078009e009000008040004b
:1011a4009040780000802000000041000148780051
:1011b400fac8bf000040e800fae8b700fac8bf0068
:1011c400e74f40000200360090cfb300fae8b700c2
:1011d4001e0fe8001e0078009e0090000080400072
:1011e400104078000004e000e8ff3a000000eb0043
:1011f400000f780012003700fac8bf000081fb001e
:101204001e007800be0090000080400090407800ee
:10121400008020000000410001487800fac8bf00a7
:101224000040e800fae8b700fac8bf00e74f400002
:101234000200360090cfb300fae8b7001e0fe800b2
:101244001e007800be00900000804000104078002e
:101254000004e000e8ff3a000000eb00000f780013
:1012640012003700fac8bf000081fb001e0078009e
:10127400ae00900000804000904078000080200084
:101284000000410001487800fac8bf000040e800af
:10129400fae8b700fac8bf00e74f40000200360082
:1012a40090cfb300fae8b7001e0fe8001e007800e4
:1012b400ae00900000804000104078000004e00080
:1012c400e8ff3a000080fa00000006000600fa0079
:1012d400200798000040eb00004f78002d00070025
:1012e4000004e0001d00320010c0b300004f78007d
:1012f4000000eb00100798000f0037001e0090005c
:10130400ae00900000804000904078001e019000e4
:10131400c08f2000000041001040780080cf5000b2
:10132400020032000040eb00004f78001e009000e5
:101334000000e800100798001e009000ae00900026
:1013440000804000104078000004e00003003200f8
:101354001e4078000004e000e8ff3a001e407800d8
:101364000004e00008003200511680000020200034
:10137400008060000000e00002003a00cd22a800d6
:1013840001003700cd22a9001e4078000080fa0039
:10139400000006000200fa000040eb00004f780055
:1013a400f6c9bf00e14f500012003600f6c9bf0075
:1013b4000080fb008080e900c08f20000080400096
:1013c40010407800ed4f50000a003a00f6c9bf0003
:1013d4000080fb008000e900c08f200000804000f6
:1013e40010407800ea4f500002003a0010c0b300e9
:1013f400004f78001e4078000080fa0000000600cc
:101404000000fa00030007006f0007000080fa00e4
:10141400000006000000fa00b18f2000914078001f
:10142400fac8bf0080cf50001500320011118000af
:1014340000202000008060000000e00012003a005c
:10144400fbc8bf008080fb000080200000804000bb
:10145400104078000e0007000004e0000a0032008b
:10146400fbc8bf000040e800fbe8b700fbc8bf00b2
:10147400e74f400004003600fb68ef00020037002d
:10148400fb68ef00fa68ef000080fa000000060035
:101494000400fa00204798000040eb00004f780059
:1014a400f1cbbf000004a2000004e0002c003200d5
:1014b4002e4090000004e0001b003a0010c0b3006e
:1014c400f1ebb7004266800053668000a0f92f005c
:1014d400f1ff2f00800f5100818f590007003e005b
:1014e40040668000516680004006b0000180b00074
:1014f400905f8800a15f8800080037004066800084
:10150400516680005006b0000180b000905f8800f2
:10151400a15f880010c0b300f6ebb70010c0b300a1
:10152400004f7800250037001111800000202000b2
:10153400008060000000e00020003a002e4090008f
:101544000000fb002011880010c0b300004f780099
:101554002e4090000000fb00a01188001700370007
:10156400f6cbbf000004e0000800320042668000b1
:1015740053668000905f8000a15f8000800f51005f
:10158400818f590001003100f66bef00f6cbbf00ec
:101594000004a2000004e00008003200426680005b
:1015a40053668000905f8000a15f8000800f51002f
:1015b400818f590001003900f16bef001e40780063
:1015c4000080fa00000006000200fa000040eb0070
:1015d400004f78000e00e8001a0007000004e00045
:1015e40015003200f6c9bf000081fb009e40900048
:1015f400c08f2000000041000148780010c0b300f3
:10160400004f7800f6c9bf000040e800f6e9b700d3
:10161400f6c9bf00e74f400001003600f669ef004d
:10162400f6c9bf008080fb00c08f2000008040000e
:101634008040eb00014878001e4078000080fa00ea
:10164400000006000400fa00100798000040eb00b8
:10165400004f780010118000610060000000e0007d
:101664000a00320030118000804078001e00900093
:101674000148780010c0b300004f78001e009000ad
:10168400104078000000fb00a01188001e40780084
:101694000080fa00000006000200fa00004f780003
:1016a4001e4078000004e00042003200f36aef00bc
:1016b400f26aef00ef6bef00ee6bef001901070029
:1016c400d0002000a011880000502300c100200099
:1016d400e101070030052000a011880000882300e4
:1016e40011002000dc01070000052000a011880083
:1016f4000088230011002000d70107009004200077
:10170400a01188000088230011002000d2010700e6
:10171400d0002000a01188000088230011002000c0
:10172400cd01070050042000a01188000088230088
:1017340011002000c8010700e0062000a011880065
:101744000088230011002000c301070010062000b8
:10175400a01188000088230011002000be010700aa
:1017640020062000a011880000882300110020001a
:10177400b9010700c0062000a011880000882300da
:1017840011002000b401070050062000a0118800b9
:101794000088230011002000af010700400620004c
:1017a400a01188000088230011002000aa0107006e
:1017b400cd02a800511680000000210000806000c6
:1017c4000000e00008003200f0cbbf000004a200db
:1017d4000004e0001200320010c0b300f0ebb700c8
:1017e40061e2a9000e003700f0cbbf000004e00066
:1017f40004003200f06bef00ef6bef00ee6bef00d4
:1018040061e2a80061000700070007004600070026
:101814000004e00002003200ef6bef00ee6bef001b
:101824000080fa00000006000000fa003e000700f5
:101834000004e00009003200cd02a80041af2000fe
:101844009140780010c2b30080cf500003003a00ea
:10185400cd02a80040af2000a2fd07000080fa00de
:10186400000006000400fa00100798000000eb00d6
:10187400000f780012003700f2cabf000081fb009d
:101884001e0078009e009000008040009040780088
:10189400809f20000000410001487800f2cabf0088
:1018a4000040e800f2eab700f2cabf00e74f400088
:1018b4000200360090cfb300f2eab7001e0fe80032
:1018c4001e0078009e009000008040009040780048
:1018d400a0c2b30080cf5000e7ff3a00f2cabf00b5
:1018e4000081fb001e0078009e00900000804000f4
:1018f40090407800809f200000004100014878005b
:10190400f2cabf000040e800f2eab700f2cabf0022
:10191400e74f40000200360090cfb300f2eab70070
:101924000080fa00000006000200fa000040eb000c
:10193400004f7800eecbbf000080fb008000e90080
:1019440040af20000080400090407800a0c2b30067
:1019540080cf50000a003a00511680000010200089
:10196400008060000000e00002003a00cd02a80000
:1019740001003700cd02a80010c0b300004f78006a
:101984001e4078000080fa00000006000000fa0003
:10199400030007002f0007000080fa000000060083
:1019a4000000fa0031af200091407800f2cabf0075
:1019b40080cf500010003200f3cabf008080fb00cb
:1019c400809f200000804000104078000e00070037
:1019d4000004e0000a003200f3cabf000040e8003f
:1019e400f3eab700f3cabf00e74f40000400360033
:1019f400f36aef0002003700f36aef00f26aef00c7
:101a04000080fa00000006000400fa002047980055
:101a14000040eb00004f780000138000620060007b
:101a24000000e00008003a002e4090000000fb0097
:101a34004013880010c0b300004f78002e4090007f
:101a44000000fb00a01188001e4078000080fa000e
:101a5400000006000200fa000040eb00004f78008e
:101a64000e00e8001a0007000004e0001500320030
:101a7400eecbbf000081fb009e40900040af2000f1
:101a8400000041000148780010c0b300004f780006
:101a9400eecbbf000040e800eeebb700eecbbf009a
:101aa400e74f400001003600ee6bef00eecbbf00c5
:101ab4008080fb0040af2000008040008040eb00ad
:101ac400014878001e4078000080fa0000000600fb
:101ad4000400fa00100798000040eb00004f780063
:101ae40000138000610060000000e0000a00320082
:101af40040138000804078001e0090000148780068
:101b040010c0b300004f78001e0090001040780011
:101b14000000fb00a01188001e4078000080fa003d
:101b2400000006000000fa00e024ef00e224ef00c9
:101b3400e384a900c8a2a800c8c2a900c982a80059
:101b4400c0e2a80062a2a9006382a8006362a9009f
:101b54006342a9006322a9006302a80062e2a8000c
:101b640062c2a8001113800030fe2f0000806000c4
:101b74001013880065e2a90065c2a90065a2a90046
:101b84006422a9006402a90060c2a9004013800075
:101b94004013880061e2a8000080fa0000000600fb
:101ba4000800fa002007980031079800e3c4a90050
:101bb400e3e4a900c922a900c9c2a900c902a90075
:101bc400cd22a900cdc2a900cd02a9000020210088
:101bd400a1072000a00007000000eb00000f780020
:101be4000c003700511680000020200000806000a7
:101bf4000000e00002003a00cd22a80001003700f6
:101c0400cd22a90000902000d103200092000700fb
:101c14001e0fe8001e007800e40f5000f1ff3400ae
:101c24007100070010c0b3004bfb070010c0b300e5
:101c340099fe07000000eb00100798000e00370023
:101c44005116800000202000008060000000e000a9
:101c540002003a00cd22a80001003700cd22a900dd
:101c640000502300c10020007b0007001e009000ec
:101c74000000e800100798001e009000e90f5000d3
:101c8400efff3400cd22a900cdc2a900cd22a800c7
:101c940000902000d10320006f000700cdc2a800ef
:101ca40000902000d10320006b000700cd22a90082
:101cb40000902000d103200067000700cdc2a900d6
:101cc40000202100a107200063000700d0002000ad
:101cd400a011880000a82100610020005e00070018
:101ce400a0002000a011880000a8210061002000ad
:101cf4005900070030072000a011880000a8210027
:101d0400610020005400070040072000a011880053
:101d140000a82100610020004f00070010062000e9
:101d2400a011880000a82100610020004a000700db
:101d340020072000a011880000a8210061002000d5
:101d44004500070040072000a011880000a82100da
:101d54006100200040000700d0002000a01188008e
:101d640000a82100610020003b000700a000200023
:101d7400a011880000a8210061002000360007009f
:101d840001003700000000000040eb00f2fa0700f9
:101d940001088000803e2000808f5000f9ff36004b
:101da40042668000536680000080eb008080eb0078
:101db400800f5100818f590003003a00c82cef00b6
:101dc400ca2cef0006003700406680005166800090
:101dd40061004000e0804800406688005166880049
:101de4000021ef00e8ff37000000fa00e3c4a90077
:101df400e3e4a900c9c2a900c9e2a90002000700de
:101e04000080fa00000006000000fa0005a1a80006
:101e140021088000f0cf2f00008060002008880097
:101e240004c1a9000441a9000421a90021088000db
:101e3400f0fc2f00008060000040a0002008880013
:101e44000021ef00c82cef00ca2cef0005e1a80028
:081e54000080fa000000060006
:020000040000fa
:101e5c00f03fb1000180b10006003500ee0309002f
:101e6c0000000000403fb1000180b100fbff3d00cd
:101e7c001000b000203fb0000200350000800900c7
:081e8c00000000000000060048
:020000040000fa
:101e9400c80c00000800000000000000000800005a
:0c1ea400c8040000000000000000000066
:020000040000fa
:0200000401f009
:04000000ffff0000fe
:020000040000fa
:0200000401f009
:04000800ffff0000f6
:020000040000fa
:0200000401f009
:04000c00d9ff000018
:020000040000fa
:0200000401f009
:04001000baff000033
:020000040000fa
:0200000401f009
:040014005fff00008a
:020000040000fa
:0200000401f009
:04001800fcff0000e9
:020000040000fa
:0200000401f009
:04001c00fdff0000e4
:020000040000fa
:0200000401f009
:04002000bfff00001e
:00000001FF
